{
	"contracts/belajar/tes.sol": {
		"ContohStorage": {
			"abi": [
				{
					"inputs": [],
					"stateMutability": "nonpayable",
					"type": "constructor"
				},
				{
					"anonymous": false,
					"inputs": [
						{
							"indexed": false,
							"internalType": "string",
							"name": "oldNama",
							"type": "string"
						},
						{
							"indexed": false,
							"internalType": "string",
							"name": "newNama",
							"type": "string"
						}
					],
					"name": "LogUpdateNama",
					"type": "event"
				},
				{
					"inputs": [
						{
							"internalType": "uint256[]",
							"name": "angka",
							"type": "uint256[]"
						}
					],
					"name": "contohArray",
					"outputs": [
						{
							"internalType": "uint256",
							"name": "",
							"type": "uint256"
						}
					],
					"stateMutability": "pure",
					"type": "function"
				},
				{
					"inputs": [
						{
							"internalType": "string",
							"name": "input",
							"type": "string"
						}
					],
					"name": "contohStringCalldata",
					"outputs": [
						{
							"internalType": "string",
							"name": "",
							"type": "string"
						}
					],
					"stateMutability": "pure",
					"type": "function"
				},
				{
					"inputs": [],
					"name": "dataBytes",
					"outputs": [
						{
							"internalType": "bytes",
							"name": "",
							"type": "bytes"
						}
					],
					"stateMutability": "view",
					"type": "function"
				},
				{
					"inputs": [
						{
							"internalType": "uint256",
							"name": "",
							"type": "uint256"
						}
					],
					"name": "dynamicArray",
					"outputs": [
						{
							"internalType": "uint256",
							"name": "",
							"type": "uint256"
						}
					],
					"stateMutability": "view",
					"type": "function"
				},
				{
					"inputs": [],
					"name": "externalFunction",
					"outputs": [
						{
							"internalType": "uint256",
							"name": "",
							"type": "uint256"
						}
					],
					"stateMutability": "view",
					"type": "function"
				},
				{
					"inputs": [],
					"name": "lihatNama",
					"outputs": [
						{
							"internalType": "string",
							"name": "",
							"type": "string"
						}
					],
					"stateMutability": "view",
					"type": "function"
				},
				{
					"inputs": [],
					"name": "mhs",
					"outputs": [
						{
							"internalType": "string",
							"name": "nama",
							"type": "string"
						},
						{
							"internalType": "uint256",
							"name": "umur",
							"type": "uint256"
						}
					],
					"stateMutability": "view",
					"type": "function"
				},
				{
					"inputs": [],
					"name": "nama",
					"outputs": [
						{
							"internalType": "string",
							"name": "",
							"type": "string"
						}
					],
					"stateMutability": "view",
					"type": "function"
				},
				{
					"inputs": [],
					"name": "pemilik",
					"outputs": [
						{
							"internalType": "address",
							"name": "",
							"type": "address"
						}
					],
					"stateMutability": "view",
					"type": "function"
				},
				{
					"inputs": [],
					"name": "status",
					"outputs": [
						{
							"internalType": "bool",
							"name": "",
							"type": "bool"
						}
					],
					"stateMutability": "view",
					"type": "function"
				},
				{
					"inputs": [
						{
							"internalType": "uint256",
							"name": "a",
							"type": "uint256"
						},
						{
							"internalType": "uint256",
							"name": "b",
							"type": "uint256"
						}
					],
					"name": "tambah",
					"outputs": [
						{
							"internalType": "uint256",
							"name": "",
							"type": "uint256"
						}
					],
					"stateMutability": "pure",
					"type": "function"
				},
				{
					"inputs": [
						{
							"internalType": "uint256",
							"name": "_angka",
							"type": "uint256"
						}
					],
					"name": "tambahArray",
					"outputs": [],
					"stateMutability": "nonpayable",
					"type": "function"
				},
				{
					"inputs": [],
					"name": "terimaETH",
					"outputs": [],
					"stateMutability": "payable",
					"type": "function"
				},
				{
					"inputs": [
						{
							"internalType": "string",
							"name": "_namaBaru",
							"type": "string"
						}
					],
					"name": "ubahNama",
					"outputs": [],
					"stateMutability": "nonpayable",
					"type": "function"
				},
				{
					"inputs": [],
					"name": "umur",
					"outputs": [
						{
							"internalType": "uint256",
							"name": "",
							"type": "uint256"
						}
					],
					"stateMutability": "view",
					"type": "function"
				}
			],
			"devdoc": {
				"kind": "dev",
				"methods": {},
				"version": 1
			},
			"evm": {
				"assembly": "    /* \"contracts/belajar/tes.sol\":58:2489  contract ContohStorage {... */\n  mstore(0x40, 0x80)\n    /* \"contracts/belajar/tes.sol\":214:252  string public nama = \"Syaid Alfarishi\" */\n  mload(0x40)\n  dup1\n  0x40\n  add\n  0x40\n  mstore\n  dup1\n  0x0f\n  dup2\n  mstore\n  0x20\n  add\n  0x537961696420416c666172697368690000000000000000000000000000000000\n  dup2\n  mstore\n  pop\n  0x00\n  swap1\n  dup2\n  tag_1\n  swap2\n  swap1\n  tag_2\n  jump\t// in\ntag_1:\n  pop\n    /* \"contracts/belajar/tes.sol\":297:299  20 */\n  0x14\n    /* \"contracts/belajar/tes.sol\":278:299  uint public umur = 20 */\n  0x01\n  sstore\n    /* \"contracts/belajar/tes.sol\":325:357  bytes public dataBytes = \"Hello\" */\n  mload(0x40)\n  dup1\n  0x40\n  add\n  0x40\n  mstore\n  dup1\n  0x05\n  dup2\n  mstore\n  0x20\n  add\n  0x48656c6c6f000000000000000000000000000000000000000000000000000000\n  dup2\n  mstore\n  pop\n  0x02\n  swap1\n  dup2\n  tag_3\n  swap2\n  swap1\n  tag_4\n  jump\t// in\ntag_3:\n  pop\n    /* \"contracts/belajar/tes.sol\":528:550  Mahasiswa(\"Syaid\", 20) */\n  mload(0x40)\n  dup1\n  0x40\n  add\n  0x40\n  mstore\n  dup1\n  mload(0x40)\n  dup1\n  0x40\n  add\n  0x40\n  mstore\n  dup1\n  0x05\n  dup2\n  mstore\n  0x20\n  add\n  0x5379616964000000000000000000000000000000000000000000000000000000\n  dup2\n  mstore\n  pop\n  dup2\n  mstore\n  0x20\n  add\n    /* \"contracts/belajar/tes.sol\":547:549  20 */\n  0x14\n    /* \"contracts/belajar/tes.sol\":528:550  Mahasiswa(\"Syaid\", 20) */\n  dup2\n  mstore\n  pop\n    /* \"contracts/belajar/tes.sol\":505:550  Mahasiswa public mhs = Mahasiswa(\"Syaid\", 20) */\n  0x04\n  0x00\n  dup3\n  add\n  mload\n  dup2\n  0x00\n  add\n  swap1\n  dup2\n  tag_5\n  swap2\n  swap1\n  tag_2\n  jump\t// in\ntag_5:\n  pop\n  0x20\n  dup3\n  add\n  mload\n  dup2\n  0x01\n  add\n  sstore\n  pop\n  pop\n    /* \"contracts/belajar/tes.sol\":650:654  true */\n  0x01\n    /* \"contracts/belajar/tes.sol\":629:654  bool public status = true */\n  0x06\n  exp(0x0100, 0x00)\n  dup2\n  sload\n  dup2\n  0xff\n  mul\n  not\n  and\n  swap1\n  dup4\n  iszero\n  iszero\n  mul\n  or\n  swap1\n  sstore\n  pop\n    /* \"contracts/belajar/tes.sol\":816:867  constructor() {... */\n  callvalue\n  dup1\n  iszero\n  tag_6\n  jumpi\n  revert(0x00, 0x00)\ntag_6:\n  pop\n    /* \"contracts/belajar/tes.sol\":850:860  msg.sender */\n  caller\n    /* \"contracts/belajar/tes.sol\":840:847  pemilik */\n  0x06\n  0x01\n    /* \"contracts/belajar/tes.sol\":840:860  pemilik = msg.sender */\n  0x0100\n  exp\n  dup2\n  sload\n  dup2\n  0xffffffffffffffffffffffffffffffffffffffff\n  mul\n  not\n  and\n  swap1\n  dup4\n  0xffffffffffffffffffffffffffffffffffffffff\n  and\n  mul\n  or\n  swap1\n  sstore\n  pop\n    /* \"contracts/belajar/tes.sol\":58:2489  contract ContohStorage {... */\n  jump(tag_9)\n    /* \"#utility.yul\":7:106   */\ntag_10:\n    /* \"#utility.yul\":59:65   */\n  0x00\n    /* \"#utility.yul\":93:98   */\n  dup2\n    /* \"#utility.yul\":87:99   */\n  mload\n    /* \"#utility.yul\":77:99   */\n  swap1\n  pop\n    /* \"#utility.yul\":7:106   */\n  swap2\n  swap1\n  pop\n  jump\t// out\n    /* \"#utility.yul\":112:292   */\ntag_11:\n    /* \"#utility.yul\":160:237   */\n  0x4e487b7100000000000000000000000000000000000000000000000000000000\n    /* \"#utility.yul\":157:158   */\n  0x00\n    /* \"#utility.yul\":150:238   */\n  mstore\n    /* \"#utility.yul\":257:261   */\n  0x41\n    /* \"#utility.yul\":254:255   */\n  0x04\n    /* \"#utility.yul\":247:262   */\n  mstore\n    /* \"#utility.yul\":281:285   */\n  0x24\n    /* \"#utility.yul\":278:279   */\n  0x00\n    /* \"#utility.yul\":271:286   */\n  revert\n    /* \"#utility.yul\":298:478   */\ntag_12:\n    /* \"#utility.yul\":346:423   */\n  0x4e487b7100000000000000000000000000000000000000000000000000000000\n    /* \"#utility.yul\":343:344   */\n  0x00\n    /* \"#utility.yul\":336:424   */\n  mstore\n    /* \"#utility.yul\":443:447   */\n  0x22\n    /* \"#utility.yul\":440:441   */\n  0x04\n    /* \"#utility.yul\":433:448   */\n  mstore\n    /* \"#utility.yul\":467:471   */\n  0x24\n    /* \"#utility.yul\":464:465   */\n  0x00\n    /* \"#utility.yul\":457:472   */\n  revert\n    /* \"#utility.yul\":484:804   */\ntag_13:\n    /* \"#utility.yul\":528:534   */\n  0x00\n    /* \"#utility.yul\":565:566   */\n  0x02\n    /* \"#utility.yul\":559:563   */\n  dup3\n    /* \"#utility.yul\":555:567   */\n  div\n    /* \"#utility.yul\":545:567   */\n  swap1\n  pop\n    /* \"#utility.yul\":612:613   */\n  0x01\n    /* \"#utility.yul\":606:610   */\n  dup3\n    /* \"#utility.yul\":602:614   */\n  and\n    /* \"#utility.yul\":633:651   */\n  dup1\n    /* \"#utility.yul\":623:704   */\n  tag_37\n  jumpi\n    /* \"#utility.yul\":689:693   */\n  0x7f\n    /* \"#utility.yul\":681:687   */\n  dup3\n    /* \"#utility.yul\":677:694   */\n  and\n    /* \"#utility.yul\":667:694   */\n  swap2\n  pop\n    /* \"#utility.yul\":623:704   */\ntag_37:\n    /* \"#utility.yul\":751:753   */\n  0x20\n    /* \"#utility.yul\":743:749   */\n  dup3\n    /* \"#utility.yul\":740:754   */\n  lt\n    /* \"#utility.yul\":720:738   */\n  dup2\n    /* \"#utility.yul\":717:755   */\n  sub\n    /* \"#utility.yul\":714:798   */\n  tag_38\n  jumpi\n    /* \"#utility.yul\":770:788   */\n  tag_39\n  tag_12\n  jump\t// in\ntag_39:\n    /* \"#utility.yul\":714:798   */\ntag_38:\n    /* \"#utility.yul\":535:804   */\n  pop\n    /* \"#utility.yul\":484:804   */\n  swap2\n  swap1\n  pop\n  jump\t// out\n    /* \"#utility.yul\":810:951   */\ntag_14:\n    /* \"#utility.yul\":859:863   */\n  0x00\n    /* \"#utility.yul\":882:885   */\n  dup2\n    /* \"#utility.yul\":874:885   */\n  swap1\n  pop\n    /* \"#utility.yul\":905:908   */\n  dup2\n    /* \"#utility.yul\":902:903   */\n  0x00\n    /* \"#utility.yul\":895:909   */\n  mstore\n    /* \"#utility.yul\":939:943   */\n  0x20\n    /* \"#utility.yul\":936:937   */\n  0x00\n    /* \"#utility.yul\":926:944   */\n  keccak256\n    /* \"#utility.yul\":918:944   */\n  swap1\n  pop\n    /* \"#utility.yul\":810:951   */\n  swap2\n  swap1\n  pop\n  jump\t// out\n    /* \"#utility.yul\":957:1050   */\ntag_15:\n    /* \"#utility.yul\":994:1000   */\n  0x00\n    /* \"#utility.yul\":1041:1043   */\n  0x20\n    /* \"#utility.yul\":1036:1038   */\n  0x1f\n    /* \"#utility.yul\":1029:1034   */\n  dup4\n    /* \"#utility.yul\":1025:1039   */\n  add\n    /* \"#utility.yul\":1021:1044   */\n  div\n    /* \"#utility.yul\":1011:1044   */\n  swap1\n  pop\n    /* \"#utility.yul\":957:1050   */\n  swap2\n  swap1\n  pop\n  jump\t// out\n    /* \"#utility.yul\":1056:1163   */\ntag_16:\n    /* \"#utility.yul\":1100:1108   */\n  0x00\n    /* \"#utility.yul\":1150:1155   */\n  dup3\n    /* \"#utility.yul\":1144:1148   */\n  dup3\n    /* \"#utility.yul\":1140:1156   */\n  shl\n    /* \"#utility.yul\":1119:1156   */\n  swap1\n  pop\n    /* \"#utility.yul\":1056:1163   */\n  swap3\n  swap2\n  pop\n  pop\n  jump\t// out\n    /* \"#utility.yul\":1169:1562   */\ntag_17:\n    /* \"#utility.yul\":1238:1244   */\n  0x00\n    /* \"#utility.yul\":1288:1289   */\n  0x08\n    /* \"#utility.yul\":1276:1286   */\n  dup4\n    /* \"#utility.yul\":1272:1290   */\n  mul\n    /* \"#utility.yul\":1311:1408   */\n  tag_44\n    /* \"#utility.yul\":1341:1407   */\n  0xffffffffffffffffffffffffffffffffffffffffffffffffffffffffffffffff\n    /* \"#utility.yul\":1330:1339   */\n  dup3\n    /* \"#utility.yul\":1311:1408   */\n  tag_16\n  jump\t// in\ntag_44:\n    /* \"#utility.yul\":1429:1468   */\n  tag_45\n    /* \"#utility.yul\":1459:1467   */\n  dup7\n    /* \"#utility.yul\":1448:1457   */\n  dup4\n    /* \"#utility.yul\":1429:1468   */\n  tag_16\n  jump\t// in\ntag_45:\n    /* \"#utility.yul\":1417:1468   */\n  swap6\n  pop\n    /* \"#utility.yul\":1501:1505   */\n  dup1\n    /* \"#utility.yul\":1497:1506   */\n  not\n    /* \"#utility.yul\":1490:1495   */\n  dup5\n    /* \"#utility.yul\":1486:1507   */\n  and\n    /* \"#utility.yul\":1477:1507   */\n  swap4\n  pop\n    /* \"#utility.yul\":1550:1554   */\n  dup1\n    /* \"#utility.yul\":1540:1548   */\n  dup7\n    /* \"#utility.yul\":1536:1555   */\n  and\n    /* \"#utility.yul\":1529:1534   */\n  dup5\n    /* \"#utility.yul\":1526:1556   */\n  or\n    /* \"#utility.yul\":1516:1556   */\n  swap3\n  pop\n    /* \"#utility.yul\":1245:1562   */\n  pop\n  pop\n    /* \"#utility.yul\":1169:1562   */\n  swap4\n  swap3\n  pop\n  pop\n  pop\n  jump\t// out\n    /* \"#utility.yul\":1568:1645   */\ntag_18:\n    /* \"#utility.yul\":1605:1612   */\n  0x00\n    /* \"#utility.yul\":1634:1639   */\n  dup2\n    /* \"#utility.yul\":1623:1639   */\n  swap1\n  pop\n    /* \"#utility.yul\":1568:1645   */\n  swap2\n  swap1\n  pop\n  jump\t// out\n    /* \"#utility.yul\":1651:1711   */\ntag_19:\n    /* \"#utility.yul\":1679:1682   */\n  0x00\n    /* \"#utility.yul\":1700:1705   */\n  dup2\n    /* \"#utility.yul\":1693:1705   */\n  swap1\n  pop\n    /* \"#utility.yul\":1651:1711   */\n  swap2\n  swap1\n  pop\n  jump\t// out\n    /* \"#utility.yul\":1717:1859   */\ntag_20:\n    /* \"#utility.yul\":1767:1776   */\n  0x00\n    /* \"#utility.yul\":1800:1853   */\n  tag_49\n    /* \"#utility.yul\":1818:1852   */\n  tag_50\n    /* \"#utility.yul\":1827:1851   */\n  tag_51\n    /* \"#utility.yul\":1845:1850   */\n  dup5\n    /* \"#utility.yul\":1827:1851   */\n  tag_18\n  jump\t// in\ntag_51:\n    /* \"#utility.yul\":1818:1852   */\n  tag_19\n  jump\t// in\ntag_50:\n    /* \"#utility.yul\":1800:1853   */\n  tag_18\n  jump\t// in\ntag_49:\n    /* \"#utility.yul\":1787:1853   */\n  swap1\n  pop\n    /* \"#utility.yul\":1717:1859   */\n  swap2\n  swap1\n  pop\n  jump\t// out\n    /* \"#utility.yul\":1865:1940   */\ntag_21:\n    /* \"#utility.yul\":1908:1911   */\n  0x00\n    /* \"#utility.yul\":1929:1934   */\n  dup2\n    /* \"#utility.yul\":1922:1934   */\n  swap1\n  pop\n    /* \"#utility.yul\":1865:1940   */\n  swap2\n  swap1\n  pop\n  jump\t// out\n    /* \"#utility.yul\":1946:2215   */\ntag_22:\n    /* \"#utility.yul\":2056:2095   */\n  tag_54\n    /* \"#utility.yul\":2087:2094   */\n  dup4\n    /* \"#utility.yul\":2056:2095   */\n  tag_20\n  jump\t// in\ntag_54:\n    /* \"#utility.yul\":2117:2208   */\n  tag_55\n    /* \"#utility.yul\":2166:2207   */\n  tag_56\n    /* \"#utility.yul\":2190:2206   */\n  dup3\n    /* \"#utility.yul\":2166:2207   */\n  tag_21\n  jump\t// in\ntag_56:\n    /* \"#utility.yul\":2158:2164   */\n  dup5\n    /* \"#utility.yul\":2151:2155   */\n  dup5\n    /* \"#utility.yul\":2145:2156   */\n  sload\n    /* \"#utility.yul\":2117:2208   */\n  tag_17\n  jump\t// in\ntag_55:\n    /* \"#utility.yul\":2111:2115   */\n  dup3\n    /* \"#utility.yul\":2104:2209   */\n  sstore\n    /* \"#utility.yul\":2022:2215   */\n  pop\n    /* \"#utility.yul\":1946:2215   */\n  pop\n  pop\n  pop\n  jump\t// out\n    /* \"#utility.yul\":2221:2294   */\ntag_23:\n    /* \"#utility.yul\":2266:2269   */\n  0x00\n    /* \"#utility.yul\":2287:2288   */\n  0x00\n    /* \"#utility.yul\":2280:2288   */\n  swap1\n  pop\n    /* \"#utility.yul\":2221:2294   */\n  swap1\n  jump\t// out\n    /* \"#utility.yul\":2300:2489   */\ntag_24:\n    /* \"#utility.yul\":2377:2409   */\n  tag_59\n  tag_23\n  jump\t// in\ntag_59:\n    /* \"#utility.yul\":2418:2483   */\n  tag_60\n    /* \"#utility.yul\":2476:2482   */\n  dup2\n    /* \"#utility.yul\":2468:2474   */\n  dup5\n    /* \"#utility.yul\":2462:2466   */\n  dup5\n    /* \"#utility.yul\":2418:2483   */\n  tag_22\n  jump\t// in\ntag_60:\n    /* \"#utility.yul\":2353:2489   */\n  pop\n    /* \"#utility.yul\":2300:2489   */\n  pop\n  pop\n  jump\t// out\n    /* \"#utility.yul\":2495:2681   */\ntag_25:\n    /* \"#utility.yul\":2555:2675   */\ntag_62:\n    /* \"#utility.yul\":2572:2575   */\n  dup2\n    /* \"#utility.yul\":2565:2570   */\n  dup2\n    /* \"#utility.yul\":2562:2576   */\n  lt\n    /* \"#utility.yul\":2555:2675   */\n  iszero\n  tag_64\n  jumpi\n    /* \"#utility.yul\":2626:2665   */\n  tag_65\n    /* \"#utility.yul\":2663:2664   */\n  0x00\n    /* \"#utility.yul\":2656:2661   */\n  dup3\n    /* \"#utility.yul\":2626:2665   */\n  tag_24\n  jump\t// in\ntag_65:\n    /* \"#utility.yul\":2599:2600   */\n  0x01\n    /* \"#utility.yul\":2592:2597   */\n  dup2\n    /* \"#utility.yul\":2588:2601   */\n  add\n    /* \"#utility.yul\":2579:2601   */\n  swap1\n  pop\n    /* \"#utility.yul\":2555:2675   */\n  jump(tag_62)\ntag_64:\n    /* \"#utility.yul\":2495:2681   */\n  pop\n  pop\n  jump\t// out\n    /* \"#utility.yul\":2687:3230   */\ntag_26:\n    /* \"#utility.yul\":2788:2790   */\n  0x1f\n    /* \"#utility.yul\":2783:2786   */\n  dup3\n    /* \"#utility.yul\":2780:2791   */\n  gt\n    /* \"#utility.yul\":2777:3223   */\n  iszero\n  tag_67\n  jumpi\n    /* \"#utility.yul\":2822:2860   */\n  tag_68\n    /* \"#utility.yul\":2854:2859   */\n  dup2\n    /* \"#utility.yul\":2822:2860   */\n  tag_14\n  jump\t// in\ntag_68:\n    /* \"#utility.yul\":2906:2935   */\n  tag_69\n    /* \"#utility.yul\":2924:2934   */\n  dup5\n    /* \"#utility.yul\":2906:2935   */\n  tag_15\n  jump\t// in\ntag_69:\n    /* \"#utility.yul\":2896:2904   */\n  dup2\n    /* \"#utility.yul\":2892:2936   */\n  add\n    /* \"#utility.yul\":3089:3091   */\n  0x20\n    /* \"#utility.yul\":3077:3087   */\n  dup6\n    /* \"#utility.yul\":3074:3092   */\n  lt\n    /* \"#utility.yul\":3071:3120   */\n  iszero\n  tag_70\n  jumpi\n    /* \"#utility.yul\":3110:3118   */\n  dup2\n    /* \"#utility.yul\":3095:3118   */\n  swap1\n  pop\n    /* \"#utility.yul\":3071:3120   */\ntag_70:\n    /* \"#utility.yul\":3133:3213   */\n  tag_71\n    /* \"#utility.yul\":3189:3211   */\n  tag_72\n    /* \"#utility.yul\":3207:3210   */\n  dup6\n    /* \"#utility.yul\":3189:3211   */\n  tag_15\n  jump\t// in\ntag_72:\n    /* \"#utility.yul\":3179:3187   */\n  dup4\n    /* \"#utility.yul\":3175:3212   */\n  add\n    /* \"#utility.yul\":3162:3173   */\n  dup3\n    /* \"#utility.yul\":3133:3213   */\n  tag_25\n  jump\t// in\ntag_71:\n    /* \"#utility.yul\":2792:3223   */\n  pop\n  pop\n    /* \"#utility.yul\":2777:3223   */\ntag_67:\n    /* \"#utility.yul\":2687:3230   */\n  pop\n  pop\n  pop\n  jump\t// out\n    /* \"#utility.yul\":3236:3353   */\ntag_27:\n    /* \"#utility.yul\":3290:3298   */\n  0x00\n    /* \"#utility.yul\":3340:3345   */\n  dup3\n    /* \"#utility.yul\":3334:3338   */\n  dup3\n    /* \"#utility.yul\":3330:3346   */\n  shr\n    /* \"#utility.yul\":3309:3346   */\n  swap1\n  pop\n    /* \"#utility.yul\":3236:3353   */\n  swap3\n  swap2\n  pop\n  pop\n  jump\t// out\n    /* \"#utility.yul\":3359:3528   */\ntag_28:\n    /* \"#utility.yul\":3403:3409   */\n  0x00\n    /* \"#utility.yul\":3436:3487   */\n  tag_75\n    /* \"#utility.yul\":3484:3485   */\n  0x00\n    /* \"#utility.yul\":3480:3486   */\n  not\n    /* \"#utility.yul\":3472:3477   */\n  dup5\n    /* \"#utility.yul\":3469:3470   */\n  0x08\n    /* \"#utility.yul\":3465:3478   */\n  mul\n    /* \"#utility.yul\":3436:3487   */\n  tag_27\n  jump\t// in\ntag_75:\n    /* \"#utility.yul\":3432:3488   */\n  not\n    /* \"#utility.yul\":3517:3521   */\n  dup1\n    /* \"#utility.yul\":3511:3515   */\n  dup4\n    /* \"#utility.yul\":3507:3522   */\n  and\n    /* \"#utility.yul\":3497:3522   */\n  swap2\n  pop\n    /* \"#utility.yul\":3410:3528   */\n  pop\n    /* \"#utility.yul\":3359:3528   */\n  swap3\n  swap2\n  pop\n  pop\n  jump\t// out\n    /* \"#utility.yul\":3533:3828   */\ntag_29:\n    /* \"#utility.yul\":3609:3613   */\n  0x00\n    /* \"#utility.yul\":3755:3784   */\n  tag_77\n    /* \"#utility.yul\":3780:3783   */\n  dup4\n    /* \"#utility.yul\":3774:3778   */\n  dup4\n    /* \"#utility.yul\":3755:3784   */\n  tag_28\n  jump\t// in\ntag_77:\n    /* \"#utility.yul\":3747:3784   */\n  swap2\n  pop\n    /* \"#utility.yul\":3817:3820   */\n  dup3\n    /* \"#utility.yul\":3814:3815   */\n  0x02\n    /* \"#utility.yul\":3810:3821   */\n  mul\n    /* \"#utility.yul\":3804:3808   */\n  dup3\n    /* \"#utility.yul\":3801:3822   */\n  or\n    /* \"#utility.yul\":3793:3822   */\n  swap1\n  pop\n    /* \"#utility.yul\":3533:3828   */\n  swap3\n  swap2\n  pop\n  pop\n  jump\t// out\n    /* \"#utility.yul\":3833:5228   */\ntag_2:\n    /* \"#utility.yul\":3950:3987   */\n  tag_79\n    /* \"#utility.yul\":3983:3986   */\n  dup3\n    /* \"#utility.yul\":3950:3987   */\n  tag_10\n  jump\t// in\ntag_79:\n    /* \"#utility.yul\":4052:4070   */\n  0xffffffffffffffff\n    /* \"#utility.yul\":4044:4050   */\n  dup2\n    /* \"#utility.yul\":4041:4071   */\n  gt\n    /* \"#utility.yul\":4038:4094   */\n  iszero\n  tag_80\n  jumpi\n    /* \"#utility.yul\":4074:4092   */\n  tag_81\n  tag_11\n  jump\t// in\ntag_81:\n    /* \"#utility.yul\":4038:4094   */\ntag_80:\n    /* \"#utility.yul\":4118:4156   */\n  tag_82\n    /* \"#utility.yul\":4150:4154   */\n  dup3\n    /* \"#utility.yul\":4144:4155   */\n  sload\n    /* \"#utility.yul\":4118:4156   */\n  tag_13\n  jump\t// in\ntag_82:\n    /* \"#utility.yul\":4203:4270   */\n  tag_83\n    /* \"#utility.yul\":4263:4269   */\n  dup3\n    /* \"#utility.yul\":4255:4261   */\n  dup3\n    /* \"#utility.yul\":4249:4253   */\n  dup6\n    /* \"#utility.yul\":4203:4270   */\n  tag_26\n  jump\t// in\ntag_83:\n    /* \"#utility.yul\":4297:4298   */\n  0x00\n    /* \"#utility.yul\":4321:4325   */\n  0x20\n    /* \"#utility.yul\":4308:4325   */\n  swap1\n  pop\n    /* \"#utility.yul\":4353:4355   */\n  0x1f\n    /* \"#utility.yul\":4345:4351   */\n  dup4\n    /* \"#utility.yul\":4342:4356   */\n  gt\n    /* \"#utility.yul\":4370:4371   */\n  0x01\n    /* \"#utility.yul\":4365:4983   */\n  dup2\n  eq\n  tag_85\n  jumpi\n    /* \"#utility.yul\":5027:5028   */\n  0x00\n    /* \"#utility.yul\":5044:5050   */\n  dup5\n    /* \"#utility.yul\":5041:5118   */\n  iszero\n  tag_86\n  jumpi\n    /* \"#utility.yul\":5093:5102   */\n  dup3\n    /* \"#utility.yul\":5088:5091   */\n  dup8\n    /* \"#utility.yul\":5084:5103   */\n  add\n    /* \"#utility.yul\":5078:5104   */\n  mload\n    /* \"#utility.yul\":5069:5104   */\n  swap1\n  pop\n    /* \"#utility.yul\":5041:5118   */\ntag_86:\n    /* \"#utility.yul\":5144:5211   */\n  tag_87\n    /* \"#utility.yul\":5204:5210   */\n  dup6\n    /* \"#utility.yul\":5197:5202   */\n  dup3\n    /* \"#utility.yul\":5144:5211   */\n  tag_29\n  jump\t// in\ntag_87:\n    /* \"#utility.yul\":5138:5142   */\n  dup7\n    /* \"#utility.yul\":5131:5212   */\n  sstore\n    /* \"#utility.yul\":5000:5222   */\n  pop\n    /* \"#utility.yul\":4335:5222   */\n  jump(tag_84)\n    /* \"#utility.yul\":4365:4983   */\ntag_85:\n    /* \"#utility.yul\":4417:4421   */\n  0x1f\n    /* \"#utility.yul\":4413:4422   */\n  not\n    /* \"#utility.yul\":4405:4411   */\n  dup5\n    /* \"#utility.yul\":4401:4423   */\n  and\n    /* \"#utility.yul\":4451:4488   */\n  tag_88\n    /* \"#utility.yul\":4483:4487   */\n  dup7\n    /* \"#utility.yul\":4451:4488   */\n  tag_14\n  jump\t// in\ntag_88:\n    /* \"#utility.yul\":4510:4511   */\n  0x00\n    /* \"#utility.yul\":4524:4732   */\ntag_89:\n    /* \"#utility.yul\":4538:4545   */\n  dup3\n    /* \"#utility.yul\":4535:4536   */\n  dup2\n    /* \"#utility.yul\":4532:4546   */\n  lt\n    /* \"#utility.yul\":4524:4732   */\n  iszero\n  tag_91\n  jumpi\n    /* \"#utility.yul\":4617:4626   */\n  dup5\n    /* \"#utility.yul\":4612:4615   */\n  dup10\n    /* \"#utility.yul\":4608:4627   */\n  add\n    /* \"#utility.yul\":4602:4628   */\n  mload\n    /* \"#utility.yul\":4594:4600   */\n  dup3\n    /* \"#utility.yul\":4587:4629   */\n  sstore\n    /* \"#utility.yul\":4668:4669   */\n  0x01\n    /* \"#utility.yul\":4660:4666   */\n  dup3\n    /* \"#utility.yul\":4656:4670   */\n  add\n    /* \"#utility.yul\":4646:4670   */\n  swap2\n  pop\n    /* \"#utility.yul\":4715:4717   */\n  0x20\n    /* \"#utility.yul\":4704:4713   */\n  dup6\n    /* \"#utility.yul\":4700:4718   */\n  add\n    /* \"#utility.yul\":4687:4718   */\n  swap5\n  pop\n    /* \"#utility.yul\":4561:4565   */\n  0x20\n    /* \"#utility.yul\":4558:4559   */\n  dup2\n    /* \"#utility.yul\":4554:4566   */\n  add\n    /* \"#utility.yul\":4549:4566   */\n  swap1\n  pop\n    /* \"#utility.yul\":4524:4732   */\n  jump(tag_89)\ntag_91:\n    /* \"#utility.yul\":4760:4766   */\n  dup7\n    /* \"#utility.yul\":4751:4758   */\n  dup4\n    /* \"#utility.yul\":4748:4767   */\n  lt\n    /* \"#utility.yul\":4745:4924   */\n  iszero\n  tag_92\n  jumpi\n    /* \"#utility.yul\":4818:4827   */\n  dup5\n    /* \"#utility.yul\":4813:4816   */\n  dup10\n    /* \"#utility.yul\":4809:4828   */\n  add\n    /* \"#utility.yul\":4803:4829   */\n  mload\n    /* \"#utility.yul\":4861:4909   */\n  tag_93\n    /* \"#utility.yul\":4903:4907   */\n  0x1f\n    /* \"#utility.yul\":4895:4901   */\n  dup10\n    /* \"#utility.yul\":4891:4908   */\n  and\n    /* \"#utility.yul\":4880:4889   */\n  dup3\n    /* \"#utility.yul\":4861:4909   */\n  tag_28\n  jump\t// in\ntag_93:\n    /* \"#utility.yul\":4853:4859   */\n  dup4\n    /* \"#utility.yul\":4846:4910   */\n  sstore\n    /* \"#utility.yul\":4768:4924   */\n  pop\n    /* \"#utility.yul\":4745:4924   */\ntag_92:\n    /* \"#utility.yul\":4970:4971   */\n  0x01\n    /* \"#utility.yul\":4966:4967   */\n  0x02\n    /* \"#utility.yul\":4958:4964   */\n  dup9\n    /* \"#utility.yul\":4954:4968   */\n  mul\n    /* \"#utility.yul\":4950:4972   */\n  add\n    /* \"#utility.yul\":4944:4948   */\n  dup9\n    /* \"#utility.yul\":4937:4973   */\n  sstore\n    /* \"#utility.yul\":4372:4983   */\n  pop\n  pop\n  pop\n    /* \"#utility.yul\":4335:5222   */\ntag_84:\n  pop\n    /* \"#utility.yul\":3925:5228   */\n  pop\n  pop\n  pop\n    /* \"#utility.yul\":3833:5228   */\n  pop\n  pop\n  jump\t// out\n    /* \"#utility.yul\":5234:5374   */\ntag_30:\n    /* \"#utility.yul\":5282:5286   */\n  0x00\n    /* \"#utility.yul\":5305:5308   */\n  dup2\n    /* \"#utility.yul\":5297:5308   */\n  swap1\n  pop\n    /* \"#utility.yul\":5328:5331   */\n  dup2\n    /* \"#utility.yul\":5325:5326   */\n  0x00\n    /* \"#utility.yul\":5318:5332   */\n  mstore\n    /* \"#utility.yul\":5362:5366   */\n  0x20\n    /* \"#utility.yul\":5359:5360   */\n  0x00\n    /* \"#utility.yul\":5349:5367   */\n  keccak256\n    /* \"#utility.yul\":5341:5367   */\n  swap1\n  pop\n    /* \"#utility.yul\":5234:5374   */\n  swap2\n  swap1\n  pop\n  jump\t// out\n    /* \"#utility.yul\":5380:5921   */\ntag_31:\n    /* \"#utility.yul\":5480:5482   */\n  0x1f\n    /* \"#utility.yul\":5475:5478   */\n  dup3\n    /* \"#utility.yul\":5472:5483   */\n  gt\n    /* \"#utility.yul\":5469:5914   */\n  iszero\n  tag_96\n  jumpi\n    /* \"#utility.yul\":5514:5551   */\n  tag_97\n    /* \"#utility.yul\":5545:5550   */\n  dup2\n    /* \"#utility.yul\":5514:5551   */\n  tag_30\n  jump\t// in\ntag_97:\n    /* \"#utility.yul\":5597:5626   */\n  tag_98\n    /* \"#utility.yul\":5615:5625   */\n  dup5\n    /* \"#utility.yul\":5597:5626   */\n  tag_15\n  jump\t// in\ntag_98:\n    /* \"#utility.yul\":5587:5595   */\n  dup2\n    /* \"#utility.yul\":5583:5627   */\n  add\n    /* \"#utility.yul\":5780:5782   */\n  0x20\n    /* \"#utility.yul\":5768:5778   */\n  dup6\n    /* \"#utility.yul\":5765:5783   */\n  lt\n    /* \"#utility.yul\":5762:5811   */\n  iszero\n  tag_99\n  jumpi\n    /* \"#utility.yul\":5801:5809   */\n  dup2\n    /* \"#utility.yul\":5786:5809   */\n  swap1\n  pop\n    /* \"#utility.yul\":5762:5811   */\ntag_99:\n    /* \"#utility.yul\":5824:5904   */\n  tag_100\n    /* \"#utility.yul\":5880:5902   */\n  tag_101\n    /* \"#utility.yul\":5898:5901   */\n  dup6\n    /* \"#utility.yul\":5880:5902   */\n  tag_15\n  jump\t// in\ntag_101:\n    /* \"#utility.yul\":5870:5878   */\n  dup4\n    /* \"#utility.yul\":5866:5903   */\n  add\n    /* \"#utility.yul\":5853:5864   */\n  dup3\n    /* \"#utility.yul\":5824:5904   */\n  tag_25\n  jump\t// in\ntag_100:\n    /* \"#utility.yul\":5484:5914   */\n  pop\n  pop\n    /* \"#utility.yul\":5469:5914   */\ntag_96:\n    /* \"#utility.yul\":5380:5921   */\n  pop\n  pop\n  pop\n  jump\t// out\n    /* \"#utility.yul\":5927:7319   */\ntag_4:\n    /* \"#utility.yul\":6043:6080   */\n  tag_103\n    /* \"#utility.yul\":6076:6079   */\n  dup3\n    /* \"#utility.yul\":6043:6080   */\n  tag_10\n  jump\t// in\ntag_103:\n    /* \"#utility.yul\":6145:6163   */\n  0xffffffffffffffff\n    /* \"#utility.yul\":6137:6143   */\n  dup2\n    /* \"#utility.yul\":6134:6164   */\n  gt\n    /* \"#utility.yul\":6131:6187   */\n  iszero\n  tag_104\n  jumpi\n    /* \"#utility.yul\":6167:6185   */\n  tag_105\n  tag_11\n  jump\t// in\ntag_105:\n    /* \"#utility.yul\":6131:6187   */\ntag_104:\n    /* \"#utility.yul\":6211:6249   */\n  tag_106\n    /* \"#utility.yul\":6243:6247   */\n  dup3\n    /* \"#utility.yul\":6237:6248   */\n  sload\n    /* \"#utility.yul\":6211:6249   */\n  tag_13\n  jump\t// in\ntag_106:\n    /* \"#utility.yul\":6296:6362   */\n  tag_107\n    /* \"#utility.yul\":6355:6361   */\n  dup3\n    /* \"#utility.yul\":6347:6353   */\n  dup3\n    /* \"#utility.yul\":6341:6345   */\n  dup6\n    /* \"#utility.yul\":6296:6362   */\n  tag_31\n  jump\t// in\ntag_107:\n    /* \"#utility.yul\":6389:6390   */\n  0x00\n    /* \"#utility.yul\":6413:6417   */\n  0x20\n    /* \"#utility.yul\":6400:6417   */\n  swap1\n  pop\n    /* \"#utility.yul\":6445:6447   */\n  0x1f\n    /* \"#utility.yul\":6437:6443   */\n  dup4\n    /* \"#utility.yul\":6434:6448   */\n  gt\n    /* \"#utility.yul\":6462:6463   */\n  0x01\n    /* \"#utility.yul\":6457:7074   */\n  dup2\n  eq\n  tag_109\n  jumpi\n    /* \"#utility.yul\":7118:7119   */\n  0x00\n    /* \"#utility.yul\":7135:7141   */\n  dup5\n    /* \"#utility.yul\":7132:7209   */\n  iszero\n  tag_110\n  jumpi\n    /* \"#utility.yul\":7184:7193   */\n  dup3\n    /* \"#utility.yul\":7179:7182   */\n  dup8\n    /* \"#utility.yul\":7175:7194   */\n  add\n    /* \"#utility.yul\":7169:7195   */\n  mload\n    /* \"#utility.yul\":7160:7195   */\n  swap1\n  pop\n    /* \"#utility.yul\":7132:7209   */\ntag_110:\n    /* \"#utility.yul\":7235:7302   */\n  tag_111\n    /* \"#utility.yul\":7295:7301   */\n  dup6\n    /* \"#utility.yul\":7288:7293   */\n  dup3\n    /* \"#utility.yul\":7235:7302   */\n  tag_29\n  jump\t// in\ntag_111:\n    /* \"#utility.yul\":7229:7233   */\n  dup7\n    /* \"#utility.yul\":7222:7303   */\n  sstore\n    /* \"#utility.yul\":7091:7313   */\n  pop\n    /* \"#utility.yul\":6427:7313   */\n  jump(tag_108)\n    /* \"#utility.yul\":6457:7074   */\ntag_109:\n    /* \"#utility.yul\":6509:6513   */\n  0x1f\n    /* \"#utility.yul\":6505:6514   */\n  not\n    /* \"#utility.yul\":6497:6503   */\n  dup5\n    /* \"#utility.yul\":6493:6515   */\n  and\n    /* \"#utility.yul\":6543:6579   */\n  tag_112\n    /* \"#utility.yul\":6574:6578   */\n  dup7\n    /* \"#utility.yul\":6543:6579   */\n  tag_30\n  jump\t// in\ntag_112:\n    /* \"#utility.yul\":6601:6602   */\n  0x00\n    /* \"#utility.yul\":6615:6823   */\ntag_113:\n    /* \"#utility.yul\":6629:6636   */\n  dup3\n    /* \"#utility.yul\":6626:6627   */\n  dup2\n    /* \"#utility.yul\":6623:6637   */\n  lt\n    /* \"#utility.yul\":6615:6823   */\n  iszero\n  tag_115\n  jumpi\n    /* \"#utility.yul\":6708:6717   */\n  dup5\n    /* \"#utility.yul\":6703:6706   */\n  dup10\n    /* \"#utility.yul\":6699:6718   */\n  add\n    /* \"#utility.yul\":6693:6719   */\n  mload\n    /* \"#utility.yul\":6685:6691   */\n  dup3\n    /* \"#utility.yul\":6678:6720   */\n  sstore\n    /* \"#utility.yul\":6759:6760   */\n  0x01\n    /* \"#utility.yul\":6751:6757   */\n  dup3\n    /* \"#utility.yul\":6747:6761   */\n  add\n    /* \"#utility.yul\":6737:6761   */\n  swap2\n  pop\n    /* \"#utility.yul\":6806:6808   */\n  0x20\n    /* \"#utility.yul\":6795:6804   */\n  dup6\n    /* \"#utility.yul\":6791:6809   */\n  add\n    /* \"#utility.yul\":6778:6809   */\n  swap5\n  pop\n    /* \"#utility.yul\":6652:6656   */\n  0x20\n    /* \"#utility.yul\":6649:6650   */\n  dup2\n    /* \"#utility.yul\":6645:6657   */\n  add\n    /* \"#utility.yul\":6640:6657   */\n  swap1\n  pop\n    /* \"#utility.yul\":6615:6823   */\n  jump(tag_113)\ntag_115:\n    /* \"#utility.yul\":6851:6857   */\n  dup7\n    /* \"#utility.yul\":6842:6849   */\n  dup4\n    /* \"#utility.yul\":6839:6858   */\n  lt\n    /* \"#utility.yul\":6836:7015   */\n  iszero\n  tag_116\n  jumpi\n    /* \"#utility.yul\":6909:6918   */\n  dup5\n    /* \"#utility.yul\":6904:6907   */\n  dup10\n    /* \"#utility.yul\":6900:6919   */\n  add\n    /* \"#utility.yul\":6894:6920   */\n  mload\n    /* \"#utility.yul\":6952:7000   */\n  tag_117\n    /* \"#utility.yul\":6994:6998   */\n  0x1f\n    /* \"#utility.yul\":6986:6992   */\n  dup10\n    /* \"#utility.yul\":6982:6999   */\n  and\n    /* \"#utility.yul\":6971:6980   */\n  dup3\n    /* \"#utility.yul\":6952:7000   */\n  tag_28\n  jump\t// in\ntag_117:\n    /* \"#utility.yul\":6944:6950   */\n  dup4\n    /* \"#utility.yul\":6937:7001   */\n  sstore\n    /* \"#utility.yul\":6859:7015   */\n  pop\n    /* \"#utility.yul\":6836:7015   */\ntag_116:\n    /* \"#utility.yul\":7061:7062   */\n  0x01\n    /* \"#utility.yul\":7057:7058   */\n  0x02\n    /* \"#utility.yul\":7049:7055   */\n  dup9\n    /* \"#utility.yul\":7045:7059   */\n  mul\n    /* \"#utility.yul\":7041:7063   */\n  add\n    /* \"#utility.yul\":7035:7039   */\n  dup9\n    /* \"#utility.yul\":7028:7064   */\n  sstore\n    /* \"#utility.yul\":6464:7074   */\n  pop\n  pop\n  pop\n    /* \"#utility.yul\":6427:7313   */\ntag_108:\n  pop\n    /* \"#utility.yul\":6018:7319   */\n  pop\n  pop\n  pop\n    /* \"#utility.yul\":5927:7319   */\n  pop\n  pop\n  jump\t// out\n    /* \"contracts/belajar/tes.sol\":58:2489  contract ContohStorage {... */\ntag_9:\n  dataSize(sub_0)\n  dup1\n  dataOffset(sub_0)\n  0x00\n  codecopy\n  0x00\n  return\nstop\n\nsub_0: assembly {\n        /* \"contracts/belajar/tes.sol\":58:2489  contract ContohStorage {... */\n      mstore(0x40, 0x80)\n      jumpi(tag_1, lt(calldatasize, 0x04))\n      shr(0xe0, calldataload(0x00))\n      dup1\n      0x73a38cb3\n      gt\n      tag_17\n      jumpi\n      dup1\n      0xc4a759d2\n      gt\n      tag_18\n      jumpi\n      dup1\n      0xc4a759d2\n      eq\n      tag_13\n      jumpi\n      dup1\n      0xd0de3f63\n      eq\n      tag_14\n      jumpi\n      dup1\n      0xd78fb117\n      eq\n      tag_15\n      jumpi\n      dup1\n      0xf604bf57\n      eq\n      tag_16\n      jumpi\n      jump(tag_1)\n    tag_18:\n      dup1\n      0x73a38cb3\n      eq\n      tag_9\n      jumpi\n      dup1\n      0x9a9bdca7\n      eq\n      tag_10\n      jumpi\n      dup1\n      0xa50bbe1b\n      eq\n      tag_11\n      jumpi\n      dup1\n      0xb503ba35\n      eq\n      tag_12\n      jumpi\n      jump(tag_1)\n    tag_17:\n      dup1\n      0x3a32b549\n      gt\n      tag_19\n      jumpi\n      dup1\n      0x3a32b549\n      eq\n      tag_5\n      jumpi\n      dup1\n      0x46a3967b\n      eq\n      tag_6\n      jumpi\n      dup1\n      0x64f0dbab\n      eq\n      tag_7\n      jumpi\n      dup1\n      0x6ebcd2c2\n      eq\n      tag_8\n      jumpi\n      jump(tag_1)\n    tag_19:\n      dup1\n      0x055c4299\n      eq\n      tag_2\n      jumpi\n      dup1\n      0x200d2ed2\n      eq\n      tag_3\n      jumpi\n      dup1\n      0x29247dc1\n      eq\n      tag_4\n      jumpi\n    tag_1:\n      revert(0x00, 0x00)\n        /* \"contracts/belajar/tes.sol\":2388:2487  function tambahArray(uint _angka) public {... */\n    tag_2:\n      callvalue\n      dup1\n      iszero\n      tag_20\n      jumpi\n      revert(0x00, 0x00)\n    tag_20:\n      pop\n      tag_21\n      0x04\n      dup1\n      calldatasize\n      sub\n      dup2\n      add\n      swap1\n      tag_22\n      swap2\n      swap1\n      tag_23\n      jump\t// in\n    tag_22:\n      tag_24\n      jump\t// in\n    tag_21:\n      stop\n        /* \"contracts/belajar/tes.sol\":629:654  bool public status = true */\n    tag_3:\n      callvalue\n      dup1\n      iszero\n      tag_25\n      jumpi\n      revert(0x00, 0x00)\n    tag_25:\n      pop\n      tag_26\n      tag_27\n      jump\t// in\n    tag_26:\n      mload(0x40)\n      tag_28\n      swap2\n      swap1\n      tag_29\n      jump\t// in\n    tag_28:\n      mload(0x40)\n      dup1\n      swap2\n      sub\n      swap1\n      return\n        /* \"contracts/belajar/tes.sol\":2207:2343  function contohStringCalldata(... */\n    tag_4:\n      callvalue\n      dup1\n      iszero\n      tag_30\n      jumpi\n      revert(0x00, 0x00)\n    tag_30:\n      pop\n      tag_31\n      0x04\n      dup1\n      calldatasize\n      sub\n      dup2\n      add\n      swap1\n      tag_32\n      swap2\n      swap1\n      tag_33\n      jump\t// in\n    tag_32:\n      tag_34\n      jump\t// in\n    tag_31:\n      mload(0x40)\n      tag_35\n      swap3\n      swap2\n      swap1\n      tag_36\n      jump\t// in\n    tag_35:\n      mload(0x40)\n      dup1\n      swap2\n      sub\n      swap1\n      return\n        /* \"contracts/belajar/tes.sol\":1659:1744  function externalFunction() external view returns (uint) {... */\n    tag_5:\n      callvalue\n      dup1\n      iszero\n      tag_37\n      jumpi\n      revert(0x00, 0x00)\n    tag_37:\n      pop\n      tag_38\n      tag_39\n      jump\t// in\n    tag_38:\n      mload(0x40)\n      tag_40\n      swap2\n      swap1\n      tag_41\n      jump\t// in\n    tag_40:\n      mload(0x40)\n      dup1\n      swap2\n      sub\n      swap1\n      return\n        /* \"contracts/belajar/tes.sol\":1195:1296  function lihatNama() public view returns (string memory) {... */\n    tag_6:\n      callvalue\n      dup1\n      iszero\n      tag_42\n      jumpi\n      revert(0x00, 0x00)\n    tag_42:\n      pop\n      tag_43\n      tag_44\n      jump\t// in\n    tag_43:\n      mload(0x40)\n      tag_45\n      swap2\n      swap1\n      tag_46\n      jump\t// in\n    tag_45:\n      mload(0x40)\n      dup1\n      swap2\n      sub\n      swap1\n      return\n        /* \"contracts/belajar/tes.sol\":325:357  bytes public dataBytes = \"Hello\" */\n    tag_7:\n      callvalue\n      dup1\n      iszero\n      tag_47\n      jumpi\n      revert(0x00, 0x00)\n    tag_47:\n      pop\n      tag_48\n      tag_49\n      jump\t// in\n    tag_48:\n      mload(0x40)\n      tag_50\n      swap2\n      swap1\n      tag_51\n      jump\t// in\n    tag_50:\n      mload(0x40)\n      dup1\n      swap2\n      sub\n      swap1\n      return\n        /* \"contracts/belajar/tes.sol\":679:701  address public pemilik */\n    tag_8:\n      callvalue\n      dup1\n      iszero\n      tag_52\n      jumpi\n      revert(0x00, 0x00)\n    tag_52:\n      pop\n      tag_53\n      tag_54\n      jump\t// in\n    tag_53:\n      mload(0x40)\n      tag_55\n      swap2\n      swap1\n      tag_56\n      jump\t// in\n    tag_55:\n      mload(0x40)\n      dup1\n      swap2\n      sub\n      swap1\n      return\n        /* \"contracts/belajar/tes.sol\":278:299  uint public umur = 20 */\n    tag_9:\n      callvalue\n      dup1\n      iszero\n      tag_57\n      jumpi\n      revert(0x00, 0x00)\n    tag_57:\n      pop\n      tag_58\n      tag_59\n      jump\t// in\n    tag_58:\n      mload(0x40)\n      tag_60\n      swap2\n      swap1\n      tag_41\n      jump\t// in\n    tag_60:\n      mload(0x40)\n      dup1\n      swap2\n      sub\n      swap1\n      return\n        /* \"contracts/belajar/tes.sol\":383:409  uint[] public dynamicArray */\n    tag_10:\n      callvalue\n      dup1\n      iszero\n      tag_61\n      jumpi\n      revert(0x00, 0x00)\n    tag_61:\n      pop\n      tag_62\n      0x04\n      dup1\n      calldatasize\n      sub\n      dup2\n      add\n      swap1\n      tag_63\n      swap2\n      swap1\n      tag_23\n      jump\t// in\n    tag_63:\n      tag_64\n      jump\t// in\n    tag_62:\n      mload(0x40)\n      tag_65\n      swap2\n      swap1\n      tag_41\n      jump\t// in\n    tag_65:\n      mload(0x40)\n      dup1\n      swap2\n      sub\n      swap1\n      return\n        /* \"contracts/belajar/tes.sol\":214:252  string public nama = \"Syaid Alfarishi\" */\n    tag_11:\n      callvalue\n      dup1\n      iszero\n      tag_66\n      jumpi\n      revert(0x00, 0x00)\n    tag_66:\n      pop\n      tag_67\n      tag_68\n      jump\t// in\n    tag_67:\n      mload(0x40)\n      tag_69\n      swap2\n      swap1\n      tag_46\n      jump\t// in\n    tag_69:\n      mload(0x40)\n      dup1\n      swap2\n      sub\n      swap1\n      return\n        /* \"contracts/belajar/tes.sol\":981:1132  function ubahNama(string memory _namaBaru) public {... */\n    tag_12:\n      callvalue\n      dup1\n      iszero\n      tag_70\n      jumpi\n      revert(0x00, 0x00)\n    tag_70:\n      pop\n      tag_71\n      0x04\n      dup1\n      calldatasize\n      sub\n      dup2\n      add\n      swap1\n      tag_72\n      swap2\n      swap1\n      tag_73\n      jump\t// in\n    tag_72:\n      tag_74\n      jump\t// in\n    tag_71:\n      stop\n        /* \"contracts/belajar/tes.sol\":1510:1597  function terimaETH() public payable {... */\n    tag_13:\n      tag_75\n      tag_76\n      jump\t// in\n    tag_75:\n      stop\n        /* \"contracts/belajar/tes.sol\":505:550  Mahasiswa public mhs = Mahasiswa(\"Syaid\", 20) */\n    tag_14:\n      callvalue\n      dup1\n      iszero\n      tag_77\n      jumpi\n      revert(0x00, 0x00)\n    tag_77:\n      pop\n      tag_78\n      tag_79\n      jump\t// in\n    tag_78:\n      mload(0x40)\n      tag_80\n      swap3\n      swap2\n      swap1\n      tag_81\n      jump\t// in\n    tag_80:\n      mload(0x40)\n      dup1\n      swap2\n      sub\n      swap1\n      return\n        /* \"contracts/belajar/tes.sol\":1945:2158  function contohArray(uint[] memory angka) public pure returns (uint) {... */\n    tag_15:\n      callvalue\n      dup1\n      iszero\n      tag_82\n      jumpi\n      revert(0x00, 0x00)\n    tag_82:\n      pop\n      tag_83\n      0x04\n      dup1\n      calldatasize\n      sub\n      dup2\n      add\n      swap1\n      tag_84\n      swap2\n      swap1\n      tag_85\n      jump\t// in\n    tag_84:\n      tag_86\n      jump\t// in\n    tag_83:\n      mload(0x40)\n      tag_87\n      swap2\n      swap1\n      tag_41\n      jump\t// in\n    tag_87:\n      mload(0x40)\n      dup1\n      swap2\n      sub\n      swap1\n      return\n        /* \"contracts/belajar/tes.sol\":1346:1470  function tambah(uint a, uint b) public pure returns (uint) {... */\n    tag_16:\n      callvalue\n      dup1\n      iszero\n      tag_88\n      jumpi\n      revert(0x00, 0x00)\n    tag_88:\n      pop\n      tag_89\n      0x04\n      dup1\n      calldatasize\n      sub\n      dup2\n      add\n      swap1\n      tag_90\n      swap2\n      swap1\n      tag_91\n      jump\t// in\n    tag_90:\n      tag_92\n      jump\t// in\n    tag_89:\n      mload(0x40)\n      tag_93\n      swap2\n      swap1\n      tag_41\n      jump\t// in\n    tag_93:\n      mload(0x40)\n      dup1\n      swap2\n      sub\n      swap1\n      return\n        /* \"contracts/belajar/tes.sol\":2388:2487  function tambahArray(uint _angka) public {... */\n    tag_24:\n        /* \"contracts/belajar/tes.sol\":2439:2451  dynamicArray */\n      0x03\n        /* \"contracts/belajar/tes.sol\":2457:2463  _angka */\n      dup2\n        /* \"contracts/belajar/tes.sol\":2439:2464  dynamicArray.push(_angka) */\n      swap1\n      dup1\n      0x01\n      dup2\n      sload\n      add\n      dup1\n      dup3\n      sstore\n      dup1\n      swap2\n      pop\n      pop\n      0x01\n      swap1\n      sub\n      swap1\n      0x00\n      mstore\n      keccak256(0x00, 0x20)\n      add\n      0x00\n      swap1\n      swap2\n      swap1\n      swap2\n      swap1\n      swap2\n      pop\n      sstore\n        /* \"contracts/belajar/tes.sol\":2388:2487  function tambahArray(uint _angka) public {... */\n      pop\n      jump\t// out\n        /* \"contracts/belajar/tes.sol\":629:654  bool public status = true */\n    tag_27:\n      0x06\n      0x00\n      swap1\n      sload\n      swap1\n      0x0100\n      exp\n      swap1\n      div\n      0xff\n      and\n      dup2\n      jump\t// out\n        /* \"contracts/belajar/tes.sol\":2207:2343  function contohStringCalldata(... */\n    tag_34:\n        /* \"contracts/belajar/tes.sol\":2297:2312  string calldata */\n      calldatasize\n      0x00\n        /* \"contracts/belajar/tes.sol\":2331:2336  input */\n      dup4\n      dup4\n        /* \"contracts/belajar/tes.sol\":2324:2336  return input */\n      swap2\n      pop\n      swap2\n      pop\n        /* \"contracts/belajar/tes.sol\":2207:2343  function contohStringCalldata(... */\n      swap3\n      pop\n      swap3\n      swap1\n      pop\n      jump\t// out\n        /* \"contracts/belajar/tes.sol\":1659:1744  function externalFunction() external view returns (uint) {... */\n    tag_39:\n        /* \"contracts/belajar/tes.sol\":1710:1714  uint */\n      0x00\n        /* \"contracts/belajar/tes.sol\":1733:1737  umur */\n      sload(0x01)\n        /* \"contracts/belajar/tes.sol\":1726:1737  return umur */\n      swap1\n      pop\n        /* \"contracts/belajar/tes.sol\":1659:1744  function externalFunction() external view returns (uint) {... */\n      swap1\n      jump\t// out\n        /* \"contracts/belajar/tes.sol\":1195:1296  function lihatNama() public view returns (string memory) {... */\n    tag_44:\n        /* \"contracts/belajar/tes.sol\":1237:1250  string memory */\n      0x60\n        /* \"contracts/belajar/tes.sol\":1269:1273  nama */\n      0x00\n        /* \"contracts/belajar/tes.sol\":1262:1273  return nama */\n      dup1\n      sload\n      tag_99\n      swap1\n      tag_100\n      jump\t// in\n    tag_99:\n      dup1\n      0x1f\n      add\n      0x20\n      dup1\n      swap2\n      div\n      mul\n      0x20\n      add\n      mload(0x40)\n      swap1\n      dup2\n      add\n      0x40\n      mstore\n      dup1\n      swap3\n      swap2\n      swap1\n      dup2\n      dup2\n      mstore\n      0x20\n      add\n      dup3\n      dup1\n      sload\n      tag_101\n      swap1\n      tag_100\n      jump\t// in\n    tag_101:\n      dup1\n      iszero\n      tag_102\n      jumpi\n      dup1\n      0x1f\n      lt\n      tag_103\n      jumpi\n      0x0100\n      dup1\n      dup4\n      sload\n      div\n      mul\n      dup4\n      mstore\n      swap2\n      0x20\n      add\n      swap2\n      jump(tag_102)\n    tag_103:\n      dup3\n      add\n      swap2\n      swap1\n      0x00\n      mstore\n      keccak256(0x00, 0x20)\n      swap1\n    tag_104:\n      dup2\n      sload\n      dup2\n      mstore\n      swap1\n      0x01\n      add\n      swap1\n      0x20\n      add\n      dup1\n      dup4\n      gt\n      tag_104\n      jumpi\n      dup3\n      swap1\n      sub\n      0x1f\n      and\n      dup3\n      add\n      swap2\n    tag_102:\n      pop\n      pop\n      pop\n      pop\n      pop\n      swap1\n      pop\n        /* \"contracts/belajar/tes.sol\":1195:1296  function lihatNama() public view returns (string memory) {... */\n      swap1\n      jump\t// out\n        /* \"contracts/belajar/tes.sol\":325:357  bytes public dataBytes = \"Hello\" */\n    tag_49:\n      0x02\n      dup1\n      sload\n      tag_105\n      swap1\n      tag_100\n      jump\t// in\n    tag_105:\n      dup1\n      0x1f\n      add\n      0x20\n      dup1\n      swap2\n      div\n      mul\n      0x20\n      add\n      mload(0x40)\n      swap1\n      dup2\n      add\n      0x40\n      mstore\n      dup1\n      swap3\n      swap2\n      swap1\n      dup2\n      dup2\n      mstore\n      0x20\n      add\n      dup3\n      dup1\n      sload\n      tag_106\n      swap1\n      tag_100\n      jump\t// in\n    tag_106:\n      dup1\n      iszero\n      tag_107\n      jumpi\n      dup1\n      0x1f\n      lt\n      tag_108\n      jumpi\n      0x0100\n      dup1\n      dup4\n      sload\n      div\n      mul\n      dup4\n      mstore\n      swap2\n      0x20\n      add\n      swap2\n      jump(tag_107)\n    tag_108:\n      dup3\n      add\n      swap2\n      swap1\n      0x00\n      mstore\n      keccak256(0x00, 0x20)\n      swap1\n    tag_109:\n      dup2\n      sload\n      dup2\n      mstore\n      swap1\n      0x01\n      add\n      swap1\n      0x20\n      add\n      dup1\n      dup4\n      gt\n      tag_109\n      jumpi\n      dup3\n      swap1\n      sub\n      0x1f\n      and\n      dup3\n      add\n      swap2\n    tag_107:\n      pop\n      pop\n      pop\n      pop\n      pop\n      dup2\n      jump\t// out\n        /* \"contracts/belajar/tes.sol\":679:701  address public pemilik */\n    tag_54:\n      0x06\n      0x01\n      swap1\n      sload\n      swap1\n      0x0100\n      exp\n      swap1\n      div\n      0xffffffffffffffffffffffffffffffffffffffff\n      and\n      dup2\n      jump\t// out\n        /* \"contracts/belajar/tes.sol\":278:299  uint public umur = 20 */\n    tag_59:\n      sload(0x01)\n      dup2\n      jump\t// out\n        /* \"contracts/belajar/tes.sol\":383:409  uint[] public dynamicArray */\n    tag_64:\n      0x03\n      dup2\n      dup2\n      sload\n      dup2\n      lt\n      tag_110\n      jumpi\n      0x00\n      dup1\n      revert\n    tag_110:\n      swap1\n      0x00\n      mstore\n      keccak256(0x00, 0x20)\n      add\n      0x00\n      swap2\n      pop\n      swap1\n      pop\n      sload\n      dup2\n      jump\t// out\n        /* \"contracts/belajar/tes.sol\":214:252  string public nama = \"Syaid Alfarishi\" */\n    tag_68:\n      0x00\n      dup1\n      sload\n      tag_112\n      swap1\n      tag_100\n      jump\t// in\n    tag_112:\n      dup1\n      0x1f\n      add\n      0x20\n      dup1\n      swap2\n      div\n      mul\n      0x20\n      add\n      mload(0x40)\n      swap1\n      dup2\n      add\n      0x40\n      mstore\n      dup1\n      swap3\n      swap2\n      swap1\n      dup2\n      dup2\n      mstore\n      0x20\n      add\n      dup3\n      dup1\n      sload\n      tag_113\n      swap1\n      tag_100\n      jump\t// in\n    tag_113:\n      dup1\n      iszero\n      tag_114\n      jumpi\n      dup1\n      0x1f\n      lt\n      tag_115\n      jumpi\n      0x0100\n      dup1\n      dup4\n      sload\n      div\n      mul\n      dup4\n      mstore\n      swap2\n      0x20\n      add\n      swap2\n      jump(tag_114)\n    tag_115:\n      dup3\n      add\n      swap2\n      swap1\n      0x00\n      mstore\n      keccak256(0x00, 0x20)\n      swap1\n    tag_116:\n      dup2\n      sload\n      dup2\n      mstore\n      swap1\n      0x01\n      add\n      swap1\n      0x20\n      add\n      dup1\n      dup4\n      gt\n      tag_116\n      jumpi\n      dup3\n      swap1\n      sub\n      0x1f\n      and\n      dup3\n      add\n      swap2\n    tag_114:\n      pop\n      pop\n      pop\n      pop\n      pop\n      dup2\n      jump\t// out\n        /* \"contracts/belajar/tes.sol\":981:1132  function ubahNama(string memory _namaBaru) public {... */\n    tag_74:\n        /* \"contracts/belajar/tes.sol\":1046:1076  LogUpdateNama(nama, _namaBaru) */\n      0x4f32db05c99c0d38e62671412e40c827769bb9db84ab494d5935422b9d89c194\n        /* \"contracts/belajar/tes.sol\":1060:1064  nama */\n      0x00\n        /* \"contracts/belajar/tes.sol\":1066:1075  _namaBaru */\n      dup3\n        /* \"contracts/belajar/tes.sol\":1046:1076  LogUpdateNama(nama, _namaBaru) */\n      mload(0x40)\n      tag_118\n      swap3\n      swap2\n      swap1\n      tag_119\n      jump\t// in\n    tag_118:\n      mload(0x40)\n      dup1\n      swap2\n      sub\n      swap1\n      log1\n        /* \"contracts/belajar/tes.sol\":1100:1109  _namaBaru */\n      dup1\n        /* \"contracts/belajar/tes.sol\":1093:1097  nama */\n      0x00\n        /* \"contracts/belajar/tes.sol\":1093:1109  nama = _namaBaru */\n      swap1\n      dup2\n      tag_120\n      swap2\n      swap1\n      tag_121\n      jump\t// in\n    tag_120:\n      pop\n        /* \"contracts/belajar/tes.sol\":981:1132  function ubahNama(string memory _namaBaru) public {... */\n      pop\n      jump\t// out\n        /* \"contracts/belajar/tes.sol\":1510:1597  function terimaETH() public payable {... */\n    tag_76:\n      jump\t// out\n        /* \"contracts/belajar/tes.sol\":505:550  Mahasiswa public mhs = Mahasiswa(\"Syaid\", 20) */\n    tag_79:\n      0x04\n      dup1\n      0x00\n      add\n      dup1\n      sload\n      tag_123\n      swap1\n      tag_100\n      jump\t// in\n    tag_123:\n      dup1\n      0x1f\n      add\n      0x20\n      dup1\n      swap2\n      div\n      mul\n      0x20\n      add\n      mload(0x40)\n      swap1\n      dup2\n      add\n      0x40\n      mstore\n      dup1\n      swap3\n      swap2\n      swap1\n      dup2\n      dup2\n      mstore\n      0x20\n      add\n      dup3\n      dup1\n      sload\n      tag_124\n      swap1\n      tag_100\n      jump\t// in\n    tag_124:\n      dup1\n      iszero\n      tag_125\n      jumpi\n      dup1\n      0x1f\n      lt\n      tag_126\n      jumpi\n      0x0100\n      dup1\n      dup4\n      sload\n      div\n      mul\n      dup4\n      mstore\n      swap2\n      0x20\n      add\n      swap2\n      jump(tag_125)\n    tag_126:\n      dup3\n      add\n      swap2\n      swap1\n      0x00\n      mstore\n      keccak256(0x00, 0x20)\n      swap1\n    tag_127:\n      dup2\n      sload\n      dup2\n      mstore\n      swap1\n      0x01\n      add\n      swap1\n      0x20\n      add\n      dup1\n      dup4\n      gt\n      tag_127\n      jumpi\n      dup3\n      swap1\n      sub\n      0x1f\n      and\n      dup3\n      add\n      swap2\n    tag_125:\n      pop\n      pop\n      pop\n      pop\n      pop\n      swap1\n      dup1\n      0x01\n      add\n      sload\n      swap1\n      pop\n      dup3\n      jump\t// out\n        /* \"contracts/belajar/tes.sol\":1945:2158  function contohArray(uint[] memory angka) public pure returns (uint) {... */\n    tag_86:\n        /* \"contracts/belajar/tes.sol\":2008:2012  uint */\n      0x00\n        /* \"contracts/belajar/tes.sol\":2024:2034  uint total */\n      0x00\n        /* \"contracts/belajar/tes.sol\":2037:2038  0 */\n      0x00\n        /* \"contracts/belajar/tes.sol\":2024:2038  uint total = 0 */\n      swap1\n      pop\n        /* \"contracts/belajar/tes.sol\":2053:2059  uint i */\n      0x00\n        /* \"contracts/belajar/tes.sol\":2062:2063  0 */\n      0x00\n        /* \"contracts/belajar/tes.sol\":2053:2063  uint i = 0 */\n      swap1\n      pop\n        /* \"contracts/belajar/tes.sol\":2048:2130  for (uint i = 0; i < angka.length; i++) {... */\n    tag_129:\n        /* \"contracts/belajar/tes.sol\":2069:2074  angka */\n      dup4\n        /* \"contracts/belajar/tes.sol\":2069:2081  angka.length */\n      mload\n        /* \"contracts/belajar/tes.sol\":2065:2066  i */\n      dup2\n        /* \"contracts/belajar/tes.sol\":2065:2081  i < angka.length */\n      lt\n        /* \"contracts/belajar/tes.sol\":2048:2130  for (uint i = 0; i < angka.length; i++) {... */\n      iszero\n      tag_130\n      jumpi\n        /* \"contracts/belajar/tes.sol\":2111:2116  angka */\n      dup4\n        /* \"contracts/belajar/tes.sol\":2117:2118  i */\n      dup2\n        /* \"contracts/belajar/tes.sol\":2111:2119  angka[i] */\n      dup2\n      mload\n      dup2\n      lt\n      tag_132\n      jumpi\n      tag_133\n      tag_134\n      jump\t// in\n    tag_133:\n    tag_132:\n      0x20\n      mul\n      0x20\n      add\n      add\n      mload\n        /* \"contracts/belajar/tes.sol\":2102:2119  total += angka[i] */\n      dup3\n      tag_135\n      swap2\n      swap1\n      tag_136\n      jump\t// in\n    tag_135:\n      swap2\n      pop\n        /* \"contracts/belajar/tes.sol\":2083:2086  i++ */\n      dup1\n      dup1\n      0x01\n      add\n      swap2\n      pop\n      pop\n        /* \"contracts/belajar/tes.sol\":2048:2130  for (uint i = 0; i < angka.length; i++) {... */\n      jump(tag_129)\n    tag_130:\n      pop\n        /* \"contracts/belajar/tes.sol\":2146:2151  total */\n      dup1\n        /* \"contracts/belajar/tes.sol\":2139:2151  return total */\n      swap2\n      pop\n      pop\n        /* \"contracts/belajar/tes.sol\":1945:2158  function contohArray(uint[] memory angka) public pure returns (uint) {... */\n      swap2\n      swap1\n      pop\n      jump\t// out\n        /* \"contracts/belajar/tes.sol\":1346:1470  function tambah(uint a, uint b) public pure returns (uint) {... */\n    tag_92:\n        /* \"contracts/belajar/tes.sol\":1399:1403  uint */\n      0x00\n        /* \"contracts/belajar/tes.sol\":1426:1427  b */\n      dup2\n        /* \"contracts/belajar/tes.sol\":1422:1423  a */\n      dup4\n        /* \"contracts/belajar/tes.sol\":1422:1427  a + b */\n      tag_138\n      swap2\n      swap1\n      tag_136\n      jump\t// in\n    tag_138:\n        /* \"contracts/belajar/tes.sol\":1415:1427  return a + b */\n      swap1\n      pop\n        /* \"contracts/belajar/tes.sol\":1346:1470  function tambah(uint a, uint b) public pure returns (uint) {... */\n      swap3\n      swap2\n      pop\n      pop\n      jump\t// out\n        /* \"#utility.yul\":7:82   */\n    tag_139:\n        /* \"#utility.yul\":40:46   */\n      0x00\n        /* \"#utility.yul\":73:75   */\n      0x40\n        /* \"#utility.yul\":67:76   */\n      mload\n        /* \"#utility.yul\":57:76   */\n      swap1\n      pop\n        /* \"#utility.yul\":7:82   */\n      swap1\n      jump\t// out\n        /* \"#utility.yul\":88:205   */\n    tag_140:\n        /* \"#utility.yul\":197:198   */\n      0x00\n        /* \"#utility.yul\":194:195   */\n      0x00\n        /* \"#utility.yul\":187:199   */\n      revert\n        /* \"#utility.yul\":211:328   */\n    tag_141:\n        /* \"#utility.yul\":320:321   */\n      0x00\n        /* \"#utility.yul\":317:318   */\n      0x00\n        /* \"#utility.yul\":310:322   */\n      revert\n        /* \"#utility.yul\":334:411   */\n    tag_142:\n        /* \"#utility.yul\":371:378   */\n      0x00\n        /* \"#utility.yul\":400:405   */\n      dup2\n        /* \"#utility.yul\":389:405   */\n      swap1\n      pop\n        /* \"#utility.yul\":334:411   */\n      swap2\n      swap1\n      pop\n      jump\t// out\n        /* \"#utility.yul\":417:539   */\n    tag_143:\n        /* \"#utility.yul\":490:514   */\n      tag_199\n        /* \"#utility.yul\":508:513   */\n      dup2\n        /* \"#utility.yul\":490:514   */\n      tag_142\n      jump\t// in\n    tag_199:\n        /* \"#utility.yul\":483:488   */\n      dup2\n        /* \"#utility.yul\":480:515   */\n      eq\n        /* \"#utility.yul\":470:533   */\n      tag_200\n      jumpi\n        /* \"#utility.yul\":529:530   */\n      0x00\n        /* \"#utility.yul\":526:527   */\n      0x00\n        /* \"#utility.yul\":519:531   */\n      revert\n        /* \"#utility.yul\":470:533   */\n    tag_200:\n        /* \"#utility.yul\":417:539   */\n      pop\n      jump\t// out\n        /* \"#utility.yul\":545:684   */\n    tag_144:\n        /* \"#utility.yul\":591:596   */\n      0x00\n        /* \"#utility.yul\":629:635   */\n      dup2\n        /* \"#utility.yul\":616:636   */\n      calldataload\n        /* \"#utility.yul\":607:636   */\n      swap1\n      pop\n        /* \"#utility.yul\":645:678   */\n      tag_202\n        /* \"#utility.yul\":672:677   */\n      dup2\n        /* \"#utility.yul\":645:678   */\n      tag_143\n      jump\t// in\n    tag_202:\n        /* \"#utility.yul\":545:684   */\n      swap3\n      swap2\n      pop\n      pop\n      jump\t// out\n        /* \"#utility.yul\":690:1019   */\n    tag_23:\n        /* \"#utility.yul\":749:755   */\n      0x00\n        /* \"#utility.yul\":798:800   */\n      0x20\n        /* \"#utility.yul\":786:795   */\n      dup3\n        /* \"#utility.yul\":777:784   */\n      dup5\n        /* \"#utility.yul\":773:796   */\n      sub\n        /* \"#utility.yul\":769:801   */\n      slt\n        /* \"#utility.yul\":766:885   */\n      iszero\n      tag_204\n      jumpi\n        /* \"#utility.yul\":804:883   */\n      tag_205\n      tag_140\n      jump\t// in\n    tag_205:\n        /* \"#utility.yul\":766:885   */\n    tag_204:\n        /* \"#utility.yul\":924:925   */\n      0x00\n        /* \"#utility.yul\":949:1002   */\n      tag_206\n        /* \"#utility.yul\":994:1001   */\n      dup5\n        /* \"#utility.yul\":985:991   */\n      dup3\n        /* \"#utility.yul\":974:983   */\n      dup6\n        /* \"#utility.yul\":970:992   */\n      add\n        /* \"#utility.yul\":949:1002   */\n      tag_144\n      jump\t// in\n    tag_206:\n        /* \"#utility.yul\":939:1002   */\n      swap2\n      pop\n        /* \"#utility.yul\":895:1012   */\n      pop\n        /* \"#utility.yul\":690:1019   */\n      swap3\n      swap2\n      pop\n      pop\n      jump\t// out\n        /* \"#utility.yul\":1025:1115   */\n    tag_145:\n        /* \"#utility.yul\":1059:1066   */\n      0x00\n        /* \"#utility.yul\":1102:1107   */\n      dup2\n        /* \"#utility.yul\":1095:1108   */\n      iszero\n        /* \"#utility.yul\":1088:1109   */\n      iszero\n        /* \"#utility.yul\":1077:1109   */\n      swap1\n      pop\n        /* \"#utility.yul\":1025:1115   */\n      swap2\n      swap1\n      pop\n      jump\t// out\n        /* \"#utility.yul\":1121:1230   */\n    tag_146:\n        /* \"#utility.yul\":1202:1223   */\n      tag_209\n        /* \"#utility.yul\":1217:1222   */\n      dup2\n        /* \"#utility.yul\":1202:1223   */\n      tag_145\n      jump\t// in\n    tag_209:\n        /* \"#utility.yul\":1197:1200   */\n      dup3\n        /* \"#utility.yul\":1190:1224   */\n      mstore\n        /* \"#utility.yul\":1121:1230   */\n      pop\n      pop\n      jump\t// out\n        /* \"#utility.yul\":1236:1446   */\n    tag_29:\n        /* \"#utility.yul\":1323:1327   */\n      0x00\n        /* \"#utility.yul\":1361:1363   */\n      0x20\n        /* \"#utility.yul\":1350:1359   */\n      dup3\n        /* \"#utility.yul\":1346:1364   */\n      add\n        /* \"#utility.yul\":1338:1364   */\n      swap1\n      pop\n        /* \"#utility.yul\":1374:1439   */\n      tag_211\n        /* \"#utility.yul\":1436:1437   */\n      0x00\n        /* \"#utility.yul\":1425:1434   */\n      dup4\n        /* \"#utility.yul\":1421:1438   */\n      add\n        /* \"#utility.yul\":1412:1418   */\n      dup5\n        /* \"#utility.yul\":1374:1439   */\n      tag_146\n      jump\t// in\n    tag_211:\n        /* \"#utility.yul\":1236:1446   */\n      swap3\n      swap2\n      pop\n      pop\n      jump\t// out\n        /* \"#utility.yul\":1452:1569   */\n    tag_147:\n        /* \"#utility.yul\":1561:1562   */\n      0x00\n        /* \"#utility.yul\":1558:1559   */\n      0x00\n        /* \"#utility.yul\":1551:1563   */\n      revert\n        /* \"#utility.yul\":1575:1692   */\n    tag_148:\n        /* \"#utility.yul\":1684:1685   */\n      0x00\n        /* \"#utility.yul\":1681:1682   */\n      0x00\n        /* \"#utility.yul\":1674:1686   */\n      revert\n        /* \"#utility.yul\":1698:1815   */\n    tag_149:\n        /* \"#utility.yul\":1807:1808   */\n      0x00\n        /* \"#utility.yul\":1804:1805   */\n      0x00\n        /* \"#utility.yul\":1797:1809   */\n      revert\n        /* \"#utility.yul\":1835:2388   */\n    tag_150:\n        /* \"#utility.yul\":1893:1901   */\n      0x00\n        /* \"#utility.yul\":1903:1909   */\n      0x00\n        /* \"#utility.yul\":1953:1956   */\n      dup4\n        /* \"#utility.yul\":1946:1950   */\n      0x1f\n        /* \"#utility.yul\":1938:1944   */\n      dup5\n        /* \"#utility.yul\":1934:1951   */\n      add\n        /* \"#utility.yul\":1930:1957   */\n      slt\n        /* \"#utility.yul\":1920:2042   */\n      tag_216\n      jumpi\n        /* \"#utility.yul\":1961:2040   */\n      tag_217\n      tag_147\n      jump\t// in\n    tag_217:\n        /* \"#utility.yul\":1920:2042   */\n    tag_216:\n        /* \"#utility.yul\":2074:2080   */\n      dup3\n        /* \"#utility.yul\":2061:2081   */\n      calldataload\n        /* \"#utility.yul\":2051:2081   */\n      swap1\n      pop\n        /* \"#utility.yul\":2104:2122   */\n      0xffffffffffffffff\n        /* \"#utility.yul\":2096:2102   */\n      dup2\n        /* \"#utility.yul\":2093:2123   */\n      gt\n        /* \"#utility.yul\":2090:2207   */\n      iszero\n      tag_218\n      jumpi\n        /* \"#utility.yul\":2126:2205   */\n      tag_219\n      tag_148\n      jump\t// in\n    tag_219:\n        /* \"#utility.yul\":2090:2207   */\n    tag_218:\n        /* \"#utility.yul\":2240:2244   */\n      0x20\n        /* \"#utility.yul\":2232:2238   */\n      dup4\n        /* \"#utility.yul\":2228:2245   */\n      add\n        /* \"#utility.yul\":2216:2245   */\n      swap2\n      pop\n        /* \"#utility.yul\":2294:2297   */\n      dup4\n        /* \"#utility.yul\":2286:2290   */\n      0x01\n        /* \"#utility.yul\":2278:2284   */\n      dup3\n        /* \"#utility.yul\":2274:2291   */\n      mul\n        /* \"#utility.yul\":2264:2272   */\n      dup4\n        /* \"#utility.yul\":2260:2292   */\n      add\n        /* \"#utility.yul\":2257:2298   */\n      gt\n        /* \"#utility.yul\":2254:2382   */\n      iszero\n      tag_220\n      jumpi\n        /* \"#utility.yul\":2301:2380   */\n      tag_221\n      tag_149\n      jump\t// in\n    tag_221:\n        /* \"#utility.yul\":2254:2382   */\n    tag_220:\n        /* \"#utility.yul\":1835:2388   */\n      swap3\n      pop\n      swap3\n      swap1\n      pop\n      jump\t// out\n        /* \"#utility.yul\":2394:2923   */\n    tag_33:\n        /* \"#utility.yul\":2465:2471   */\n      0x00\n        /* \"#utility.yul\":2473:2479   */\n      0x00\n        /* \"#utility.yul\":2522:2524   */\n      0x20\n        /* \"#utility.yul\":2510:2519   */\n      dup4\n        /* \"#utility.yul\":2501:2508   */\n      dup6\n        /* \"#utility.yul\":2497:2520   */\n      sub\n        /* \"#utility.yul\":2493:2525   */\n      slt\n        /* \"#utility.yul\":2490:2609   */\n      iszero\n      tag_223\n      jumpi\n        /* \"#utility.yul\":2528:2607   */\n      tag_224\n      tag_140\n      jump\t// in\n    tag_224:\n        /* \"#utility.yul\":2490:2609   */\n    tag_223:\n        /* \"#utility.yul\":2676:2677   */\n      0x00\n        /* \"#utility.yul\":2665:2674   */\n      dup4\n        /* \"#utility.yul\":2661:2678   */\n      add\n        /* \"#utility.yul\":2648:2679   */\n      calldataload\n        /* \"#utility.yul\":2706:2724   */\n      0xffffffffffffffff\n        /* \"#utility.yul\":2698:2704   */\n      dup2\n        /* \"#utility.yul\":2695:2725   */\n      gt\n        /* \"#utility.yul\":2692:2809   */\n      iszero\n      tag_225\n      jumpi\n        /* \"#utility.yul\":2728:2807   */\n      tag_226\n      tag_141\n      jump\t// in\n    tag_226:\n        /* \"#utility.yul\":2692:2809   */\n    tag_225:\n        /* \"#utility.yul\":2841:2906   */\n      tag_227\n        /* \"#utility.yul\":2898:2905   */\n      dup6\n        /* \"#utility.yul\":2889:2895   */\n      dup3\n        /* \"#utility.yul\":2878:2887   */\n      dup7\n        /* \"#utility.yul\":2874:2896   */\n      add\n        /* \"#utility.yul\":2841:2906   */\n      tag_150\n      jump\t// in\n    tag_227:\n        /* \"#utility.yul\":2823:2906   */\n      swap3\n      pop\n      swap3\n      pop\n        /* \"#utility.yul\":2619:2916   */\n      pop\n        /* \"#utility.yul\":2394:2923   */\n      swap3\n      pop\n      swap3\n      swap1\n      pop\n      jump\t// out\n        /* \"#utility.yul\":2929:3098   */\n    tag_151:\n        /* \"#utility.yul\":3013:3024   */\n      0x00\n        /* \"#utility.yul\":3047:3053   */\n      dup3\n        /* \"#utility.yul\":3042:3045   */\n      dup3\n        /* \"#utility.yul\":3035:3054   */\n      mstore\n        /* \"#utility.yul\":3087:3091   */\n      0x20\n        /* \"#utility.yul\":3082:3085   */\n      dup3\n        /* \"#utility.yul\":3078:3092   */\n      add\n        /* \"#utility.yul\":3063:3092   */\n      swap1\n      pop\n        /* \"#utility.yul\":2929:3098   */\n      swap3\n      swap2\n      pop\n      pop\n      jump\t// out\n        /* \"#utility.yul\":3104:3252   */\n    tag_152:\n        /* \"#utility.yul\":3202:3208   */\n      dup3\n        /* \"#utility.yul\":3197:3200   */\n      dup2\n        /* \"#utility.yul\":3192:3195   */\n      dup4\n        /* \"#utility.yul\":3179:3209   */\n      calldatacopy\n        /* \"#utility.yul\":3243:3244   */\n      0x00\n        /* \"#utility.yul\":3234:3240   */\n      dup4\n        /* \"#utility.yul\":3229:3232   */\n      dup4\n        /* \"#utility.yul\":3225:3241   */\n      add\n        /* \"#utility.yul\":3218:3245   */\n      mstore\n        /* \"#utility.yul\":3104:3252   */\n      pop\n      pop\n      pop\n      jump\t// out\n        /* \"#utility.yul\":3258:3360   */\n    tag_153:\n        /* \"#utility.yul\":3299:3305   */\n      0x00\n        /* \"#utility.yul\":3350:3352   */\n      0x1f\n        /* \"#utility.yul\":3346:3353   */\n      not\n        /* \"#utility.yul\":3341:3343   */\n      0x1f\n        /* \"#utility.yul\":3334:3339   */\n      dup4\n        /* \"#utility.yul\":3330:3344   */\n      add\n        /* \"#utility.yul\":3326:3354   */\n      and\n        /* \"#utility.yul\":3316:3354   */\n      swap1\n      pop\n        /* \"#utility.yul\":3258:3360   */\n      swap2\n      swap1\n      pop\n      jump\t// out\n        /* \"#utility.yul\":3390:3707   */\n    tag_154:\n        /* \"#utility.yul\":3488:3491   */\n      0x00\n        /* \"#utility.yul\":3509:3580   */\n      tag_232\n        /* \"#utility.yul\":3573:3579   */\n      dup4\n        /* \"#utility.yul\":3568:3571   */\n      dup6\n        /* \"#utility.yul\":3509:3580   */\n      tag_151\n      jump\t// in\n    tag_232:\n        /* \"#utility.yul\":3502:3580   */\n      swap4\n      pop\n        /* \"#utility.yul\":3590:3646   */\n      tag_233\n        /* \"#utility.yul\":3639:3645   */\n      dup4\n        /* \"#utility.yul\":3634:3637   */\n      dup6\n        /* \"#utility.yul\":3627:3632   */\n      dup5\n        /* \"#utility.yul\":3590:3646   */\n      tag_152\n      jump\t// in\n    tag_233:\n        /* \"#utility.yul\":3671:3700   */\n      tag_234\n        /* \"#utility.yul\":3693:3699   */\n      dup4\n        /* \"#utility.yul\":3671:3700   */\n      tag_153\n      jump\t// in\n    tag_234:\n        /* \"#utility.yul\":3666:3669   */\n      dup5\n        /* \"#utility.yul\":3662:3701   */\n      add\n        /* \"#utility.yul\":3655:3701   */\n      swap1\n      pop\n        /* \"#utility.yul\":3390:3707   */\n      swap4\n      swap3\n      pop\n      pop\n      pop\n      jump\t// out\n        /* \"#utility.yul\":3713:4046   */\n    tag_36:\n        /* \"#utility.yul\":3836:3840   */\n      0x00\n        /* \"#utility.yul\":3874:3876   */\n      0x20\n        /* \"#utility.yul\":3863:3872   */\n      dup3\n        /* \"#utility.yul\":3859:3877   */\n      add\n        /* \"#utility.yul\":3851:3877   */\n      swap1\n      pop\n        /* \"#utility.yul\":3923:3932   */\n      dup2\n        /* \"#utility.yul\":3917:3921   */\n      dup2\n        /* \"#utility.yul\":3913:3933   */\n      sub\n        /* \"#utility.yul\":3909:3910   */\n      0x00\n        /* \"#utility.yul\":3898:3907   */\n      dup4\n        /* \"#utility.yul\":3894:3911   */\n      add\n        /* \"#utility.yul\":3887:3934   */\n      mstore\n        /* \"#utility.yul\":3951:4039   */\n      tag_236\n        /* \"#utility.yul\":4034:4038   */\n      dup2\n        /* \"#utility.yul\":4025:4031   */\n      dup5\n        /* \"#utility.yul\":4017:4023   */\n      dup7\n        /* \"#utility.yul\":3951:4039   */\n      tag_154\n      jump\t// in\n    tag_236:\n        /* \"#utility.yul\":3943:4039   */\n      swap1\n      pop\n        /* \"#utility.yul\":3713:4046   */\n      swap4\n      swap3\n      pop\n      pop\n      pop\n      jump\t// out\n        /* \"#utility.yul\":4052:4170   */\n    tag_155:\n        /* \"#utility.yul\":4139:4163   */\n      tag_238\n        /* \"#utility.yul\":4157:4162   */\n      dup2\n        /* \"#utility.yul\":4139:4163   */\n      tag_142\n      jump\t// in\n    tag_238:\n        /* \"#utility.yul\":4134:4137   */\n      dup3\n        /* \"#utility.yul\":4127:4164   */\n      mstore\n        /* \"#utility.yul\":4052:4170   */\n      pop\n      pop\n      jump\t// out\n        /* \"#utility.yul\":4176:4398   */\n    tag_41:\n        /* \"#utility.yul\":4269:4273   */\n      0x00\n        /* \"#utility.yul\":4307:4309   */\n      0x20\n        /* \"#utility.yul\":4296:4305   */\n      dup3\n        /* \"#utility.yul\":4292:4310   */\n      add\n        /* \"#utility.yul\":4284:4310   */\n      swap1\n      pop\n        /* \"#utility.yul\":4320:4391   */\n      tag_240\n        /* \"#utility.yul\":4388:4389   */\n      0x00\n        /* \"#utility.yul\":4377:4386   */\n      dup4\n        /* \"#utility.yul\":4373:4390   */\n      add\n        /* \"#utility.yul\":4364:4370   */\n      dup5\n        /* \"#utility.yul\":4320:4391   */\n      tag_155\n      jump\t// in\n    tag_240:\n        /* \"#utility.yul\":4176:4398   */\n      swap3\n      swap2\n      pop\n      pop\n      jump\t// out\n        /* \"#utility.yul\":4404:4503   */\n    tag_156:\n        /* \"#utility.yul\":4456:4462   */\n      0x00\n        /* \"#utility.yul\":4490:4495   */\n      dup2\n        /* \"#utility.yul\":4484:4496   */\n      mload\n        /* \"#utility.yul\":4474:4496   */\n      swap1\n      pop\n        /* \"#utility.yul\":4404:4503   */\n      swap2\n      swap1\n      pop\n      jump\t// out\n        /* \"#utility.yul\":4509:4648   */\n    tag_157:\n        /* \"#utility.yul\":4598:4604   */\n      dup3\n        /* \"#utility.yul\":4593:4596   */\n      dup2\n        /* \"#utility.yul\":4588:4591   */\n      dup4\n        /* \"#utility.yul\":4582:4605   */\n      mcopy\n        /* \"#utility.yul\":4639:4640   */\n      0x00\n        /* \"#utility.yul\":4630:4636   */\n      dup4\n        /* \"#utility.yul\":4625:4628   */\n      dup4\n        /* \"#utility.yul\":4621:4637   */\n      add\n        /* \"#utility.yul\":4614:4641   */\n      mstore\n        /* \"#utility.yul\":4509:4648   */\n      pop\n      pop\n      pop\n      jump\t// out\n        /* \"#utility.yul\":4654:5031   */\n    tag_158:\n        /* \"#utility.yul\":4742:4745   */\n      0x00\n        /* \"#utility.yul\":4770:4809   */\n      tag_244\n        /* \"#utility.yul\":4803:4808   */\n      dup3\n        /* \"#utility.yul\":4770:4809   */\n      tag_156\n      jump\t// in\n    tag_244:\n        /* \"#utility.yul\":4825:4896   */\n      tag_245\n        /* \"#utility.yul\":4889:4895   */\n      dup2\n        /* \"#utility.yul\":4884:4887   */\n      dup6\n        /* \"#utility.yul\":4825:4896   */\n      tag_151\n      jump\t// in\n    tag_245:\n        /* \"#utility.yul\":4818:4896   */\n      swap4\n      pop\n        /* \"#utility.yul\":4905:4970   */\n      tag_246\n        /* \"#utility.yul\":4963:4969   */\n      dup2\n        /* \"#utility.yul\":4958:4961   */\n      dup6\n        /* \"#utility.yul\":4951:4955   */\n      0x20\n        /* \"#utility.yul\":4944:4949   */\n      dup7\n        /* \"#utility.yul\":4940:4956   */\n      add\n        /* \"#utility.yul\":4905:4970   */\n      tag_157\n      jump\t// in\n    tag_246:\n        /* \"#utility.yul\":4995:5024   */\n      tag_247\n        /* \"#utility.yul\":5017:5023   */\n      dup2\n        /* \"#utility.yul\":4995:5024   */\n      tag_153\n      jump\t// in\n    tag_247:\n        /* \"#utility.yul\":4990:4993   */\n      dup5\n        /* \"#utility.yul\":4986:5025   */\n      add\n        /* \"#utility.yul\":4979:5025   */\n      swap2\n      pop\n        /* \"#utility.yul\":4746:5031   */\n      pop\n        /* \"#utility.yul\":4654:5031   */\n      swap3\n      swap2\n      pop\n      pop\n      jump\t// out\n        /* \"#utility.yul\":5037:5350   */\n    tag_46:\n        /* \"#utility.yul\":5150:5154   */\n      0x00\n        /* \"#utility.yul\":5188:5190   */\n      0x20\n        /* \"#utility.yul\":5177:5186   */\n      dup3\n        /* \"#utility.yul\":5173:5191   */\n      add\n        /* \"#utility.yul\":5165:5191   */\n      swap1\n      pop\n        /* \"#utility.yul\":5237:5246   */\n      dup2\n        /* \"#utility.yul\":5231:5235   */\n      dup2\n        /* \"#utility.yul\":5227:5247   */\n      sub\n        /* \"#utility.yul\":5223:5224   */\n      0x00\n        /* \"#utility.yul\":5212:5221   */\n      dup4\n        /* \"#utility.yul\":5208:5225   */\n      add\n        /* \"#utility.yul\":5201:5248   */\n      mstore\n        /* \"#utility.yul\":5265:5343   */\n      tag_249\n        /* \"#utility.yul\":5338:5342   */\n      dup2\n        /* \"#utility.yul\":5329:5335   */\n      dup5\n        /* \"#utility.yul\":5265:5343   */\n      tag_158\n      jump\t// in\n    tag_249:\n        /* \"#utility.yul\":5257:5343   */\n      swap1\n      pop\n        /* \"#utility.yul\":5037:5350   */\n      swap3\n      swap2\n      pop\n      pop\n      jump\t// out\n        /* \"#utility.yul\":5356:5454   */\n    tag_159:\n        /* \"#utility.yul\":5407:5413   */\n      0x00\n        /* \"#utility.yul\":5441:5446   */\n      dup2\n        /* \"#utility.yul\":5435:5447   */\n      mload\n        /* \"#utility.yul\":5425:5447   */\n      swap1\n      pop\n        /* \"#utility.yul\":5356:5454   */\n      swap2\n      swap1\n      pop\n      jump\t// out\n        /* \"#utility.yul\":5460:5628   */\n    tag_160:\n        /* \"#utility.yul\":5543:5554   */\n      0x00\n        /* \"#utility.yul\":5577:5583   */\n      dup3\n        /* \"#utility.yul\":5572:5575   */\n      dup3\n        /* \"#utility.yul\":5565:5584   */\n      mstore\n        /* \"#utility.yul\":5617:5621   */\n      0x20\n        /* \"#utility.yul\":5612:5615   */\n      dup3\n        /* \"#utility.yul\":5608:5622   */\n      add\n        /* \"#utility.yul\":5593:5622   */\n      swap1\n      pop\n        /* \"#utility.yul\":5460:5628   */\n      swap3\n      swap2\n      pop\n      pop\n      jump\t// out\n        /* \"#utility.yul\":5634:6007   */\n    tag_161:\n        /* \"#utility.yul\":5720:5723   */\n      0x00\n        /* \"#utility.yul\":5748:5786   */\n      tag_253\n        /* \"#utility.yul\":5780:5785   */\n      dup3\n        /* \"#utility.yul\":5748:5786   */\n      tag_159\n      jump\t// in\n    tag_253:\n        /* \"#utility.yul\":5802:5872   */\n      tag_254\n        /* \"#utility.yul\":5865:5871   */\n      dup2\n        /* \"#utility.yul\":5860:5863   */\n      dup6\n        /* \"#utility.yul\":5802:5872   */\n      tag_160\n      jump\t// in\n    tag_254:\n        /* \"#utility.yul\":5795:5872   */\n      swap4\n      pop\n        /* \"#utility.yul\":5881:5946   */\n      tag_255\n        /* \"#utility.yul\":5939:5945   */\n      dup2\n        /* \"#utility.yul\":5934:5937   */\n      dup6\n        /* \"#utility.yul\":5927:5931   */\n      0x20\n        /* \"#utility.yul\":5920:5925   */\n      dup7\n        /* \"#utility.yul\":5916:5932   */\n      add\n        /* \"#utility.yul\":5881:5946   */\n      tag_157\n      jump\t// in\n    tag_255:\n        /* \"#utility.yul\":5971:6000   */\n      tag_256\n        /* \"#utility.yul\":5993:5999   */\n      dup2\n        /* \"#utility.yul\":5971:6000   */\n      tag_153\n      jump\t// in\n    tag_256:\n        /* \"#utility.yul\":5966:5969   */\n      dup5\n        /* \"#utility.yul\":5962:6001   */\n      add\n        /* \"#utility.yul\":5955:6001   */\n      swap2\n      pop\n        /* \"#utility.yul\":5724:6007   */\n      pop\n        /* \"#utility.yul\":5634:6007   */\n      swap3\n      swap2\n      pop\n      pop\n      jump\t// out\n        /* \"#utility.yul\":6013:6322   */\n    tag_51:\n        /* \"#utility.yul\":6124:6128   */\n      0x00\n        /* \"#utility.yul\":6162:6164   */\n      0x20\n        /* \"#utility.yul\":6151:6160   */\n      dup3\n        /* \"#utility.yul\":6147:6165   */\n      add\n        /* \"#utility.yul\":6139:6165   */\n      swap1\n      pop\n        /* \"#utility.yul\":6211:6220   */\n      dup2\n        /* \"#utility.yul\":6205:6209   */\n      dup2\n        /* \"#utility.yul\":6201:6221   */\n      sub\n        /* \"#utility.yul\":6197:6198   */\n      0x00\n        /* \"#utility.yul\":6186:6195   */\n      dup4\n        /* \"#utility.yul\":6182:6199   */\n      add\n        /* \"#utility.yul\":6175:6222   */\n      mstore\n        /* \"#utility.yul\":6239:6315   */\n      tag_258\n        /* \"#utility.yul\":6310:6314   */\n      dup2\n        /* \"#utility.yul\":6301:6307   */\n      dup5\n        /* \"#utility.yul\":6239:6315   */\n      tag_161\n      jump\t// in\n    tag_258:\n        /* \"#utility.yul\":6231:6315   */\n      swap1\n      pop\n        /* \"#utility.yul\":6013:6322   */\n      swap3\n      swap2\n      pop\n      pop\n      jump\t// out\n        /* \"#utility.yul\":6328:6454   */\n    tag_162:\n        /* \"#utility.yul\":6365:6372   */\n      0x00\n        /* \"#utility.yul\":6405:6447   */\n      0xffffffffffffffffffffffffffffffffffffffff\n        /* \"#utility.yul\":6398:6403   */\n      dup3\n        /* \"#utility.yul\":6394:6448   */\n      and\n        /* \"#utility.yul\":6383:6448   */\n      swap1\n      pop\n        /* \"#utility.yul\":6328:6454   */\n      swap2\n      swap1\n      pop\n      jump\t// out\n        /* \"#utility.yul\":6460:6556   */\n    tag_163:\n        /* \"#utility.yul\":6497:6504   */\n      0x00\n        /* \"#utility.yul\":6526:6550   */\n      tag_261\n        /* \"#utility.yul\":6544:6549   */\n      dup3\n        /* \"#utility.yul\":6526:6550   */\n      tag_162\n      jump\t// in\n    tag_261:\n        /* \"#utility.yul\":6515:6550   */\n      swap1\n      pop\n        /* \"#utility.yul\":6460:6556   */\n      swap2\n      swap1\n      pop\n      jump\t// out\n        /* \"#utility.yul\":6562:6680   */\n    tag_164:\n        /* \"#utility.yul\":6649:6673   */\n      tag_263\n        /* \"#utility.yul\":6667:6672   */\n      dup2\n        /* \"#utility.yul\":6649:6673   */\n      tag_163\n      jump\t// in\n    tag_263:\n        /* \"#utility.yul\":6644:6647   */\n      dup3\n        /* \"#utility.yul\":6637:6674   */\n      mstore\n        /* \"#utility.yul\":6562:6680   */\n      pop\n      pop\n      jump\t// out\n        /* \"#utility.yul\":6686:6908   */\n    tag_56:\n        /* \"#utility.yul\":6779:6783   */\n      0x00\n        /* \"#utility.yul\":6817:6819   */\n      0x20\n        /* \"#utility.yul\":6806:6815   */\n      dup3\n        /* \"#utility.yul\":6802:6820   */\n      add\n        /* \"#utility.yul\":6794:6820   */\n      swap1\n      pop\n        /* \"#utility.yul\":6830:6901   */\n      tag_265\n        /* \"#utility.yul\":6898:6899   */\n      0x00\n        /* \"#utility.yul\":6887:6896   */\n      dup4\n        /* \"#utility.yul\":6883:6900   */\n      add\n        /* \"#utility.yul\":6874:6880   */\n      dup5\n        /* \"#utility.yul\":6830:6901   */\n      tag_164\n      jump\t// in\n    tag_265:\n        /* \"#utility.yul\":6686:6908   */\n      swap3\n      swap2\n      pop\n      pop\n      jump\t// out\n        /* \"#utility.yul\":6914:7031   */\n    tag_165:\n        /* \"#utility.yul\":7023:7024   */\n      0x00\n        /* \"#utility.yul\":7020:7021   */\n      0x00\n        /* \"#utility.yul\":7013:7025   */\n      revert\n        /* \"#utility.yul\":7037:7217   */\n    tag_166:\n        /* \"#utility.yul\":7085:7162   */\n      0x4e487b7100000000000000000000000000000000000000000000000000000000\n        /* \"#utility.yul\":7082:7083   */\n      0x00\n        /* \"#utility.yul\":7075:7163   */\n      mstore\n        /* \"#utility.yul\":7182:7186   */\n      0x41\n        /* \"#utility.yul\":7179:7180   */\n      0x04\n        /* \"#utility.yul\":7172:7187   */\n      mstore\n        /* \"#utility.yul\":7206:7210   */\n      0x24\n        /* \"#utility.yul\":7203:7204   */\n      0x00\n        /* \"#utility.yul\":7196:7211   */\n      revert\n        /* \"#utility.yul\":7223:7504   */\n    tag_167:\n        /* \"#utility.yul\":7306:7333   */\n      tag_269\n        /* \"#utility.yul\":7328:7332   */\n      dup3\n        /* \"#utility.yul\":7306:7333   */\n      tag_153\n      jump\t// in\n    tag_269:\n        /* \"#utility.yul\":7298:7304   */\n      dup2\n        /* \"#utility.yul\":7294:7334   */\n      add\n        /* \"#utility.yul\":7436:7442   */\n      dup2\n        /* \"#utility.yul\":7424:7434   */\n      dup2\n        /* \"#utility.yul\":7421:7443   */\n      lt\n        /* \"#utility.yul\":7400:7418   */\n      0xffffffffffffffff\n        /* \"#utility.yul\":7388:7398   */\n      dup3\n        /* \"#utility.yul\":7385:7419   */\n      gt\n        /* \"#utility.yul\":7382:7444   */\n      or\n        /* \"#utility.yul\":7379:7467   */\n      iszero\n      tag_270\n      jumpi\n        /* \"#utility.yul\":7447:7465   */\n      tag_271\n      tag_166\n      jump\t// in\n    tag_271:\n        /* \"#utility.yul\":7379:7467   */\n    tag_270:\n        /* \"#utility.yul\":7487:7497   */\n      dup1\n        /* \"#utility.yul\":7483:7485   */\n      0x40\n        /* \"#utility.yul\":7476:7498   */\n      mstore\n        /* \"#utility.yul\":7266:7504   */\n      pop\n        /* \"#utility.yul\":7223:7504   */\n      pop\n      pop\n      jump\t// out\n        /* \"#utility.yul\":7510:7639   */\n    tag_168:\n        /* \"#utility.yul\":7544:7550   */\n      0x00\n        /* \"#utility.yul\":7571:7591   */\n      tag_273\n      tag_139\n      jump\t// in\n    tag_273:\n        /* \"#utility.yul\":7561:7591   */\n      swap1\n      pop\n        /* \"#utility.yul\":7600:7633   */\n      tag_274\n        /* \"#utility.yul\":7628:7632   */\n      dup3\n        /* \"#utility.yul\":7620:7626   */\n      dup3\n        /* \"#utility.yul\":7600:7633   */\n      tag_167\n      jump\t// in\n    tag_274:\n        /* \"#utility.yul\":7510:7639   */\n      swap2\n      swap1\n      pop\n      jump\t// out\n        /* \"#utility.yul\":7645:7953   */\n    tag_169:\n        /* \"#utility.yul\":7707:7711   */\n      0x00\n        /* \"#utility.yul\":7797:7815   */\n      0xffffffffffffffff\n        /* \"#utility.yul\":7789:7795   */\n      dup3\n        /* \"#utility.yul\":7786:7816   */\n      gt\n        /* \"#utility.yul\":7783:7839   */\n      iszero\n      tag_276\n      jumpi\n        /* \"#utility.yul\":7819:7837   */\n      tag_277\n      tag_166\n      jump\t// in\n    tag_277:\n        /* \"#utility.yul\":7783:7839   */\n    tag_276:\n        /* \"#utility.yul\":7857:7886   */\n      tag_278\n        /* \"#utility.yul\":7879:7885   */\n      dup3\n        /* \"#utility.yul\":7857:7886   */\n      tag_153\n      jump\t// in\n    tag_278:\n        /* \"#utility.yul\":7849:7886   */\n      swap1\n      pop\n        /* \"#utility.yul\":7941:7945   */\n      0x20\n        /* \"#utility.yul\":7935:7939   */\n      dup2\n        /* \"#utility.yul\":7931:7946   */\n      add\n        /* \"#utility.yul\":7923:7946   */\n      swap1\n      pop\n        /* \"#utility.yul\":7645:7953   */\n      swap2\n      swap1\n      pop\n      jump\t// out\n        /* \"#utility.yul\":7959:8384   */\n    tag_170:\n        /* \"#utility.yul\":8037:8042   */\n      0x00\n        /* \"#utility.yul\":8062:8128   */\n      tag_280\n        /* \"#utility.yul\":8078:8127   */\n      tag_281\n        /* \"#utility.yul\":8120:8126   */\n      dup5\n        /* \"#utility.yul\":8078:8127   */\n      tag_169\n      jump\t// in\n    tag_281:\n        /* \"#utility.yul\":8062:8128   */\n      tag_168\n      jump\t// in\n    tag_280:\n        /* \"#utility.yul\":8053:8128   */\n      swap1\n      pop\n        /* \"#utility.yul\":8151:8157   */\n      dup3\n        /* \"#utility.yul\":8144:8149   */\n      dup2\n        /* \"#utility.yul\":8137:8158   */\n      mstore\n        /* \"#utility.yul\":8189:8193   */\n      0x20\n        /* \"#utility.yul\":8182:8187   */\n      dup2\n        /* \"#utility.yul\":8178:8194   */\n      add\n        /* \"#utility.yul\":8227:8230   */\n      dup5\n        /* \"#utility.yul\":8218:8224   */\n      dup5\n        /* \"#utility.yul\":8213:8216   */\n      dup5\n        /* \"#utility.yul\":8209:8225   */\n      add\n        /* \"#utility.yul\":8206:8231   */\n      gt\n        /* \"#utility.yul\":8203:8315   */\n      iszero\n      tag_282\n      jumpi\n        /* \"#utility.yul\":8234:8313   */\n      tag_283\n      tag_165\n      jump\t// in\n    tag_283:\n        /* \"#utility.yul\":8203:8315   */\n    tag_282:\n        /* \"#utility.yul\":8324:8378   */\n      tag_284\n        /* \"#utility.yul\":8371:8377   */\n      dup5\n        /* \"#utility.yul\":8366:8369   */\n      dup3\n        /* \"#utility.yul\":8361:8364   */\n      dup6\n        /* \"#utility.yul\":8324:8378   */\n      tag_152\n      jump\t// in\n    tag_284:\n        /* \"#utility.yul\":8043:8384   */\n      pop\n        /* \"#utility.yul\":7959:8384   */\n      swap4\n      swap3\n      pop\n      pop\n      pop\n      jump\t// out\n        /* \"#utility.yul\":8404:8744   */\n    tag_171:\n        /* \"#utility.yul\":8460:8465   */\n      0x00\n        /* \"#utility.yul\":8509:8512   */\n      dup3\n        /* \"#utility.yul\":8502:8506   */\n      0x1f\n        /* \"#utility.yul\":8494:8500   */\n      dup4\n        /* \"#utility.yul\":8490:8507   */\n      add\n        /* \"#utility.yul\":8486:8513   */\n      slt\n        /* \"#utility.yul\":8476:8598   */\n      tag_286\n      jumpi\n        /* \"#utility.yul\":8517:8596   */\n      tag_287\n      tag_147\n      jump\t// in\n    tag_287:\n        /* \"#utility.yul\":8476:8598   */\n    tag_286:\n        /* \"#utility.yul\":8634:8640   */\n      dup2\n        /* \"#utility.yul\":8621:8641   */\n      calldataload\n        /* \"#utility.yul\":8659:8738   */\n      tag_288\n        /* \"#utility.yul\":8734:8737   */\n      dup5\n        /* \"#utility.yul\":8726:8732   */\n      dup3\n        /* \"#utility.yul\":8719:8723   */\n      0x20\n        /* \"#utility.yul\":8711:8717   */\n      dup7\n        /* \"#utility.yul\":8707:8724   */\n      add\n        /* \"#utility.yul\":8659:8738   */\n      tag_170\n      jump\t// in\n    tag_288:\n        /* \"#utility.yul\":8650:8738   */\n      swap2\n      pop\n        /* \"#utility.yul\":8466:8744   */\n      pop\n        /* \"#utility.yul\":8404:8744   */\n      swap3\n      swap2\n      pop\n      pop\n      jump\t// out\n        /* \"#utility.yul\":8750:9259   */\n    tag_73:\n        /* \"#utility.yul\":8819:8825   */\n      0x00\n        /* \"#utility.yul\":8868:8870   */\n      0x20\n        /* \"#utility.yul\":8856:8865   */\n      dup3\n        /* \"#utility.yul\":8847:8854   */\n      dup5\n        /* \"#utility.yul\":8843:8866   */\n      sub\n        /* \"#utility.yul\":8839:8871   */\n      slt\n        /* \"#utility.yul\":8836:8955   */\n      iszero\n      tag_290\n      jumpi\n        /* \"#utility.yul\":8874:8953   */\n      tag_291\n      tag_140\n      jump\t// in\n    tag_291:\n        /* \"#utility.yul\":8836:8955   */\n    tag_290:\n        /* \"#utility.yul\":9022:9023   */\n      0x00\n        /* \"#utility.yul\":9011:9020   */\n      dup3\n        /* \"#utility.yul\":9007:9024   */\n      add\n        /* \"#utility.yul\":8994:9025   */\n      calldataload\n        /* \"#utility.yul\":9052:9070   */\n      0xffffffffffffffff\n        /* \"#utility.yul\":9044:9050   */\n      dup2\n        /* \"#utility.yul\":9041:9071   */\n      gt\n        /* \"#utility.yul\":9038:9155   */\n      iszero\n      tag_292\n      jumpi\n        /* \"#utility.yul\":9074:9153   */\n      tag_293\n      tag_141\n      jump\t// in\n    tag_293:\n        /* \"#utility.yul\":9038:9155   */\n    tag_292:\n        /* \"#utility.yul\":9179:9242   */\n      tag_294\n        /* \"#utility.yul\":9234:9241   */\n      dup5\n        /* \"#utility.yul\":9225:9231   */\n      dup3\n        /* \"#utility.yul\":9214:9223   */\n      dup6\n        /* \"#utility.yul\":9210:9232   */\n      add\n        /* \"#utility.yul\":9179:9242   */\n      tag_171\n      jump\t// in\n    tag_294:\n        /* \"#utility.yul\":9169:9242   */\n      swap2\n      pop\n        /* \"#utility.yul\":8965:9252   */\n      pop\n        /* \"#utility.yul\":8750:9259   */\n      swap3\n      swap2\n      pop\n      pop\n      jump\t// out\n        /* \"#utility.yul\":9265:9688   */\n    tag_81:\n        /* \"#utility.yul\":9406:9410   */\n      0x00\n        /* \"#utility.yul\":9444:9446   */\n      0x40\n        /* \"#utility.yul\":9433:9442   */\n      dup3\n        /* \"#utility.yul\":9429:9447   */\n      add\n        /* \"#utility.yul\":9421:9447   */\n      swap1\n      pop\n        /* \"#utility.yul\":9493:9502   */\n      dup2\n        /* \"#utility.yul\":9487:9491   */\n      dup2\n        /* \"#utility.yul\":9483:9503   */\n      sub\n        /* \"#utility.yul\":9479:9480   */\n      0x00\n        /* \"#utility.yul\":9468:9477   */\n      dup4\n        /* \"#utility.yul\":9464:9481   */\n      add\n        /* \"#utility.yul\":9457:9504   */\n      mstore\n        /* \"#utility.yul\":9521:9599   */\n      tag_296\n        /* \"#utility.yul\":9594:9598   */\n      dup2\n        /* \"#utility.yul\":9585:9591   */\n      dup6\n        /* \"#utility.yul\":9521:9599   */\n      tag_158\n      jump\t// in\n    tag_296:\n        /* \"#utility.yul\":9513:9599   */\n      swap1\n      pop\n        /* \"#utility.yul\":9609:9681   */\n      tag_297\n        /* \"#utility.yul\":9677:9679   */\n      0x20\n        /* \"#utility.yul\":9666:9675   */\n      dup4\n        /* \"#utility.yul\":9662:9680   */\n      add\n        /* \"#utility.yul\":9653:9659   */\n      dup5\n        /* \"#utility.yul\":9609:9681   */\n      tag_155\n      jump\t// in\n    tag_297:\n        /* \"#utility.yul\":9265:9688   */\n      swap4\n      swap3\n      pop\n      pop\n      pop\n      jump\t// out\n        /* \"#utility.yul\":9694:10005   */\n    tag_172:\n        /* \"#utility.yul\":9771:9775   */\n      0x00\n        /* \"#utility.yul\":9861:9879   */\n      0xffffffffffffffff\n        /* \"#utility.yul\":9853:9859   */\n      dup3\n        /* \"#utility.yul\":9850:9880   */\n      gt\n        /* \"#utility.yul\":9847:9903   */\n      iszero\n      tag_299\n      jumpi\n        /* \"#utility.yul\":9883:9901   */\n      tag_300\n      tag_166\n      jump\t// in\n    tag_300:\n        /* \"#utility.yul\":9847:9903   */\n    tag_299:\n        /* \"#utility.yul\":9933:9937   */\n      0x20\n        /* \"#utility.yul\":9925:9931   */\n      dup3\n        /* \"#utility.yul\":9921:9938   */\n      mul\n        /* \"#utility.yul\":9913:9938   */\n      swap1\n      pop\n        /* \"#utility.yul\":9993:9997   */\n      0x20\n        /* \"#utility.yul\":9987:9991   */\n      dup2\n        /* \"#utility.yul\":9983:9998   */\n      add\n        /* \"#utility.yul\":9975:9998   */\n      swap1\n      pop\n        /* \"#utility.yul\":9694:10005   */\n      swap2\n      swap1\n      pop\n      jump\t// out\n        /* \"#utility.yul\":10028:10738   */\n    tag_173:\n        /* \"#utility.yul\":10124:10129   */\n      0x00\n        /* \"#utility.yul\":10149:10230   */\n      tag_302\n        /* \"#utility.yul\":10165:10229   */\n      tag_303\n        /* \"#utility.yul\":10222:10228   */\n      dup5\n        /* \"#utility.yul\":10165:10229   */\n      tag_172\n      jump\t// in\n    tag_303:\n        /* \"#utility.yul\":10149:10230   */\n      tag_168\n      jump\t// in\n    tag_302:\n        /* \"#utility.yul\":10140:10230   */\n      swap1\n      pop\n        /* \"#utility.yul\":10250:10255   */\n      dup1\n        /* \"#utility.yul\":10279:10285   */\n      dup4\n        /* \"#utility.yul\":10272:10277   */\n      dup3\n        /* \"#utility.yul\":10265:10286   */\n      mstore\n        /* \"#utility.yul\":10313:10317   */\n      0x20\n        /* \"#utility.yul\":10306:10311   */\n      dup3\n        /* \"#utility.yul\":10302:10318   */\n      add\n        /* \"#utility.yul\":10295:10318   */\n      swap1\n      pop\n        /* \"#utility.yul\":10366:10370   */\n      0x20\n        /* \"#utility.yul\":10358:10364   */\n      dup5\n        /* \"#utility.yul\":10354:10371   */\n      mul\n        /* \"#utility.yul\":10346:10352   */\n      dup4\n        /* \"#utility.yul\":10342:10372   */\n      add\n        /* \"#utility.yul\":10395:10398   */\n      dup6\n        /* \"#utility.yul\":10387:10393   */\n      dup2\n        /* \"#utility.yul\":10384:10399   */\n      gt\n        /* \"#utility.yul\":10381:10503   */\n      iszero\n      tag_304\n      jumpi\n        /* \"#utility.yul\":10414:10493   */\n      tag_305\n      tag_149\n      jump\t// in\n    tag_305:\n        /* \"#utility.yul\":10381:10503   */\n    tag_304:\n        /* \"#utility.yul\":10529:10535   */\n      dup4\n        /* \"#utility.yul\":10512:10732   */\n    tag_306:\n        /* \"#utility.yul\":10546:10552   */\n      dup2\n        /* \"#utility.yul\":10541:10544   */\n      dup2\n        /* \"#utility.yul\":10538:10553   */\n      lt\n        /* \"#utility.yul\":10512:10732   */\n      iszero\n      tag_308\n      jumpi\n        /* \"#utility.yul\":10621:10624   */\n      dup1\n        /* \"#utility.yul\":10650:10687   */\n      tag_309\n        /* \"#utility.yul\":10683:10686   */\n      dup9\n        /* \"#utility.yul\":10671:10681   */\n      dup3\n        /* \"#utility.yul\":10650:10687   */\n      tag_144\n      jump\t// in\n    tag_309:\n        /* \"#utility.yul\":10645:10648   */\n      dup5\n        /* \"#utility.yul\":10638:10688   */\n      mstore\n        /* \"#utility.yul\":10717:10721   */\n      0x20\n        /* \"#utility.yul\":10712:10715   */\n      dup5\n        /* \"#utility.yul\":10708:10722   */\n      add\n        /* \"#utility.yul\":10701:10722   */\n      swap4\n      pop\n        /* \"#utility.yul\":10588:10732   */\n      pop\n        /* \"#utility.yul\":10572:10576   */\n      0x20\n        /* \"#utility.yul\":10567:10570   */\n      dup2\n        /* \"#utility.yul\":10563:10577   */\n      add\n        /* \"#utility.yul\":10556:10577   */\n      swap1\n      pop\n        /* \"#utility.yul\":10512:10732   */\n      jump(tag_306)\n    tag_308:\n        /* \"#utility.yul\":10516:10537   */\n      pop\n        /* \"#utility.yul\":10130:10738   */\n      pop\n      pop\n        /* \"#utility.yul\":10028:10738   */\n      swap4\n      swap3\n      pop\n      pop\n      pop\n      jump\t// out\n        /* \"#utility.yul\":10761:11131   */\n    tag_174:\n        /* \"#utility.yul\":10832:10837   */\n      0x00\n        /* \"#utility.yul\":10881:10884   */\n      dup3\n        /* \"#utility.yul\":10874:10878   */\n      0x1f\n        /* \"#utility.yul\":10866:10872   */\n      dup4\n        /* \"#utility.yul\":10862:10879   */\n      add\n        /* \"#utility.yul\":10858:10885   */\n      slt\n        /* \"#utility.yul\":10848:10970   */\n      tag_311\n      jumpi\n        /* \"#utility.yul\":10889:10968   */\n      tag_312\n      tag_147\n      jump\t// in\n    tag_312:\n        /* \"#utility.yul\":10848:10970   */\n    tag_311:\n        /* \"#utility.yul\":11006:11012   */\n      dup2\n        /* \"#utility.yul\":10993:11013   */\n      calldataload\n        /* \"#utility.yul\":11031:11125   */\n      tag_313\n        /* \"#utility.yul\":11121:11124   */\n      dup5\n        /* \"#utility.yul\":11113:11119   */\n      dup3\n        /* \"#utility.yul\":11106:11110   */\n      0x20\n        /* \"#utility.yul\":11098:11104   */\n      dup7\n        /* \"#utility.yul\":11094:11111   */\n      add\n        /* \"#utility.yul\":11031:11125   */\n      tag_173\n      jump\t// in\n    tag_313:\n        /* \"#utility.yul\":11022:11125   */\n      swap2\n      pop\n        /* \"#utility.yul\":10838:11131   */\n      pop\n        /* \"#utility.yul\":10761:11131   */\n      swap3\n      swap2\n      pop\n      pop\n      jump\t// out\n        /* \"#utility.yul\":11137:11676   */\n    tag_85:\n        /* \"#utility.yul\":11221:11227   */\n      0x00\n        /* \"#utility.yul\":11270:11272   */\n      0x20\n        /* \"#utility.yul\":11258:11267   */\n      dup3\n        /* \"#utility.yul\":11249:11256   */\n      dup5\n        /* \"#utility.yul\":11245:11268   */\n      sub\n        /* \"#utility.yul\":11241:11273   */\n      slt\n        /* \"#utility.yul\":11238:11357   */\n      iszero\n      tag_315\n      jumpi\n        /* \"#utility.yul\":11276:11355   */\n      tag_316\n      tag_140\n      jump\t// in\n    tag_316:\n        /* \"#utility.yul\":11238:11357   */\n    tag_315:\n        /* \"#utility.yul\":11424:11425   */\n      0x00\n        /* \"#utility.yul\":11413:11422   */\n      dup3\n        /* \"#utility.yul\":11409:11426   */\n      add\n        /* \"#utility.yul\":11396:11427   */\n      calldataload\n        /* \"#utility.yul\":11454:11472   */\n      0xffffffffffffffff\n        /* \"#utility.yul\":11446:11452   */\n      dup2\n        /* \"#utility.yul\":11443:11473   */\n      gt\n        /* \"#utility.yul\":11440:11557   */\n      iszero\n      tag_317\n      jumpi\n        /* \"#utility.yul\":11476:11555   */\n      tag_318\n      tag_141\n      jump\t// in\n    tag_318:\n        /* \"#utility.yul\":11440:11557   */\n    tag_317:\n        /* \"#utility.yul\":11581:11659   */\n      tag_319\n        /* \"#utility.yul\":11651:11658   */\n      dup5\n        /* \"#utility.yul\":11642:11648   */\n      dup3\n        /* \"#utility.yul\":11631:11640   */\n      dup6\n        /* \"#utility.yul\":11627:11649   */\n      add\n        /* \"#utility.yul\":11581:11659   */\n      tag_174\n      jump\t// in\n    tag_319:\n        /* \"#utility.yul\":11571:11659   */\n      swap2\n      pop\n        /* \"#utility.yul\":11367:11669   */\n      pop\n        /* \"#utility.yul\":11137:11676   */\n      swap3\n      swap2\n      pop\n      pop\n      jump\t// out\n        /* \"#utility.yul\":11682:12156   */\n    tag_91:\n        /* \"#utility.yul\":11750:11756   */\n      0x00\n        /* \"#utility.yul\":11758:11764   */\n      0x00\n        /* \"#utility.yul\":11807:11809   */\n      0x40\n        /* \"#utility.yul\":11795:11804   */\n      dup4\n        /* \"#utility.yul\":11786:11793   */\n      dup6\n        /* \"#utility.yul\":11782:11805   */\n      sub\n        /* \"#utility.yul\":11778:11810   */\n      slt\n        /* \"#utility.yul\":11775:11894   */\n      iszero\n      tag_321\n      jumpi\n        /* \"#utility.yul\":11813:11892   */\n      tag_322\n      tag_140\n      jump\t// in\n    tag_322:\n        /* \"#utility.yul\":11775:11894   */\n    tag_321:\n        /* \"#utility.yul\":11933:11934   */\n      0x00\n        /* \"#utility.yul\":11958:12011   */\n      tag_323\n        /* \"#utility.yul\":12003:12010   */\n      dup6\n        /* \"#utility.yul\":11994:12000   */\n      dup3\n        /* \"#utility.yul\":11983:11992   */\n      dup7\n        /* \"#utility.yul\":11979:12001   */\n      add\n        /* \"#utility.yul\":11958:12011   */\n      tag_144\n      jump\t// in\n    tag_323:\n        /* \"#utility.yul\":11948:12011   */\n      swap3\n      pop\n        /* \"#utility.yul\":11904:12021   */\n      pop\n        /* \"#utility.yul\":12060:12062   */\n      0x20\n        /* \"#utility.yul\":12086:12139   */\n      tag_324\n        /* \"#utility.yul\":12131:12138   */\n      dup6\n        /* \"#utility.yul\":12122:12128   */\n      dup3\n        /* \"#utility.yul\":12111:12120   */\n      dup7\n        /* \"#utility.yul\":12107:12129   */\n      add\n        /* \"#utility.yul\":12086:12139   */\n      tag_144\n      jump\t// in\n    tag_324:\n        /* \"#utility.yul\":12076:12139   */\n      swap2\n      pop\n        /* \"#utility.yul\":12031:12149   */\n      pop\n        /* \"#utility.yul\":11682:12156   */\n      swap3\n      pop\n      swap3\n      swap1\n      pop\n      jump\t// out\n        /* \"#utility.yul\":12162:12342   */\n    tag_175:\n        /* \"#utility.yul\":12210:12287   */\n      0x4e487b7100000000000000000000000000000000000000000000000000000000\n        /* \"#utility.yul\":12207:12208   */\n      0x00\n        /* \"#utility.yul\":12200:12288   */\n      mstore\n        /* \"#utility.yul\":12307:12311   */\n      0x22\n        /* \"#utility.yul\":12304:12305   */\n      0x04\n        /* \"#utility.yul\":12297:12312   */\n      mstore\n        /* \"#utility.yul\":12331:12335   */\n      0x24\n        /* \"#utility.yul\":12328:12329   */\n      0x00\n        /* \"#utility.yul\":12321:12336   */\n      revert\n        /* \"#utility.yul\":12348:12668   */\n    tag_100:\n        /* \"#utility.yul\":12392:12398   */\n      0x00\n        /* \"#utility.yul\":12429:12430   */\n      0x02\n        /* \"#utility.yul\":12423:12427   */\n      dup3\n        /* \"#utility.yul\":12419:12431   */\n      div\n        /* \"#utility.yul\":12409:12431   */\n      swap1\n      pop\n        /* \"#utility.yul\":12476:12477   */\n      0x01\n        /* \"#utility.yul\":12470:12474   */\n      dup3\n        /* \"#utility.yul\":12466:12478   */\n      and\n        /* \"#utility.yul\":12497:12515   */\n      dup1\n        /* \"#utility.yul\":12487:12568   */\n      tag_327\n      jumpi\n        /* \"#utility.yul\":12553:12557   */\n      0x7f\n        /* \"#utility.yul\":12545:12551   */\n      dup3\n        /* \"#utility.yul\":12541:12558   */\n      and\n        /* \"#utility.yul\":12531:12558   */\n      swap2\n      pop\n        /* \"#utility.yul\":12487:12568   */\n    tag_327:\n        /* \"#utility.yul\":12615:12617   */\n      0x20\n        /* \"#utility.yul\":12607:12613   */\n      dup3\n        /* \"#utility.yul\":12604:12618   */\n      lt\n        /* \"#utility.yul\":12584:12602   */\n      dup2\n        /* \"#utility.yul\":12581:12619   */\n      sub\n        /* \"#utility.yul\":12578:12662   */\n      tag_328\n      jumpi\n        /* \"#utility.yul\":12634:12652   */\n      tag_329\n      tag_175\n      jump\t// in\n    tag_329:\n        /* \"#utility.yul\":12578:12662   */\n    tag_328:\n        /* \"#utility.yul\":12399:12668   */\n      pop\n        /* \"#utility.yul\":12348:12668   */\n      swap2\n      swap1\n      pop\n      jump\t// out\n        /* \"#utility.yul\":12674:12815   */\n    tag_176:\n        /* \"#utility.yul\":12723:12727   */\n      0x00\n        /* \"#utility.yul\":12746:12749   */\n      dup2\n        /* \"#utility.yul\":12738:12749   */\n      swap1\n      pop\n        /* \"#utility.yul\":12769:12772   */\n      dup2\n        /* \"#utility.yul\":12766:12767   */\n      0x00\n        /* \"#utility.yul\":12759:12773   */\n      mstore\n        /* \"#utility.yul\":12803:12807   */\n      0x20\n        /* \"#utility.yul\":12800:12801   */\n      0x00\n        /* \"#utility.yul\":12790:12808   */\n      keccak256\n        /* \"#utility.yul\":12782:12808   */\n      swap1\n      pop\n        /* \"#utility.yul\":12674:12815   */\n      swap2\n      swap1\n      pop\n      jump\t// out\n        /* \"#utility.yul\":12845:13676   */\n    tag_177:\n        /* \"#utility.yul\":12930:12933   */\n      0x00\n        /* \"#utility.yul\":12967:12972   */\n      dup2\n        /* \"#utility.yul\":12961:12973   */\n      sload\n        /* \"#utility.yul\":12996:13032   */\n      tag_332\n        /* \"#utility.yul\":13022:13031   */\n      dup2\n        /* \"#utility.yul\":12996:13032   */\n      tag_100\n      jump\t// in\n    tag_332:\n        /* \"#utility.yul\":13048:13119   */\n      tag_333\n        /* \"#utility.yul\":13112:13118   */\n      dup2\n        /* \"#utility.yul\":13107:13110   */\n      dup7\n        /* \"#utility.yul\":13048:13119   */\n      tag_151\n      jump\t// in\n    tag_333:\n        /* \"#utility.yul\":13041:13119   */\n      swap5\n      pop\n        /* \"#utility.yul\":13150:13151   */\n      0x01\n        /* \"#utility.yul\":13139:13148   */\n      dup3\n        /* \"#utility.yul\":13135:13152   */\n      and\n        /* \"#utility.yul\":13166:13167   */\n      0x00\n        /* \"#utility.yul\":13161:13325   */\n      dup2\n      eq\n      tag_335\n      jumpi\n        /* \"#utility.yul\":13339:13340   */\n      0x01\n        /* \"#utility.yul\":13334:13670   */\n      dup2\n      eq\n      tag_336\n      jumpi\n        /* \"#utility.yul\":13128:13670   */\n      jump(tag_334)\n        /* \"#utility.yul\":13161:13325   */\n    tag_335:\n        /* \"#utility.yul\":13245:13249   */\n      0xff\n        /* \"#utility.yul\":13241:13250   */\n      not\n        /* \"#utility.yul\":13230:13239   */\n      dup4\n        /* \"#utility.yul\":13226:13251   */\n      and\n        /* \"#utility.yul\":13221:13224   */\n      dup7\n        /* \"#utility.yul\":13214:13252   */\n      mstore\n        /* \"#utility.yul\":13305:13311   */\n      dup2\n        /* \"#utility.yul\":13298:13312   */\n      iszero\n        /* \"#utility.yul\":13291:13313   */\n      iszero\n        /* \"#utility.yul\":13285:13289   */\n      0x20\n        /* \"#utility.yul\":13281:13314   */\n      mul\n        /* \"#utility.yul\":13276:13279   */\n      dup7\n        /* \"#utility.yul\":13272:13315   */\n      add\n        /* \"#utility.yul\":13265:13315   */\n      swap4\n      pop\n        /* \"#utility.yul\":13161:13325   */\n      jump(tag_334)\n        /* \"#utility.yul\":13334:13670   */\n    tag_336:\n        /* \"#utility.yul\":13401:13439   */\n      tag_337\n        /* \"#utility.yul\":13433:13438   */\n      dup6\n        /* \"#utility.yul\":13401:13439   */\n      tag_176\n      jump\t// in\n    tag_337:\n        /* \"#utility.yul\":13461:13462   */\n      0x00\n        /* \"#utility.yul\":13475:13629   */\n    tag_338:\n        /* \"#utility.yul\":13489:13495   */\n      dup4\n        /* \"#utility.yul\":13486:13487   */\n      dup2\n        /* \"#utility.yul\":13483:13496   */\n      lt\n        /* \"#utility.yul\":13475:13629   */\n      iszero\n      tag_340\n      jumpi\n        /* \"#utility.yul\":13563:13570   */\n      dup2\n        /* \"#utility.yul\":13557:13571   */\n      sload\n        /* \"#utility.yul\":13553:13554   */\n      dup2\n        /* \"#utility.yul\":13548:13551   */\n      dup10\n        /* \"#utility.yul\":13544:13555   */\n      add\n        /* \"#utility.yul\":13537:13572   */\n      mstore\n        /* \"#utility.yul\":13613:13614   */\n      0x01\n        /* \"#utility.yul\":13604:13611   */\n      dup3\n        /* \"#utility.yul\":13600:13615   */\n      add\n        /* \"#utility.yul\":13589:13615   */\n      swap2\n      pop\n        /* \"#utility.yul\":13511:13515   */\n      0x20\n        /* \"#utility.yul\":13508:13509   */\n      dup2\n        /* \"#utility.yul\":13504:13516   */\n      add\n        /* \"#utility.yul\":13499:13516   */\n      swap1\n      pop\n        /* \"#utility.yul\":13475:13629   */\n      jump(tag_338)\n    tag_340:\n        /* \"#utility.yul\":13658:13659   */\n      dup1\n        /* \"#utility.yul\":13653:13656   */\n      dup9\n        /* \"#utility.yul\":13649:13660   */\n      add\n        /* \"#utility.yul\":13642:13660   */\n      swap6\n      pop\n        /* \"#utility.yul\":13341:13670   */\n      pop\n      pop\n        /* \"#utility.yul\":13128:13670   */\n    tag_334:\n      pop\n        /* \"#utility.yul\":12934:13676   */\n      pop\n      pop\n        /* \"#utility.yul\":12845:13676   */\n      swap3\n      swap2\n      pop\n      pop\n      jump\t// out\n        /* \"#utility.yul\":13682:14190   */\n    tag_119:\n        /* \"#utility.yul\":13840:13844   */\n      0x00\n        /* \"#utility.yul\":13878:13880   */\n      0x40\n        /* \"#utility.yul\":13867:13876   */\n      dup3\n        /* \"#utility.yul\":13863:13881   */\n      add\n        /* \"#utility.yul\":13855:13881   */\n      swap1\n      pop\n        /* \"#utility.yul\":13927:13936   */\n      dup2\n        /* \"#utility.yul\":13921:13925   */\n      dup2\n        /* \"#utility.yul\":13917:13937   */\n      sub\n        /* \"#utility.yul\":13913:13914   */\n      0x00\n        /* \"#utility.yul\":13902:13911   */\n      dup4\n        /* \"#utility.yul\":13898:13915   */\n      add\n        /* \"#utility.yul\":13891:13938   */\n      mstore\n        /* \"#utility.yul\":13955:14030   */\n      tag_342\n        /* \"#utility.yul\":14025:14029   */\n      dup2\n        /* \"#utility.yul\":14016:14022   */\n      dup6\n        /* \"#utility.yul\":13955:14030   */\n      tag_177\n      jump\t// in\n    tag_342:\n        /* \"#utility.yul\":13947:14030   */\n      swap1\n      pop\n        /* \"#utility.yul\":14077:14086   */\n      dup2\n        /* \"#utility.yul\":14071:14075   */\n      dup2\n        /* \"#utility.yul\":14067:14087   */\n      sub\n        /* \"#utility.yul\":14062:14064   */\n      0x20\n        /* \"#utility.yul\":14051:14060   */\n      dup4\n        /* \"#utility.yul\":14047:14065   */\n      add\n        /* \"#utility.yul\":14040:14088   */\n      mstore\n        /* \"#utility.yul\":14105:14183   */\n      tag_343\n        /* \"#utility.yul\":14178:14182   */\n      dup2\n        /* \"#utility.yul\":14169:14175   */\n      dup5\n        /* \"#utility.yul\":14105:14183   */\n      tag_158\n      jump\t// in\n    tag_343:\n        /* \"#utility.yul\":14097:14183   */\n      swap1\n      pop\n        /* \"#utility.yul\":13682:14190   */\n      swap4\n      swap3\n      pop\n      pop\n      pop\n      jump\t// out\n        /* \"#utility.yul\":14196:14289   */\n    tag_178:\n        /* \"#utility.yul\":14233:14239   */\n      0x00\n        /* \"#utility.yul\":14280:14282   */\n      0x20\n        /* \"#utility.yul\":14275:14277   */\n      0x1f\n        /* \"#utility.yul\":14268:14273   */\n      dup4\n        /* \"#utility.yul\":14264:14278   */\n      add\n        /* \"#utility.yul\":14260:14283   */\n      div\n        /* \"#utility.yul\":14250:14283   */\n      swap1\n      pop\n        /* \"#utility.yul\":14196:14289   */\n      swap2\n      swap1\n      pop\n      jump\t// out\n        /* \"#utility.yul\":14295:14402   */\n    tag_179:\n        /* \"#utility.yul\":14339:14347   */\n      0x00\n        /* \"#utility.yul\":14389:14394   */\n      dup3\n        /* \"#utility.yul\":14383:14387   */\n      dup3\n        /* \"#utility.yul\":14379:14395   */\n      shl\n        /* \"#utility.yul\":14358:14395   */\n      swap1\n      pop\n        /* \"#utility.yul\":14295:14402   */\n      swap3\n      swap2\n      pop\n      pop\n      jump\t// out\n        /* \"#utility.yul\":14408:14801   */\n    tag_180:\n        /* \"#utility.yul\":14477:14483   */\n      0x00\n        /* \"#utility.yul\":14527:14528   */\n      0x08\n        /* \"#utility.yul\":14515:14525   */\n      dup4\n        /* \"#utility.yul\":14511:14529   */\n      mul\n        /* \"#utility.yul\":14550:14647   */\n      tag_347\n        /* \"#utility.yul\":14580:14646   */\n      0xffffffffffffffffffffffffffffffffffffffffffffffffffffffffffffffff\n        /* \"#utility.yul\":14569:14578   */\n      dup3\n        /* \"#utility.yul\":14550:14647   */\n      tag_179\n      jump\t// in\n    tag_347:\n        /* \"#utility.yul\":14668:14707   */\n      tag_348\n        /* \"#utility.yul\":14698:14706   */\n      dup7\n        /* \"#utility.yul\":14687:14696   */\n      dup4\n        /* \"#utility.yul\":14668:14707   */\n      tag_179\n      jump\t// in\n    tag_348:\n        /* \"#utility.yul\":14656:14707   */\n      swap6\n      pop\n        /* \"#utility.yul\":14740:14744   */\n      dup1\n        /* \"#utility.yul\":14736:14745   */\n      not\n        /* \"#utility.yul\":14729:14734   */\n      dup5\n        /* \"#utility.yul\":14725:14746   */\n      and\n        /* \"#utility.yul\":14716:14746   */\n      swap4\n      pop\n        /* \"#utility.yul\":14789:14793   */\n      dup1\n        /* \"#utility.yul\":14779:14787   */\n      dup7\n        /* \"#utility.yul\":14775:14794   */\n      and\n        /* \"#utility.yul\":14768:14773   */\n      dup5\n        /* \"#utility.yul\":14765:14795   */\n      or\n        /* \"#utility.yul\":14755:14795   */\n      swap3\n      pop\n        /* \"#utility.yul\":14484:14801   */\n      pop\n      pop\n        /* \"#utility.yul\":14408:14801   */\n      swap4\n      swap3\n      pop\n      pop\n      pop\n      jump\t// out\n        /* \"#utility.yul\":14807:14867   */\n    tag_181:\n        /* \"#utility.yul\":14835:14838   */\n      0x00\n        /* \"#utility.yul\":14856:14861   */\n      dup2\n        /* \"#utility.yul\":14849:14861   */\n      swap1\n      pop\n        /* \"#utility.yul\":14807:14867   */\n      swap2\n      swap1\n      pop\n      jump\t// out\n        /* \"#utility.yul\":14873:15015   */\n    tag_182:\n        /* \"#utility.yul\":14923:14932   */\n      0x00\n        /* \"#utility.yul\":14956:15009   */\n      tag_351\n        /* \"#utility.yul\":14974:15008   */\n      tag_352\n        /* \"#utility.yul\":14983:15007   */\n      tag_353\n        /* \"#utility.yul\":15001:15006   */\n      dup5\n        /* \"#utility.yul\":14983:15007   */\n      tag_142\n      jump\t// in\n    tag_353:\n        /* \"#utility.yul\":14974:15008   */\n      tag_181\n      jump\t// in\n    tag_352:\n        /* \"#utility.yul\":14956:15009   */\n      tag_142\n      jump\t// in\n    tag_351:\n        /* \"#utility.yul\":14943:15009   */\n      swap1\n      pop\n        /* \"#utility.yul\":14873:15015   */\n      swap2\n      swap1\n      pop\n      jump\t// out\n        /* \"#utility.yul\":15021:15096   */\n    tag_183:\n        /* \"#utility.yul\":15064:15067   */\n      0x00\n        /* \"#utility.yul\":15085:15090   */\n      dup2\n        /* \"#utility.yul\":15078:15090   */\n      swap1\n      pop\n        /* \"#utility.yul\":15021:15096   */\n      swap2\n      swap1\n      pop\n      jump\t// out\n        /* \"#utility.yul\":15102:15371   */\n    tag_184:\n        /* \"#utility.yul\":15212:15251   */\n      tag_356\n        /* \"#utility.yul\":15243:15250   */\n      dup4\n        /* \"#utility.yul\":15212:15251   */\n      tag_182\n      jump\t// in\n    tag_356:\n        /* \"#utility.yul\":15273:15364   */\n      tag_357\n        /* \"#utility.yul\":15322:15363   */\n      tag_358\n        /* \"#utility.yul\":15346:15362   */\n      dup3\n        /* \"#utility.yul\":15322:15363   */\n      tag_183\n      jump\t// in\n    tag_358:\n        /* \"#utility.yul\":15314:15320   */\n      dup5\n        /* \"#utility.yul\":15307:15311   */\n      dup5\n        /* \"#utility.yul\":15301:15312   */\n      sload\n        /* \"#utility.yul\":15273:15364   */\n      tag_180\n      jump\t// in\n    tag_357:\n        /* \"#utility.yul\":15267:15271   */\n      dup3\n        /* \"#utility.yul\":15260:15365   */\n      sstore\n        /* \"#utility.yul\":15178:15371   */\n      pop\n        /* \"#utility.yul\":15102:15371   */\n      pop\n      pop\n      pop\n      jump\t// out\n        /* \"#utility.yul\":15377:15450   */\n    tag_185:\n        /* \"#utility.yul\":15422:15425   */\n      0x00\n        /* \"#utility.yul\":15443:15444   */\n      0x00\n        /* \"#utility.yul\":15436:15444   */\n      swap1\n      pop\n        /* \"#utility.yul\":15377:15450   */\n      swap1\n      jump\t// out\n        /* \"#utility.yul\":15456:15645   */\n    tag_186:\n        /* \"#utility.yul\":15533:15565   */\n      tag_361\n      tag_185\n      jump\t// in\n    tag_361:\n        /* \"#utility.yul\":15574:15639   */\n      tag_362\n        /* \"#utility.yul\":15632:15638   */\n      dup2\n        /* \"#utility.yul\":15624:15630   */\n      dup5\n        /* \"#utility.yul\":15618:15622   */\n      dup5\n        /* \"#utility.yul\":15574:15639   */\n      tag_184\n      jump\t// in\n    tag_362:\n        /* \"#utility.yul\":15509:15645   */\n      pop\n        /* \"#utility.yul\":15456:15645   */\n      pop\n      pop\n      jump\t// out\n        /* \"#utility.yul\":15651:15837   */\n    tag_187:\n        /* \"#utility.yul\":15711:15831   */\n    tag_364:\n        /* \"#utility.yul\":15728:15731   */\n      dup2\n        /* \"#utility.yul\":15721:15726   */\n      dup2\n        /* \"#utility.yul\":15718:15732   */\n      lt\n        /* \"#utility.yul\":15711:15831   */\n      iszero\n      tag_366\n      jumpi\n        /* \"#utility.yul\":15782:15821   */\n      tag_367\n        /* \"#utility.yul\":15819:15820   */\n      0x00\n        /* \"#utility.yul\":15812:15817   */\n      dup3\n        /* \"#utility.yul\":15782:15821   */\n      tag_186\n      jump\t// in\n    tag_367:\n        /* \"#utility.yul\":15755:15756   */\n      0x01\n        /* \"#utility.yul\":15748:15753   */\n      dup2\n        /* \"#utility.yul\":15744:15757   */\n      add\n        /* \"#utility.yul\":15735:15757   */\n      swap1\n      pop\n        /* \"#utility.yul\":15711:15831   */\n      jump(tag_364)\n    tag_366:\n        /* \"#utility.yul\":15651:15837   */\n      pop\n      pop\n      jump\t// out\n        /* \"#utility.yul\":15843:16386   */\n    tag_188:\n        /* \"#utility.yul\":15944:15946   */\n      0x1f\n        /* \"#utility.yul\":15939:15942   */\n      dup3\n        /* \"#utility.yul\":15936:15947   */\n      gt\n        /* \"#utility.yul\":15933:16379   */\n      iszero\n      tag_369\n      jumpi\n        /* \"#utility.yul\":15978:16016   */\n      tag_370\n        /* \"#utility.yul\":16010:16015   */\n      dup2\n        /* \"#utility.yul\":15978:16016   */\n      tag_176\n      jump\t// in\n    tag_370:\n        /* \"#utility.yul\":16062:16091   */\n      tag_371\n        /* \"#utility.yul\":16080:16090   */\n      dup5\n        /* \"#utility.yul\":16062:16091   */\n      tag_178\n      jump\t// in\n    tag_371:\n        /* \"#utility.yul\":16052:16060   */\n      dup2\n        /* \"#utility.yul\":16048:16092   */\n      add\n        /* \"#utility.yul\":16245:16247   */\n      0x20\n        /* \"#utility.yul\":16233:16243   */\n      dup6\n        /* \"#utility.yul\":16230:16248   */\n      lt\n        /* \"#utility.yul\":16227:16276   */\n      iszero\n      tag_372\n      jumpi\n        /* \"#utility.yul\":16266:16274   */\n      dup2\n        /* \"#utility.yul\":16251:16274   */\n      swap1\n      pop\n        /* \"#utility.yul\":16227:16276   */\n    tag_372:\n        /* \"#utility.yul\":16289:16369   */\n      tag_373\n        /* \"#utility.yul\":16345:16367   */\n      tag_374\n        /* \"#utility.yul\":16363:16366   */\n      dup6\n        /* \"#utility.yul\":16345:16367   */\n      tag_178\n      jump\t// in\n    tag_374:\n        /* \"#utility.yul\":16335:16343   */\n      dup4\n        /* \"#utility.yul\":16331:16368   */\n      add\n        /* \"#utility.yul\":16318:16329   */\n      dup3\n        /* \"#utility.yul\":16289:16369   */\n      tag_187\n      jump\t// in\n    tag_373:\n        /* \"#utility.yul\":15948:16379   */\n      pop\n      pop\n        /* \"#utility.yul\":15933:16379   */\n    tag_369:\n        /* \"#utility.yul\":15843:16386   */\n      pop\n      pop\n      pop\n      jump\t// out\n        /* \"#utility.yul\":16392:16509   */\n    tag_189:\n        /* \"#utility.yul\":16446:16454   */\n      0x00\n        /* \"#utility.yul\":16496:16501   */\n      dup3\n        /* \"#utility.yul\":16490:16494   */\n      dup3\n        /* \"#utility.yul\":16486:16502   */\n      shr\n        /* \"#utility.yul\":16465:16502   */\n      swap1\n      pop\n        /* \"#utility.yul\":16392:16509   */\n      swap3\n      swap2\n      pop\n      pop\n      jump\t// out\n        /* \"#utility.yul\":16515:16684   */\n    tag_190:\n        /* \"#utility.yul\":16559:16565   */\n      0x00\n        /* \"#utility.yul\":16592:16643   */\n      tag_377\n        /* \"#utility.yul\":16640:16641   */\n      0x00\n        /* \"#utility.yul\":16636:16642   */\n      not\n        /* \"#utility.yul\":16628:16633   */\n      dup5\n        /* \"#utility.yul\":16625:16626   */\n      0x08\n        /* \"#utility.yul\":16621:16634   */\n      mul\n        /* \"#utility.yul\":16592:16643   */\n      tag_189\n      jump\t// in\n    tag_377:\n        /* \"#utility.yul\":16588:16644   */\n      not\n        /* \"#utility.yul\":16673:16677   */\n      dup1\n        /* \"#utility.yul\":16667:16671   */\n      dup4\n        /* \"#utility.yul\":16663:16678   */\n      and\n        /* \"#utility.yul\":16653:16678   */\n      swap2\n      pop\n        /* \"#utility.yul\":16566:16684   */\n      pop\n        /* \"#utility.yul\":16515:16684   */\n      swap3\n      swap2\n      pop\n      pop\n      jump\t// out\n        /* \"#utility.yul\":16689:16984   */\n    tag_191:\n        /* \"#utility.yul\":16765:16769   */\n      0x00\n        /* \"#utility.yul\":16911:16940   */\n      tag_379\n        /* \"#utility.yul\":16936:16939   */\n      dup4\n        /* \"#utility.yul\":16930:16934   */\n      dup4\n        /* \"#utility.yul\":16911:16940   */\n      tag_190\n      jump\t// in\n    tag_379:\n        /* \"#utility.yul\":16903:16940   */\n      swap2\n      pop\n        /* \"#utility.yul\":16973:16976   */\n      dup3\n        /* \"#utility.yul\":16970:16971   */\n      0x02\n        /* \"#utility.yul\":16966:16977   */\n      mul\n        /* \"#utility.yul\":16960:16964   */\n      dup3\n        /* \"#utility.yul\":16957:16978   */\n      or\n        /* \"#utility.yul\":16949:16978   */\n      swap1\n      pop\n        /* \"#utility.yul\":16689:16984   */\n      swap3\n      swap2\n      pop\n      pop\n      jump\t// out\n        /* \"#utility.yul\":16989:18384   */\n    tag_121:\n        /* \"#utility.yul\":17106:17143   */\n      tag_381\n        /* \"#utility.yul\":17139:17142   */\n      dup3\n        /* \"#utility.yul\":17106:17143   */\n      tag_156\n      jump\t// in\n    tag_381:\n        /* \"#utility.yul\":17208:17226   */\n      0xffffffffffffffff\n        /* \"#utility.yul\":17200:17206   */\n      dup2\n        /* \"#utility.yul\":17197:17227   */\n      gt\n        /* \"#utility.yul\":17194:17250   */\n      iszero\n      tag_382\n      jumpi\n        /* \"#utility.yul\":17230:17248   */\n      tag_383\n      tag_166\n      jump\t// in\n    tag_383:\n        /* \"#utility.yul\":17194:17250   */\n    tag_382:\n        /* \"#utility.yul\":17274:17312   */\n      tag_384\n        /* \"#utility.yul\":17306:17310   */\n      dup3\n        /* \"#utility.yul\":17300:17311   */\n      sload\n        /* \"#utility.yul\":17274:17312   */\n      tag_100\n      jump\t// in\n    tag_384:\n        /* \"#utility.yul\":17359:17426   */\n      tag_385\n        /* \"#utility.yul\":17419:17425   */\n      dup3\n        /* \"#utility.yul\":17411:17417   */\n      dup3\n        /* \"#utility.yul\":17405:17409   */\n      dup6\n        /* \"#utility.yul\":17359:17426   */\n      tag_188\n      jump\t// in\n    tag_385:\n        /* \"#utility.yul\":17453:17454   */\n      0x00\n        /* \"#utility.yul\":17477:17481   */\n      0x20\n        /* \"#utility.yul\":17464:17481   */\n      swap1\n      pop\n        /* \"#utility.yul\":17509:17511   */\n      0x1f\n        /* \"#utility.yul\":17501:17507   */\n      dup4\n        /* \"#utility.yul\":17498:17512   */\n      gt\n        /* \"#utility.yul\":17526:17527   */\n      0x01\n        /* \"#utility.yul\":17521:18139   */\n      dup2\n      eq\n      tag_387\n      jumpi\n        /* \"#utility.yul\":18183:18184   */\n      0x00\n        /* \"#utility.yul\":18200:18206   */\n      dup5\n        /* \"#utility.yul\":18197:18274   */\n      iszero\n      tag_388\n      jumpi\n        /* \"#utility.yul\":18249:18258   */\n      dup3\n        /* \"#utility.yul\":18244:18247   */\n      dup8\n        /* \"#utility.yul\":18240:18259   */\n      add\n        /* \"#utility.yul\":18234:18260   */\n      mload\n        /* \"#utility.yul\":18225:18260   */\n      swap1\n      pop\n        /* \"#utility.yul\":18197:18274   */\n    tag_388:\n        /* \"#utility.yul\":18300:18367   */\n      tag_389\n        /* \"#utility.yul\":18360:18366   */\n      dup6\n        /* \"#utility.yul\":18353:18358   */\n      dup3\n        /* \"#utility.yul\":18300:18367   */\n      tag_191\n      jump\t// in\n    tag_389:\n        /* \"#utility.yul\":18294:18298   */\n      dup7\n        /* \"#utility.yul\":18287:18368   */\n      sstore\n        /* \"#utility.yul\":18156:18378   */\n      pop\n        /* \"#utility.yul\":17491:18378   */\n      jump(tag_386)\n        /* \"#utility.yul\":17521:18139   */\n    tag_387:\n        /* \"#utility.yul\":17573:17577   */\n      0x1f\n        /* \"#utility.yul\":17569:17578   */\n      not\n        /* \"#utility.yul\":17561:17567   */\n      dup5\n        /* \"#utility.yul\":17557:17579   */\n      and\n        /* \"#utility.yul\":17607:17644   */\n      tag_390\n        /* \"#utility.yul\":17639:17643   */\n      dup7\n        /* \"#utility.yul\":17607:17644   */\n      tag_176\n      jump\t// in\n    tag_390:\n        /* \"#utility.yul\":17666:17667   */\n      0x00\n        /* \"#utility.yul\":17680:17888   */\n    tag_391:\n        /* \"#utility.yul\":17694:17701   */\n      dup3\n        /* \"#utility.yul\":17691:17692   */\n      dup2\n        /* \"#utility.yul\":17688:17702   */\n      lt\n        /* \"#utility.yul\":17680:17888   */\n      iszero\n      tag_393\n      jumpi\n        /* \"#utility.yul\":17773:17782   */\n      dup5\n        /* \"#utility.yul\":17768:17771   */\n      dup10\n        /* \"#utility.yul\":17764:17783   */\n      add\n        /* \"#utility.yul\":17758:17784   */\n      mload\n        /* \"#utility.yul\":17750:17756   */\n      dup3\n        /* \"#utility.yul\":17743:17785   */\n      sstore\n        /* \"#utility.yul\":17824:17825   */\n      0x01\n        /* \"#utility.yul\":17816:17822   */\n      dup3\n        /* \"#utility.yul\":17812:17826   */\n      add\n        /* \"#utility.yul\":17802:17826   */\n      swap2\n      pop\n        /* \"#utility.yul\":17871:17873   */\n      0x20\n        /* \"#utility.yul\":17860:17869   */\n      dup6\n        /* \"#utility.yul\":17856:17874   */\n      add\n        /* \"#utility.yul\":17843:17874   */\n      swap5\n      pop\n        /* \"#utility.yul\":17717:17721   */\n      0x20\n        /* \"#utility.yul\":17714:17715   */\n      dup2\n        /* \"#utility.yul\":17710:17722   */\n      add\n        /* \"#utility.yul\":17705:17722   */\n      swap1\n      pop\n        /* \"#utility.yul\":17680:17888   */\n      jump(tag_391)\n    tag_393:\n        /* \"#utility.yul\":17916:17922   */\n      dup7\n        /* \"#utility.yul\":17907:17914   */\n      dup4\n        /* \"#utility.yul\":17904:17923   */\n      lt\n        /* \"#utility.yul\":17901:18080   */\n      iszero\n      tag_394\n      jumpi\n        /* \"#utility.yul\":17974:17983   */\n      dup5\n        /* \"#utility.yul\":17969:17972   */\n      dup10\n        /* \"#utility.yul\":17965:17984   */\n      add\n        /* \"#utility.yul\":17959:17985   */\n      mload\n        /* \"#utility.yul\":18017:18065   */\n      tag_395\n        /* \"#utility.yul\":18059:18063   */\n      0x1f\n        /* \"#utility.yul\":18051:18057   */\n      dup10\n        /* \"#utility.yul\":18047:18064   */\n      and\n        /* \"#utility.yul\":18036:18045   */\n      dup3\n        /* \"#utility.yul\":18017:18065   */\n      tag_190\n      jump\t// in\n    tag_395:\n        /* \"#utility.yul\":18009:18015   */\n      dup4\n        /* \"#utility.yul\":18002:18066   */\n      sstore\n        /* \"#utility.yul\":17924:18080   */\n      pop\n        /* \"#utility.yul\":17901:18080   */\n    tag_394:\n        /* \"#utility.yul\":18126:18127   */\n      0x01\n        /* \"#utility.yul\":18122:18123   */\n      0x02\n        /* \"#utility.yul\":18114:18120   */\n      dup9\n        /* \"#utility.yul\":18110:18124   */\n      mul\n        /* \"#utility.yul\":18106:18128   */\n      add\n        /* \"#utility.yul\":18100:18104   */\n      dup9\n        /* \"#utility.yul\":18093:18129   */\n      sstore\n        /* \"#utility.yul\":17528:18139   */\n      pop\n      pop\n      pop\n        /* \"#utility.yul\":17491:18378   */\n    tag_386:\n      pop\n        /* \"#utility.yul\":17081:18384   */\n      pop\n      pop\n      pop\n        /* \"#utility.yul\":16989:18384   */\n      pop\n      pop\n      jump\t// out\n        /* \"#utility.yul\":18390:18570   */\n    tag_134:\n        /* \"#utility.yul\":18438:18515   */\n      0x4e487b7100000000000000000000000000000000000000000000000000000000\n        /* \"#utility.yul\":18435:18436   */\n      0x00\n        /* \"#utility.yul\":18428:18516   */\n      mstore\n        /* \"#utility.yul\":18535:18539   */\n      0x32\n        /* \"#utility.yul\":18532:18533   */\n      0x04\n        /* \"#utility.yul\":18525:18540   */\n      mstore\n        /* \"#utility.yul\":18559:18563   */\n      0x24\n        /* \"#utility.yul\":18556:18557   */\n      0x00\n        /* \"#utility.yul\":18549:18564   */\n      revert\n        /* \"#utility.yul\":18576:18756   */\n    tag_192:\n        /* \"#utility.yul\":18624:18701   */\n      0x4e487b7100000000000000000000000000000000000000000000000000000000\n        /* \"#utility.yul\":18621:18622   */\n      0x00\n        /* \"#utility.yul\":18614:18702   */\n      mstore\n        /* \"#utility.yul\":18721:18725   */\n      0x11\n        /* \"#utility.yul\":18718:18719   */\n      0x04\n        /* \"#utility.yul\":18711:18726   */\n      mstore\n        /* \"#utility.yul\":18745:18749   */\n      0x24\n        /* \"#utility.yul\":18742:18743   */\n      0x00\n        /* \"#utility.yul\":18735:18750   */\n      revert\n        /* \"#utility.yul\":18762:18953   */\n    tag_136:\n        /* \"#utility.yul\":18802:18805   */\n      0x00\n        /* \"#utility.yul\":18821:18841   */\n      tag_399\n        /* \"#utility.yul\":18839:18840   */\n      dup3\n        /* \"#utility.yul\":18821:18841   */\n      tag_142\n      jump\t// in\n    tag_399:\n        /* \"#utility.yul\":18816:18841   */\n      swap2\n      pop\n        /* \"#utility.yul\":18855:18875   */\n      tag_400\n        /* \"#utility.yul\":18873:18874   */\n      dup4\n        /* \"#utility.yul\":18855:18875   */\n      tag_142\n      jump\t// in\n    tag_400:\n        /* \"#utility.yul\":18850:18875   */\n      swap3\n      pop\n        /* \"#utility.yul\":18898:18899   */\n      dup3\n        /* \"#utility.yul\":18895:18896   */\n      dup3\n        /* \"#utility.yul\":18891:18900   */\n      add\n        /* \"#utility.yul\":18884:18900   */\n      swap1\n      pop\n        /* \"#utility.yul\":18919:18922   */\n      dup1\n        /* \"#utility.yul\":18916:18917   */\n      dup3\n        /* \"#utility.yul\":18913:18923   */\n      gt\n        /* \"#utility.yul\":18910:18946   */\n      iszero\n      tag_401\n      jumpi\n        /* \"#utility.yul\":18926:18944   */\n      tag_402\n      tag_192\n      jump\t// in\n    tag_402:\n        /* \"#utility.yul\":18910:18946   */\n    tag_401:\n        /* \"#utility.yul\":18762:18953   */\n      swap3\n      swap2\n      pop\n      pop\n      jump\t// out\n\n    auxdata: 0xa26469706673582212206c0f2e8b151d2bf83590561a6bf4d5ec15b9900d6943ca852eb5f1a144cdd41164736f6c634300081e0033\n}\n",
				"bytecode": {
					"linkReferences": {},
					"object": "60806040526040518060400160405280600f81526020017f537961696420416c6661726973686900000000000000000000000000000000008152505f908161004791906103a8565b5060146001556040518060400160405280600581526020017f48656c6c6f0000000000000000000000000000000000000000000000000000008152506002908161009191906104cf565b5060405180604001604052806040518060400160405280600581526020017f53796169640000000000000000000000000000000000000000000000000000008152508152602001601481525060045f820151815f0190816100f291906103a8565b50602082015181600101555050600160065f6101000a81548160ff021916908315150217905550348015610124575f5ffd5b5033600660016101000a81548173ffffffffffffffffffffffffffffffffffffffff021916908373ffffffffffffffffffffffffffffffffffffffff16021790555061059e565b5f81519050919050565b7f4e487b71000000000000000000000000000000000000000000000000000000005f52604160045260245ffd5b7f4e487b71000000000000000000000000000000000000000000000000000000005f52602260045260245ffd5b5f60028204905060018216806101e657607f821691505b6020821081036101f9576101f86101a2565b5b50919050565b5f819050815f5260205f209050919050565b5f6020601f8301049050919050565b5f82821b905092915050565b5f6008830261025b7fffffffffffffffffffffffffffffffffffffffffffffffffffffffffffffffff82610220565b6102658683610220565b95508019841693508086168417925050509392505050565b5f819050919050565b5f819050919050565b5f6102a96102a461029f8461027d565b610286565b61027d565b9050919050565b5f819050919050565b6102c28361028f565b6102d66102ce826102b0565b84845461022c565b825550505050565b5f5f905090565b6102ed6102de565b6102f88184846102b9565b505050565b5b8181101561031b576103105f826102e5565b6001810190506102fe565b5050565b601f82111561036057610331816101ff565b61033a84610211565b81016020851015610349578190505b61035d61035585610211565b8301826102fd565b50505b505050565b5f82821c905092915050565b5f6103805f1984600802610365565b1980831691505092915050565b5f6103988383610371565b9150826002028217905092915050565b6103b18261016b565b67ffffffffffffffff8111156103ca576103c9610175565b5b6103d482546101cf565b6103df82828561031f565b5f60209050601f831160018114610410575f84156103fe578287015190505b610408858261038d565b86555061046f565b601f19841661041e866101ff565b5f5b8281101561044557848901518255600182019150602085019450602081019050610420565b86831015610462578489015161045e601f891682610371565b8355505b6001600288020188555050505b505050505050565b5f819050815f5260205f209050919050565b601f8211156104ca5761049b81610477565b6104a484610211565b810160208510156104b3578190505b6104c76104bf85610211565b8301826102fd565b50505b505050565b6104d88261016b565b67ffffffffffffffff8111156104f1576104f0610175565b5b6104fb82546101cf565b610506828285610489565b5f60209050601f831160018114610537575f8415610525578287015190505b61052f858261038d565b865550610596565b601f19841661054586610477565b5f5b8281101561056c57848901518255600182019150602085019450602081019050610547565b868310156105895784890151610585601f891682610371565b8355505b6001600288020188555050505b505050505050565b61115c806105ab5f395ff3fe6080604052600436106100e7575f3560e01c806373a38cb311610089578063c4a759d211610058578063c4a759d2146102da578063d0de3f63146102e4578063d78fb1171461030f578063f604bf571461034b576100e7565b806373a38cb3146102225780639a9bdca71461024c578063a50bbe1b14610288578063b503ba35146102b2576100e7565b80633a32b549116100c55780633a32b5491461017a57806346a3967b146101a457806364f0dbab146101ce5780636ebcd2c2146101f8576100e7565b8063055c4299146100eb578063200d2ed21461011357806329247dc11461013d575b5f5ffd5b3480156100f6575f5ffd5b50610111600480360381019061010c919061075b565b610387565b005b34801561011e575f5ffd5b506101276103b0565b60405161013491906107a0565b60405180910390f35b348015610148575f5ffd5b50610163600480360381019061015e919061081a565b6103c2565b6040516101719291906108bf565b60405180910390f35b348015610185575f5ffd5b5061018e6103d1565b60405161019b91906108f0565b60405180910390f35b3480156101af575f5ffd5b506101b86103da565b6040516101c59190610959565b60405180910390f35b3480156101d9575f5ffd5b506101e2610469565b6040516101ef91906109cb565b60405180910390f35b348015610203575f5ffd5b5061020c6104f5565b6040516102199190610a2a565b60405180910390f35b34801561022d575f5ffd5b5061023661051b565b60405161024391906108f0565b60405180910390f35b348015610257575f5ffd5b50610272600480360381019061026d919061075b565b610521565b60405161027f91906108f0565b60405180910390f35b348015610293575f5ffd5b5061029c610541565b6040516102a99190610959565b60405180910390f35b3480156102bd575f5ffd5b506102d860048036038101906102d39190610b5d565b6105cc565b005b6102e2610617565b005b3480156102ef575f5ffd5b506102f8610619565b604051610306929190610ba4565b60405180910390f35b34801561031a575f5ffd5b5061033560048036038101906103309190610c92565b6106b0565b60405161034291906108f0565b60405180910390f35b348015610356575f5ffd5b50610371600480360381019061036c9190610cd9565b610702565b60405161037e91906108f0565b60405180910390f35b600381908060018154018082558091505060019003905f5260205f20015f909190919091505550565b60065f9054906101000a900460ff1681565b365f8383915091509250929050565b5f600154905090565b60605f80546103e890610d44565b80601f016020809104026020016040519081016040528092919081815260200182805461041490610d44565b801561045f5780601f106104365761010080835404028352916020019161045f565b820191905f5260205f20905b81548152906001019060200180831161044257829003601f168201915b5050505050905090565b6002805461047690610d44565b80601f01602080910402602001604051908101604052809291908181526020018280546104a290610d44565b80156104ed5780601f106104c4576101008083540402835291602001916104ed565b820191905f5260205f20905b8154815290600101906020018083116104d057829003601f168201915b505050505081565b600660019054906101000a900473ffffffffffffffffffffffffffffffffffffffff1681565b60015481565b60038181548110610530575f80fd5b905f5260205f20015f915090505481565b5f805461054d90610d44565b80601f016020809104026020016040519081016040528092919081815260200182805461057990610d44565b80156105c45780601f1061059b576101008083540402835291602001916105c4565b820191905f5260205f20905b8154815290600101906020018083116105a757829003601f168201915b505050505081565b7f4f32db05c99c0d38e62671412e40c827769bb9db84ab494d5935422b9d89c1945f826040516105fd929190610e07565b60405180910390a1805f90816106139190610fca565b5050565b565b6004805f01805461062990610d44565b80601f016020809104026020016040519081016040528092919081815260200182805461065590610d44565b80156106a05780601f10610677576101008083540402835291602001916106a0565b820191905f5260205f20905b81548152906001019060200180831161068357829003601f168201915b5050505050908060010154905082565b5f5f5f90505f5f90505b83518110156106f8578381815181106106d6576106d5611099565b5b6020026020010151826106e991906110f3565b915080806001019150506106ba565b5080915050919050565b5f818361070f91906110f3565b905092915050565b5f604051905090565b5f5ffd5b5f5ffd5b5f819050919050565b61073a81610728565b8114610744575f5ffd5b50565b5f8135905061075581610731565b92915050565b5f602082840312156107705761076f610720565b5b5f61077d84828501610747565b91505092915050565b5f8115159050919050565b61079a81610786565b82525050565b5f6020820190506107b35f830184610791565b92915050565b5f5ffd5b5f5ffd5b5f5ffd5b5f5f83601f8401126107da576107d96107b9565b5b8235905067ffffffffffffffff8111156107f7576107f66107bd565b5b602083019150836001820283011115610813576108126107c1565b5b9250929050565b5f5f602083850312156108305761082f610720565b5b5f83013567ffffffffffffffff81111561084d5761084c610724565b5b610859858286016107c5565b92509250509250929050565b5f82825260208201905092915050565b828183375f83830152505050565b5f601f19601f8301169050919050565b5f61089e8385610865565b93506108ab838584610875565b6108b483610883565b840190509392505050565b5f6020820190508181035f8301526108d8818486610893565b90509392505050565b6108ea81610728565b82525050565b5f6020820190506109035f8301846108e1565b92915050565b5f81519050919050565b8281835e5f83830152505050565b5f61092b82610909565b6109358185610865565b9350610945818560208601610913565b61094e81610883565b840191505092915050565b5f6020820190508181035f8301526109718184610921565b905092915050565b5f81519050919050565b5f82825260208201905092915050565b5f61099d82610979565b6109a78185610983565b93506109b7818560208601610913565b6109c081610883565b840191505092915050565b5f6020820190508181035f8301526109e38184610993565b905092915050565b5f73ffffffffffffffffffffffffffffffffffffffff82169050919050565b5f610a14826109eb565b9050919050565b610a2481610a0a565b82525050565b5f602082019050610a3d5f830184610a1b565b92915050565b5f5ffd5b7f4e487b71000000000000000000000000000000000000000000000000000000005f52604160045260245ffd5b610a7d82610883565b810181811067ffffffffffffffff82111715610a9c57610a9b610a47565b5b80604052505050565b5f610aae610717565b9050610aba8282610a74565b919050565b5f67ffffffffffffffff821115610ad957610ad8610a47565b5b610ae282610883565b9050602081019050919050565b5f610b01610afc84610abf565b610aa5565b905082815260208101848484011115610b1d57610b1c610a43565b5b610b28848285610875565b509392505050565b5f82601f830112610b4457610b436107b9565b5b8135610b54848260208601610aef565b91505092915050565b5f60208284031215610b7257610b71610720565b5b5f82013567ffffffffffffffff811115610b8f57610b8e610724565b5b610b9b84828501610b30565b91505092915050565b5f6040820190508181035f830152610bbc8185610921565b9050610bcb60208301846108e1565b9392505050565b5f67ffffffffffffffff821115610bec57610beb610a47565b5b602082029050602081019050919050565b5f610c0f610c0a84610bd2565b610aa5565b90508083825260208201905060208402830185811115610c3257610c316107c1565b5b835b81811015610c5b5780610c478882610747565b845260208401935050602081019050610c34565b5050509392505050565b5f82601f830112610c7957610c786107b9565b5b8135610c89848260208601610bfd565b91505092915050565b5f60208284031215610ca757610ca6610720565b5b5f82013567ffffffffffffffff811115610cc457610cc3610724565b5b610cd084828501610c65565b91505092915050565b5f5f60408385031215610cef57610cee610720565b5b5f610cfc85828601610747565b9250506020610d0d85828601610747565b9150509250929050565b7f4e487b71000000000000000000000000000000000000000000000000000000005f52602260045260245ffd5b5f6002820490506001821680610d5b57607f821691505b602082108103610d6e57610d6d610d17565b5b50919050565b5f819050815f5260205f209050919050565b5f8154610d9281610d44565b610d9c8186610865565b9450600182165f8114610db65760018114610dcc57610dfe565b60ff198316865281151560200286019350610dfe565b610dd585610d74565b5f5b83811015610df657815481890152600182019150602081019050610dd7565b808801955050505b50505092915050565b5f6040820190508181035f830152610e1f8185610d86565b90508181036020830152610e338184610921565b90509392505050565b5f6020601f8301049050919050565b5f82821b905092915050565b5f60088302610e867fffffffffffffffffffffffffffffffffffffffffffffffffffffffffffffffff82610e4b565b610e908683610e4b565b95508019841693508086168417925050509392505050565b5f819050919050565b5f610ecb610ec6610ec184610728565b610ea8565b610728565b9050919050565b5f819050919050565b610ee483610eb1565b610ef8610ef082610ed2565b848454610e57565b825550505050565b5f5f905090565b610f0f610f00565b610f1a818484610edb565b505050565b5b81811015610f3d57610f325f82610f07565b600181019050610f20565b5050565b601f821115610f8257610f5381610d74565b610f5c84610e3c565b81016020851015610f6b578190505b610f7f610f7785610e3c565b830182610f1f565b50505b505050565b5f82821c905092915050565b5f610fa25f1984600802610f87565b1980831691505092915050565b5f610fba8383610f93565b9150826002028217905092915050565b610fd382610909565b67ffffffffffffffff811115610fec57610feb610a47565b5b610ff68254610d44565b611001828285610f41565b5f60209050601f831160018114611032575f8415611020578287015190505b61102a8582610faf565b865550611091565b601f19841661104086610d74565b5f5b8281101561106757848901518255600182019150602085019450602081019050611042565b868310156110845784890151611080601f891682610f93565b8355505b6001600288020188555050505b505050505050565b7f4e487b71000000000000000000000000000000000000000000000000000000005f52603260045260245ffd5b7f4e487b71000000000000000000000000000000000000000000000000000000005f52601160045260245ffd5b5f6110fd82610728565b915061110883610728565b92508282019050808211156111205761111f6110c6565b5b9291505056fea26469706673582212206c0f2e8b151d2bf83590561a6bf4d5ec15b9900d6943ca852eb5f1a144cdd41164736f6c634300081e0033",
					"opcodes": "PUSH1 0x80 PUSH1 0x40 MSTORE PUSH1 0x40 MLOAD DUP1 PUSH1 0x40 ADD PUSH1 0x40 MSTORE DUP1 PUSH1 0xF DUP2 MSTORE PUSH1 0x20 ADD PUSH32 0x537961696420416C666172697368690000000000000000000000000000000000 DUP2 MSTORE POP PUSH0 SWAP1 DUP2 PUSH2 0x47 SWAP2 SWAP1 PUSH2 0x3A8 JUMP JUMPDEST POP PUSH1 0x14 PUSH1 0x1 SSTORE PUSH1 0x40 MLOAD DUP1 PUSH1 0x40 ADD PUSH1 0x40 MSTORE DUP1 PUSH1 0x5 DUP2 MSTORE PUSH1 0x20 ADD PUSH32 0x48656C6C6F000000000000000000000000000000000000000000000000000000 DUP2 MSTORE POP PUSH1 0x2 SWAP1 DUP2 PUSH2 0x91 SWAP2 SWAP1 PUSH2 0x4CF JUMP JUMPDEST POP PUSH1 0x40 MLOAD DUP1 PUSH1 0x40 ADD PUSH1 0x40 MSTORE DUP1 PUSH1 0x40 MLOAD DUP1 PUSH1 0x40 ADD PUSH1 0x40 MSTORE DUP1 PUSH1 0x5 DUP2 MSTORE PUSH1 0x20 ADD PUSH32 0x5379616964000000000000000000000000000000000000000000000000000000 DUP2 MSTORE POP DUP2 MSTORE PUSH1 0x20 ADD PUSH1 0x14 DUP2 MSTORE POP PUSH1 0x4 PUSH0 DUP3 ADD MLOAD DUP2 PUSH0 ADD SWAP1 DUP2 PUSH2 0xF2 SWAP2 SWAP1 PUSH2 0x3A8 JUMP JUMPDEST POP PUSH1 0x20 DUP3 ADD MLOAD DUP2 PUSH1 0x1 ADD SSTORE POP POP PUSH1 0x1 PUSH1 0x6 PUSH0 PUSH2 0x100 EXP DUP2 SLOAD DUP2 PUSH1 0xFF MUL NOT AND SWAP1 DUP4 ISZERO ISZERO MUL OR SWAP1 SSTORE POP CALLVALUE DUP1 ISZERO PUSH2 0x124 JUMPI PUSH0 PUSH0 REVERT JUMPDEST POP CALLER PUSH1 0x6 PUSH1 0x1 PUSH2 0x100 EXP DUP2 SLOAD DUP2 PUSH20 0xFFFFFFFFFFFFFFFFFFFFFFFFFFFFFFFFFFFFFFFF MUL NOT AND SWAP1 DUP4 PUSH20 0xFFFFFFFFFFFFFFFFFFFFFFFFFFFFFFFFFFFFFFFF AND MUL OR SWAP1 SSTORE POP PUSH2 0x59E JUMP JUMPDEST PUSH0 DUP2 MLOAD SWAP1 POP SWAP2 SWAP1 POP JUMP JUMPDEST PUSH32 0x4E487B7100000000000000000000000000000000000000000000000000000000 PUSH0 MSTORE PUSH1 0x41 PUSH1 0x4 MSTORE PUSH1 0x24 PUSH0 REVERT JUMPDEST PUSH32 0x4E487B7100000000000000000000000000000000000000000000000000000000 PUSH0 MSTORE PUSH1 0x22 PUSH1 0x4 MSTORE PUSH1 0x24 PUSH0 REVERT JUMPDEST PUSH0 PUSH1 0x2 DUP3 DIV SWAP1 POP PUSH1 0x1 DUP3 AND DUP1 PUSH2 0x1E6 JUMPI PUSH1 0x7F DUP3 AND SWAP2 POP JUMPDEST PUSH1 0x20 DUP3 LT DUP2 SUB PUSH2 0x1F9 JUMPI PUSH2 0x1F8 PUSH2 0x1A2 JUMP JUMPDEST JUMPDEST POP SWAP2 SWAP1 POP JUMP JUMPDEST PUSH0 DUP2 SWAP1 POP DUP2 PUSH0 MSTORE PUSH1 0x20 PUSH0 KECCAK256 SWAP1 POP SWAP2 SWAP1 POP JUMP JUMPDEST PUSH0 PUSH1 0x20 PUSH1 0x1F DUP4 ADD DIV SWAP1 POP SWAP2 SWAP1 POP JUMP JUMPDEST PUSH0 DUP3 DUP3 SHL SWAP1 POP SWAP3 SWAP2 POP POP JUMP JUMPDEST PUSH0 PUSH1 0x8 DUP4 MUL PUSH2 0x25B PUSH32 0xFFFFFFFFFFFFFFFFFFFFFFFFFFFFFFFFFFFFFFFFFFFFFFFFFFFFFFFFFFFFFFFF DUP3 PUSH2 0x220 JUMP JUMPDEST PUSH2 0x265 DUP7 DUP4 PUSH2 0x220 JUMP JUMPDEST SWAP6 POP DUP1 NOT DUP5 AND SWAP4 POP DUP1 DUP7 AND DUP5 OR SWAP3 POP POP POP SWAP4 SWAP3 POP POP POP JUMP JUMPDEST PUSH0 DUP2 SWAP1 POP SWAP2 SWAP1 POP JUMP JUMPDEST PUSH0 DUP2 SWAP1 POP SWAP2 SWAP1 POP JUMP JUMPDEST PUSH0 PUSH2 0x2A9 PUSH2 0x2A4 PUSH2 0x29F DUP5 PUSH2 0x27D JUMP JUMPDEST PUSH2 0x286 JUMP JUMPDEST PUSH2 0x27D JUMP JUMPDEST SWAP1 POP SWAP2 SWAP1 POP JUMP JUMPDEST PUSH0 DUP2 SWAP1 POP SWAP2 SWAP1 POP JUMP JUMPDEST PUSH2 0x2C2 DUP4 PUSH2 0x28F JUMP JUMPDEST PUSH2 0x2D6 PUSH2 0x2CE DUP3 PUSH2 0x2B0 JUMP JUMPDEST DUP5 DUP5 SLOAD PUSH2 0x22C JUMP JUMPDEST DUP3 SSTORE POP POP POP POP JUMP JUMPDEST PUSH0 PUSH0 SWAP1 POP SWAP1 JUMP JUMPDEST PUSH2 0x2ED PUSH2 0x2DE JUMP JUMPDEST PUSH2 0x2F8 DUP2 DUP5 DUP5 PUSH2 0x2B9 JUMP JUMPDEST POP POP POP JUMP JUMPDEST JUMPDEST DUP2 DUP2 LT ISZERO PUSH2 0x31B JUMPI PUSH2 0x310 PUSH0 DUP3 PUSH2 0x2E5 JUMP JUMPDEST PUSH1 0x1 DUP2 ADD SWAP1 POP PUSH2 0x2FE JUMP JUMPDEST POP POP JUMP JUMPDEST PUSH1 0x1F DUP3 GT ISZERO PUSH2 0x360 JUMPI PUSH2 0x331 DUP2 PUSH2 0x1FF JUMP JUMPDEST PUSH2 0x33A DUP5 PUSH2 0x211 JUMP JUMPDEST DUP2 ADD PUSH1 0x20 DUP6 LT ISZERO PUSH2 0x349 JUMPI DUP2 SWAP1 POP JUMPDEST PUSH2 0x35D PUSH2 0x355 DUP6 PUSH2 0x211 JUMP JUMPDEST DUP4 ADD DUP3 PUSH2 0x2FD JUMP JUMPDEST POP POP JUMPDEST POP POP POP JUMP JUMPDEST PUSH0 DUP3 DUP3 SHR SWAP1 POP SWAP3 SWAP2 POP POP JUMP JUMPDEST PUSH0 PUSH2 0x380 PUSH0 NOT DUP5 PUSH1 0x8 MUL PUSH2 0x365 JUMP JUMPDEST NOT DUP1 DUP4 AND SWAP2 POP POP SWAP3 SWAP2 POP POP JUMP JUMPDEST PUSH0 PUSH2 0x398 DUP4 DUP4 PUSH2 0x371 JUMP JUMPDEST SWAP2 POP DUP3 PUSH1 0x2 MUL DUP3 OR SWAP1 POP SWAP3 SWAP2 POP POP JUMP JUMPDEST PUSH2 0x3B1 DUP3 PUSH2 0x16B JUMP JUMPDEST PUSH8 0xFFFFFFFFFFFFFFFF DUP2 GT ISZERO PUSH2 0x3CA JUMPI PUSH2 0x3C9 PUSH2 0x175 JUMP JUMPDEST JUMPDEST PUSH2 0x3D4 DUP3 SLOAD PUSH2 0x1CF JUMP JUMPDEST PUSH2 0x3DF DUP3 DUP3 DUP6 PUSH2 0x31F JUMP JUMPDEST PUSH0 PUSH1 0x20 SWAP1 POP PUSH1 0x1F DUP4 GT PUSH1 0x1 DUP2 EQ PUSH2 0x410 JUMPI PUSH0 DUP5 ISZERO PUSH2 0x3FE JUMPI DUP3 DUP8 ADD MLOAD SWAP1 POP JUMPDEST PUSH2 0x408 DUP6 DUP3 PUSH2 0x38D JUMP JUMPDEST DUP7 SSTORE POP PUSH2 0x46F JUMP JUMPDEST PUSH1 0x1F NOT DUP5 AND PUSH2 0x41E DUP7 PUSH2 0x1FF JUMP JUMPDEST PUSH0 JUMPDEST DUP3 DUP2 LT ISZERO PUSH2 0x445 JUMPI DUP5 DUP10 ADD MLOAD DUP3 SSTORE PUSH1 0x1 DUP3 ADD SWAP2 POP PUSH1 0x20 DUP6 ADD SWAP5 POP PUSH1 0x20 DUP2 ADD SWAP1 POP PUSH2 0x420 JUMP JUMPDEST DUP7 DUP4 LT ISZERO PUSH2 0x462 JUMPI DUP5 DUP10 ADD MLOAD PUSH2 0x45E PUSH1 0x1F DUP10 AND DUP3 PUSH2 0x371 JUMP JUMPDEST DUP4 SSTORE POP JUMPDEST PUSH1 0x1 PUSH1 0x2 DUP9 MUL ADD DUP9 SSTORE POP POP POP JUMPDEST POP POP POP POP POP POP JUMP JUMPDEST PUSH0 DUP2 SWAP1 POP DUP2 PUSH0 MSTORE PUSH1 0x20 PUSH0 KECCAK256 SWAP1 POP SWAP2 SWAP1 POP JUMP JUMPDEST PUSH1 0x1F DUP3 GT ISZERO PUSH2 0x4CA JUMPI PUSH2 0x49B DUP2 PUSH2 0x477 JUMP JUMPDEST PUSH2 0x4A4 DUP5 PUSH2 0x211 JUMP JUMPDEST DUP2 ADD PUSH1 0x20 DUP6 LT ISZERO PUSH2 0x4B3 JUMPI DUP2 SWAP1 POP JUMPDEST PUSH2 0x4C7 PUSH2 0x4BF DUP6 PUSH2 0x211 JUMP JUMPDEST DUP4 ADD DUP3 PUSH2 0x2FD JUMP JUMPDEST POP POP JUMPDEST POP POP POP JUMP JUMPDEST PUSH2 0x4D8 DUP3 PUSH2 0x16B JUMP JUMPDEST PUSH8 0xFFFFFFFFFFFFFFFF DUP2 GT ISZERO PUSH2 0x4F1 JUMPI PUSH2 0x4F0 PUSH2 0x175 JUMP JUMPDEST JUMPDEST PUSH2 0x4FB DUP3 SLOAD PUSH2 0x1CF JUMP JUMPDEST PUSH2 0x506 DUP3 DUP3 DUP6 PUSH2 0x489 JUMP JUMPDEST PUSH0 PUSH1 0x20 SWAP1 POP PUSH1 0x1F DUP4 GT PUSH1 0x1 DUP2 EQ PUSH2 0x537 JUMPI PUSH0 DUP5 ISZERO PUSH2 0x525 JUMPI DUP3 DUP8 ADD MLOAD SWAP1 POP JUMPDEST PUSH2 0x52F DUP6 DUP3 PUSH2 0x38D JUMP JUMPDEST DUP7 SSTORE POP PUSH2 0x596 JUMP JUMPDEST PUSH1 0x1F NOT DUP5 AND PUSH2 0x545 DUP7 PUSH2 0x477 JUMP JUMPDEST PUSH0 JUMPDEST DUP3 DUP2 LT ISZERO PUSH2 0x56C JUMPI DUP5 DUP10 ADD MLOAD DUP3 SSTORE PUSH1 0x1 DUP3 ADD SWAP2 POP PUSH1 0x20 DUP6 ADD SWAP5 POP PUSH1 0x20 DUP2 ADD SWAP1 POP PUSH2 0x547 JUMP JUMPDEST DUP7 DUP4 LT ISZERO PUSH2 0x589 JUMPI DUP5 DUP10 ADD MLOAD PUSH2 0x585 PUSH1 0x1F DUP10 AND DUP3 PUSH2 0x371 JUMP JUMPDEST DUP4 SSTORE POP JUMPDEST PUSH1 0x1 PUSH1 0x2 DUP9 MUL ADD DUP9 SSTORE POP POP POP JUMPDEST POP POP POP POP POP POP JUMP JUMPDEST PUSH2 0x115C DUP1 PUSH2 0x5AB PUSH0 CODECOPY PUSH0 RETURN INVALID PUSH1 0x80 PUSH1 0x40 MSTORE PUSH1 0x4 CALLDATASIZE LT PUSH2 0xE7 JUMPI PUSH0 CALLDATALOAD PUSH1 0xE0 SHR DUP1 PUSH4 0x73A38CB3 GT PUSH2 0x89 JUMPI DUP1 PUSH4 0xC4A759D2 GT PUSH2 0x58 JUMPI DUP1 PUSH4 0xC4A759D2 EQ PUSH2 0x2DA JUMPI DUP1 PUSH4 0xD0DE3F63 EQ PUSH2 0x2E4 JUMPI DUP1 PUSH4 0xD78FB117 EQ PUSH2 0x30F JUMPI DUP1 PUSH4 0xF604BF57 EQ PUSH2 0x34B JUMPI PUSH2 0xE7 JUMP JUMPDEST DUP1 PUSH4 0x73A38CB3 EQ PUSH2 0x222 JUMPI DUP1 PUSH4 0x9A9BDCA7 EQ PUSH2 0x24C JUMPI DUP1 PUSH4 0xA50BBE1B EQ PUSH2 0x288 JUMPI DUP1 PUSH4 0xB503BA35 EQ PUSH2 0x2B2 JUMPI PUSH2 0xE7 JUMP JUMPDEST DUP1 PUSH4 0x3A32B549 GT PUSH2 0xC5 JUMPI DUP1 PUSH4 0x3A32B549 EQ PUSH2 0x17A JUMPI DUP1 PUSH4 0x46A3967B EQ PUSH2 0x1A4 JUMPI DUP1 PUSH4 0x64F0DBAB EQ PUSH2 0x1CE JUMPI DUP1 PUSH4 0x6EBCD2C2 EQ PUSH2 0x1F8 JUMPI PUSH2 0xE7 JUMP JUMPDEST DUP1 PUSH4 0x55C4299 EQ PUSH2 0xEB JUMPI DUP1 PUSH4 0x200D2ED2 EQ PUSH2 0x113 JUMPI DUP1 PUSH4 0x29247DC1 EQ PUSH2 0x13D JUMPI JUMPDEST PUSH0 PUSH0 REVERT JUMPDEST CALLVALUE DUP1 ISZERO PUSH2 0xF6 JUMPI PUSH0 PUSH0 REVERT JUMPDEST POP PUSH2 0x111 PUSH1 0x4 DUP1 CALLDATASIZE SUB DUP2 ADD SWAP1 PUSH2 0x10C SWAP2 SWAP1 PUSH2 0x75B JUMP JUMPDEST PUSH2 0x387 JUMP JUMPDEST STOP JUMPDEST CALLVALUE DUP1 ISZERO PUSH2 0x11E JUMPI PUSH0 PUSH0 REVERT JUMPDEST POP PUSH2 0x127 PUSH2 0x3B0 JUMP JUMPDEST PUSH1 0x40 MLOAD PUSH2 0x134 SWAP2 SWAP1 PUSH2 0x7A0 JUMP JUMPDEST PUSH1 0x40 MLOAD DUP1 SWAP2 SUB SWAP1 RETURN JUMPDEST CALLVALUE DUP1 ISZERO PUSH2 0x148 JUMPI PUSH0 PUSH0 REVERT JUMPDEST POP PUSH2 0x163 PUSH1 0x4 DUP1 CALLDATASIZE SUB DUP2 ADD SWAP1 PUSH2 0x15E SWAP2 SWAP1 PUSH2 0x81A JUMP JUMPDEST PUSH2 0x3C2 JUMP JUMPDEST PUSH1 0x40 MLOAD PUSH2 0x171 SWAP3 SWAP2 SWAP1 PUSH2 0x8BF JUMP JUMPDEST PUSH1 0x40 MLOAD DUP1 SWAP2 SUB SWAP1 RETURN JUMPDEST CALLVALUE DUP1 ISZERO PUSH2 0x185 JUMPI PUSH0 PUSH0 REVERT JUMPDEST POP PUSH2 0x18E PUSH2 0x3D1 JUMP JUMPDEST PUSH1 0x40 MLOAD PUSH2 0x19B SWAP2 SWAP1 PUSH2 0x8F0 JUMP JUMPDEST PUSH1 0x40 MLOAD DUP1 SWAP2 SUB SWAP1 RETURN JUMPDEST CALLVALUE DUP1 ISZERO PUSH2 0x1AF JUMPI PUSH0 PUSH0 REVERT JUMPDEST POP PUSH2 0x1B8 PUSH2 0x3DA JUMP JUMPDEST PUSH1 0x40 MLOAD PUSH2 0x1C5 SWAP2 SWAP1 PUSH2 0x959 JUMP JUMPDEST PUSH1 0x40 MLOAD DUP1 SWAP2 SUB SWAP1 RETURN JUMPDEST CALLVALUE DUP1 ISZERO PUSH2 0x1D9 JUMPI PUSH0 PUSH0 REVERT JUMPDEST POP PUSH2 0x1E2 PUSH2 0x469 JUMP JUMPDEST PUSH1 0x40 MLOAD PUSH2 0x1EF SWAP2 SWAP1 PUSH2 0x9CB JUMP JUMPDEST PUSH1 0x40 MLOAD DUP1 SWAP2 SUB SWAP1 RETURN JUMPDEST CALLVALUE DUP1 ISZERO PUSH2 0x203 JUMPI PUSH0 PUSH0 REVERT JUMPDEST POP PUSH2 0x20C PUSH2 0x4F5 JUMP JUMPDEST PUSH1 0x40 MLOAD PUSH2 0x219 SWAP2 SWAP1 PUSH2 0xA2A JUMP JUMPDEST PUSH1 0x40 MLOAD DUP1 SWAP2 SUB SWAP1 RETURN JUMPDEST CALLVALUE DUP1 ISZERO PUSH2 0x22D JUMPI PUSH0 PUSH0 REVERT JUMPDEST POP PUSH2 0x236 PUSH2 0x51B JUMP JUMPDEST PUSH1 0x40 MLOAD PUSH2 0x243 SWAP2 SWAP1 PUSH2 0x8F0 JUMP JUMPDEST PUSH1 0x40 MLOAD DUP1 SWAP2 SUB SWAP1 RETURN JUMPDEST CALLVALUE DUP1 ISZERO PUSH2 0x257 JUMPI PUSH0 PUSH0 REVERT JUMPDEST POP PUSH2 0x272 PUSH1 0x4 DUP1 CALLDATASIZE SUB DUP2 ADD SWAP1 PUSH2 0x26D SWAP2 SWAP1 PUSH2 0x75B JUMP JUMPDEST PUSH2 0x521 JUMP JUMPDEST PUSH1 0x40 MLOAD PUSH2 0x27F SWAP2 SWAP1 PUSH2 0x8F0 JUMP JUMPDEST PUSH1 0x40 MLOAD DUP1 SWAP2 SUB SWAP1 RETURN JUMPDEST CALLVALUE DUP1 ISZERO PUSH2 0x293 JUMPI PUSH0 PUSH0 REVERT JUMPDEST POP PUSH2 0x29C PUSH2 0x541 JUMP JUMPDEST PUSH1 0x40 MLOAD PUSH2 0x2A9 SWAP2 SWAP1 PUSH2 0x959 JUMP JUMPDEST PUSH1 0x40 MLOAD DUP1 SWAP2 SUB SWAP1 RETURN JUMPDEST CALLVALUE DUP1 ISZERO PUSH2 0x2BD JUMPI PUSH0 PUSH0 REVERT JUMPDEST POP PUSH2 0x2D8 PUSH1 0x4 DUP1 CALLDATASIZE SUB DUP2 ADD SWAP1 PUSH2 0x2D3 SWAP2 SWAP1 PUSH2 0xB5D JUMP JUMPDEST PUSH2 0x5CC JUMP JUMPDEST STOP JUMPDEST PUSH2 0x2E2 PUSH2 0x617 JUMP JUMPDEST STOP JUMPDEST CALLVALUE DUP1 ISZERO PUSH2 0x2EF JUMPI PUSH0 PUSH0 REVERT JUMPDEST POP PUSH2 0x2F8 PUSH2 0x619 JUMP JUMPDEST PUSH1 0x40 MLOAD PUSH2 0x306 SWAP3 SWAP2 SWAP1 PUSH2 0xBA4 JUMP JUMPDEST PUSH1 0x40 MLOAD DUP1 SWAP2 SUB SWAP1 RETURN JUMPDEST CALLVALUE DUP1 ISZERO PUSH2 0x31A JUMPI PUSH0 PUSH0 REVERT JUMPDEST POP PUSH2 0x335 PUSH1 0x4 DUP1 CALLDATASIZE SUB DUP2 ADD SWAP1 PUSH2 0x330 SWAP2 SWAP1 PUSH2 0xC92 JUMP JUMPDEST PUSH2 0x6B0 JUMP JUMPDEST PUSH1 0x40 MLOAD PUSH2 0x342 SWAP2 SWAP1 PUSH2 0x8F0 JUMP JUMPDEST PUSH1 0x40 MLOAD DUP1 SWAP2 SUB SWAP1 RETURN JUMPDEST CALLVALUE DUP1 ISZERO PUSH2 0x356 JUMPI PUSH0 PUSH0 REVERT JUMPDEST POP PUSH2 0x371 PUSH1 0x4 DUP1 CALLDATASIZE SUB DUP2 ADD SWAP1 PUSH2 0x36C SWAP2 SWAP1 PUSH2 0xCD9 JUMP JUMPDEST PUSH2 0x702 JUMP JUMPDEST PUSH1 0x40 MLOAD PUSH2 0x37E SWAP2 SWAP1 PUSH2 0x8F0 JUMP JUMPDEST PUSH1 0x40 MLOAD DUP1 SWAP2 SUB SWAP1 RETURN JUMPDEST PUSH1 0x3 DUP2 SWAP1 DUP1 PUSH1 0x1 DUP2 SLOAD ADD DUP1 DUP3 SSTORE DUP1 SWAP2 POP POP PUSH1 0x1 SWAP1 SUB SWAP1 PUSH0 MSTORE PUSH1 0x20 PUSH0 KECCAK256 ADD PUSH0 SWAP1 SWAP2 SWAP1 SWAP2 SWAP1 SWAP2 POP SSTORE POP JUMP JUMPDEST PUSH1 0x6 PUSH0 SWAP1 SLOAD SWAP1 PUSH2 0x100 EXP SWAP1 DIV PUSH1 0xFF AND DUP2 JUMP JUMPDEST CALLDATASIZE PUSH0 DUP4 DUP4 SWAP2 POP SWAP2 POP SWAP3 POP SWAP3 SWAP1 POP JUMP JUMPDEST PUSH0 PUSH1 0x1 SLOAD SWAP1 POP SWAP1 JUMP JUMPDEST PUSH1 0x60 PUSH0 DUP1 SLOAD PUSH2 0x3E8 SWAP1 PUSH2 0xD44 JUMP JUMPDEST DUP1 PUSH1 0x1F ADD PUSH1 0x20 DUP1 SWAP2 DIV MUL PUSH1 0x20 ADD PUSH1 0x40 MLOAD SWAP1 DUP2 ADD PUSH1 0x40 MSTORE DUP1 SWAP3 SWAP2 SWAP1 DUP2 DUP2 MSTORE PUSH1 0x20 ADD DUP3 DUP1 SLOAD PUSH2 0x414 SWAP1 PUSH2 0xD44 JUMP JUMPDEST DUP1 ISZERO PUSH2 0x45F JUMPI DUP1 PUSH1 0x1F LT PUSH2 0x436 JUMPI PUSH2 0x100 DUP1 DUP4 SLOAD DIV MUL DUP4 MSTORE SWAP2 PUSH1 0x20 ADD SWAP2 PUSH2 0x45F JUMP JUMPDEST DUP3 ADD SWAP2 SWAP1 PUSH0 MSTORE PUSH1 0x20 PUSH0 KECCAK256 SWAP1 JUMPDEST DUP2 SLOAD DUP2 MSTORE SWAP1 PUSH1 0x1 ADD SWAP1 PUSH1 0x20 ADD DUP1 DUP4 GT PUSH2 0x442 JUMPI DUP3 SWAP1 SUB PUSH1 0x1F AND DUP3 ADD SWAP2 JUMPDEST POP POP POP POP POP SWAP1 POP SWAP1 JUMP JUMPDEST PUSH1 0x2 DUP1 SLOAD PUSH2 0x476 SWAP1 PUSH2 0xD44 JUMP JUMPDEST DUP1 PUSH1 0x1F ADD PUSH1 0x20 DUP1 SWAP2 DIV MUL PUSH1 0x20 ADD PUSH1 0x40 MLOAD SWAP1 DUP2 ADD PUSH1 0x40 MSTORE DUP1 SWAP3 SWAP2 SWAP1 DUP2 DUP2 MSTORE PUSH1 0x20 ADD DUP3 DUP1 SLOAD PUSH2 0x4A2 SWAP1 PUSH2 0xD44 JUMP JUMPDEST DUP1 ISZERO PUSH2 0x4ED JUMPI DUP1 PUSH1 0x1F LT PUSH2 0x4C4 JUMPI PUSH2 0x100 DUP1 DUP4 SLOAD DIV MUL DUP4 MSTORE SWAP2 PUSH1 0x20 ADD SWAP2 PUSH2 0x4ED JUMP JUMPDEST DUP3 ADD SWAP2 SWAP1 PUSH0 MSTORE PUSH1 0x20 PUSH0 KECCAK256 SWAP1 JUMPDEST DUP2 SLOAD DUP2 MSTORE SWAP1 PUSH1 0x1 ADD SWAP1 PUSH1 0x20 ADD DUP1 DUP4 GT PUSH2 0x4D0 JUMPI DUP3 SWAP1 SUB PUSH1 0x1F AND DUP3 ADD SWAP2 JUMPDEST POP POP POP POP POP DUP2 JUMP JUMPDEST PUSH1 0x6 PUSH1 0x1 SWAP1 SLOAD SWAP1 PUSH2 0x100 EXP SWAP1 DIV PUSH20 0xFFFFFFFFFFFFFFFFFFFFFFFFFFFFFFFFFFFFFFFF AND DUP2 JUMP JUMPDEST PUSH1 0x1 SLOAD DUP2 JUMP JUMPDEST PUSH1 0x3 DUP2 DUP2 SLOAD DUP2 LT PUSH2 0x530 JUMPI PUSH0 DUP1 REVERT JUMPDEST SWAP1 PUSH0 MSTORE PUSH1 0x20 PUSH0 KECCAK256 ADD PUSH0 SWAP2 POP SWAP1 POP SLOAD DUP2 JUMP JUMPDEST PUSH0 DUP1 SLOAD PUSH2 0x54D SWAP1 PUSH2 0xD44 JUMP JUMPDEST DUP1 PUSH1 0x1F ADD PUSH1 0x20 DUP1 SWAP2 DIV MUL PUSH1 0x20 ADD PUSH1 0x40 MLOAD SWAP1 DUP2 ADD PUSH1 0x40 MSTORE DUP1 SWAP3 SWAP2 SWAP1 DUP2 DUP2 MSTORE PUSH1 0x20 ADD DUP3 DUP1 SLOAD PUSH2 0x579 SWAP1 PUSH2 0xD44 JUMP JUMPDEST DUP1 ISZERO PUSH2 0x5C4 JUMPI DUP1 PUSH1 0x1F LT PUSH2 0x59B JUMPI PUSH2 0x100 DUP1 DUP4 SLOAD DIV MUL DUP4 MSTORE SWAP2 PUSH1 0x20 ADD SWAP2 PUSH2 0x5C4 JUMP JUMPDEST DUP3 ADD SWAP2 SWAP1 PUSH0 MSTORE PUSH1 0x20 PUSH0 KECCAK256 SWAP1 JUMPDEST DUP2 SLOAD DUP2 MSTORE SWAP1 PUSH1 0x1 ADD SWAP1 PUSH1 0x20 ADD DUP1 DUP4 GT PUSH2 0x5A7 JUMPI DUP3 SWAP1 SUB PUSH1 0x1F AND DUP3 ADD SWAP2 JUMPDEST POP POP POP POP POP DUP2 JUMP JUMPDEST PUSH32 0x4F32DB05C99C0D38E62671412E40C827769BB9DB84AB494D5935422B9D89C194 PUSH0 DUP3 PUSH1 0x40 MLOAD PUSH2 0x5FD SWAP3 SWAP2 SWAP1 PUSH2 0xE07 JUMP JUMPDEST PUSH1 0x40 MLOAD DUP1 SWAP2 SUB SWAP1 LOG1 DUP1 PUSH0 SWAP1 DUP2 PUSH2 0x613 SWAP2 SWAP1 PUSH2 0xFCA JUMP JUMPDEST POP POP JUMP JUMPDEST JUMP JUMPDEST PUSH1 0x4 DUP1 PUSH0 ADD DUP1 SLOAD PUSH2 0x629 SWAP1 PUSH2 0xD44 JUMP JUMPDEST DUP1 PUSH1 0x1F ADD PUSH1 0x20 DUP1 SWAP2 DIV MUL PUSH1 0x20 ADD PUSH1 0x40 MLOAD SWAP1 DUP2 ADD PUSH1 0x40 MSTORE DUP1 SWAP3 SWAP2 SWAP1 DUP2 DUP2 MSTORE PUSH1 0x20 ADD DUP3 DUP1 SLOAD PUSH2 0x655 SWAP1 PUSH2 0xD44 JUMP JUMPDEST DUP1 ISZERO PUSH2 0x6A0 JUMPI DUP1 PUSH1 0x1F LT PUSH2 0x677 JUMPI PUSH2 0x100 DUP1 DUP4 SLOAD DIV MUL DUP4 MSTORE SWAP2 PUSH1 0x20 ADD SWAP2 PUSH2 0x6A0 JUMP JUMPDEST DUP3 ADD SWAP2 SWAP1 PUSH0 MSTORE PUSH1 0x20 PUSH0 KECCAK256 SWAP1 JUMPDEST DUP2 SLOAD DUP2 MSTORE SWAP1 PUSH1 0x1 ADD SWAP1 PUSH1 0x20 ADD DUP1 DUP4 GT PUSH2 0x683 JUMPI DUP3 SWAP1 SUB PUSH1 0x1F AND DUP3 ADD SWAP2 JUMPDEST POP POP POP POP POP SWAP1 DUP1 PUSH1 0x1 ADD SLOAD SWAP1 POP DUP3 JUMP JUMPDEST PUSH0 PUSH0 PUSH0 SWAP1 POP PUSH0 PUSH0 SWAP1 POP JUMPDEST DUP4 MLOAD DUP2 LT ISZERO PUSH2 0x6F8 JUMPI DUP4 DUP2 DUP2 MLOAD DUP2 LT PUSH2 0x6D6 JUMPI PUSH2 0x6D5 PUSH2 0x1099 JUMP JUMPDEST JUMPDEST PUSH1 0x20 MUL PUSH1 0x20 ADD ADD MLOAD DUP3 PUSH2 0x6E9 SWAP2 SWAP1 PUSH2 0x10F3 JUMP JUMPDEST SWAP2 POP DUP1 DUP1 PUSH1 0x1 ADD SWAP2 POP POP PUSH2 0x6BA JUMP JUMPDEST POP DUP1 SWAP2 POP POP SWAP2 SWAP1 POP JUMP JUMPDEST PUSH0 DUP2 DUP4 PUSH2 0x70F SWAP2 SWAP1 PUSH2 0x10F3 JUMP JUMPDEST SWAP1 POP SWAP3 SWAP2 POP POP JUMP JUMPDEST PUSH0 PUSH1 0x40 MLOAD SWAP1 POP SWAP1 JUMP JUMPDEST PUSH0 PUSH0 REVERT JUMPDEST PUSH0 PUSH0 REVERT JUMPDEST PUSH0 DUP2 SWAP1 POP SWAP2 SWAP1 POP JUMP JUMPDEST PUSH2 0x73A DUP2 PUSH2 0x728 JUMP JUMPDEST DUP2 EQ PUSH2 0x744 JUMPI PUSH0 PUSH0 REVERT JUMPDEST POP JUMP JUMPDEST PUSH0 DUP2 CALLDATALOAD SWAP1 POP PUSH2 0x755 DUP2 PUSH2 0x731 JUMP JUMPDEST SWAP3 SWAP2 POP POP JUMP JUMPDEST PUSH0 PUSH1 0x20 DUP3 DUP5 SUB SLT ISZERO PUSH2 0x770 JUMPI PUSH2 0x76F PUSH2 0x720 JUMP JUMPDEST JUMPDEST PUSH0 PUSH2 0x77D DUP5 DUP3 DUP6 ADD PUSH2 0x747 JUMP JUMPDEST SWAP2 POP POP SWAP3 SWAP2 POP POP JUMP JUMPDEST PUSH0 DUP2 ISZERO ISZERO SWAP1 POP SWAP2 SWAP1 POP JUMP JUMPDEST PUSH2 0x79A DUP2 PUSH2 0x786 JUMP JUMPDEST DUP3 MSTORE POP POP JUMP JUMPDEST PUSH0 PUSH1 0x20 DUP3 ADD SWAP1 POP PUSH2 0x7B3 PUSH0 DUP4 ADD DUP5 PUSH2 0x791 JUMP JUMPDEST SWAP3 SWAP2 POP POP JUMP JUMPDEST PUSH0 PUSH0 REVERT JUMPDEST PUSH0 PUSH0 REVERT JUMPDEST PUSH0 PUSH0 REVERT JUMPDEST PUSH0 PUSH0 DUP4 PUSH1 0x1F DUP5 ADD SLT PUSH2 0x7DA JUMPI PUSH2 0x7D9 PUSH2 0x7B9 JUMP JUMPDEST JUMPDEST DUP3 CALLDATALOAD SWAP1 POP PUSH8 0xFFFFFFFFFFFFFFFF DUP2 GT ISZERO PUSH2 0x7F7 JUMPI PUSH2 0x7F6 PUSH2 0x7BD JUMP JUMPDEST JUMPDEST PUSH1 0x20 DUP4 ADD SWAP2 POP DUP4 PUSH1 0x1 DUP3 MUL DUP4 ADD GT ISZERO PUSH2 0x813 JUMPI PUSH2 0x812 PUSH2 0x7C1 JUMP JUMPDEST JUMPDEST SWAP3 POP SWAP3 SWAP1 POP JUMP JUMPDEST PUSH0 PUSH0 PUSH1 0x20 DUP4 DUP6 SUB SLT ISZERO PUSH2 0x830 JUMPI PUSH2 0x82F PUSH2 0x720 JUMP JUMPDEST JUMPDEST PUSH0 DUP4 ADD CALLDATALOAD PUSH8 0xFFFFFFFFFFFFFFFF DUP2 GT ISZERO PUSH2 0x84D JUMPI PUSH2 0x84C PUSH2 0x724 JUMP JUMPDEST JUMPDEST PUSH2 0x859 DUP6 DUP3 DUP7 ADD PUSH2 0x7C5 JUMP JUMPDEST SWAP3 POP SWAP3 POP POP SWAP3 POP SWAP3 SWAP1 POP JUMP JUMPDEST PUSH0 DUP3 DUP3 MSTORE PUSH1 0x20 DUP3 ADD SWAP1 POP SWAP3 SWAP2 POP POP JUMP JUMPDEST DUP3 DUP2 DUP4 CALLDATACOPY PUSH0 DUP4 DUP4 ADD MSTORE POP POP POP JUMP JUMPDEST PUSH0 PUSH1 0x1F NOT PUSH1 0x1F DUP4 ADD AND SWAP1 POP SWAP2 SWAP1 POP JUMP JUMPDEST PUSH0 PUSH2 0x89E DUP4 DUP6 PUSH2 0x865 JUMP JUMPDEST SWAP4 POP PUSH2 0x8AB DUP4 DUP6 DUP5 PUSH2 0x875 JUMP JUMPDEST PUSH2 0x8B4 DUP4 PUSH2 0x883 JUMP JUMPDEST DUP5 ADD SWAP1 POP SWAP4 SWAP3 POP POP POP JUMP JUMPDEST PUSH0 PUSH1 0x20 DUP3 ADD SWAP1 POP DUP2 DUP2 SUB PUSH0 DUP4 ADD MSTORE PUSH2 0x8D8 DUP2 DUP5 DUP7 PUSH2 0x893 JUMP JUMPDEST SWAP1 POP SWAP4 SWAP3 POP POP POP JUMP JUMPDEST PUSH2 0x8EA DUP2 PUSH2 0x728 JUMP JUMPDEST DUP3 MSTORE POP POP JUMP JUMPDEST PUSH0 PUSH1 0x20 DUP3 ADD SWAP1 POP PUSH2 0x903 PUSH0 DUP4 ADD DUP5 PUSH2 0x8E1 JUMP JUMPDEST SWAP3 SWAP2 POP POP JUMP JUMPDEST PUSH0 DUP2 MLOAD SWAP1 POP SWAP2 SWAP1 POP JUMP JUMPDEST DUP3 DUP2 DUP4 MCOPY PUSH0 DUP4 DUP4 ADD MSTORE POP POP POP JUMP JUMPDEST PUSH0 PUSH2 0x92B DUP3 PUSH2 0x909 JUMP JUMPDEST PUSH2 0x935 DUP2 DUP6 PUSH2 0x865 JUMP JUMPDEST SWAP4 POP PUSH2 0x945 DUP2 DUP6 PUSH1 0x20 DUP7 ADD PUSH2 0x913 JUMP JUMPDEST PUSH2 0x94E DUP2 PUSH2 0x883 JUMP JUMPDEST DUP5 ADD SWAP2 POP POP SWAP3 SWAP2 POP POP JUMP JUMPDEST PUSH0 PUSH1 0x20 DUP3 ADD SWAP1 POP DUP2 DUP2 SUB PUSH0 DUP4 ADD MSTORE PUSH2 0x971 DUP2 DUP5 PUSH2 0x921 JUMP JUMPDEST SWAP1 POP SWAP3 SWAP2 POP POP JUMP JUMPDEST PUSH0 DUP2 MLOAD SWAP1 POP SWAP2 SWAP1 POP JUMP JUMPDEST PUSH0 DUP3 DUP3 MSTORE PUSH1 0x20 DUP3 ADD SWAP1 POP SWAP3 SWAP2 POP POP JUMP JUMPDEST PUSH0 PUSH2 0x99D DUP3 PUSH2 0x979 JUMP JUMPDEST PUSH2 0x9A7 DUP2 DUP6 PUSH2 0x983 JUMP JUMPDEST SWAP4 POP PUSH2 0x9B7 DUP2 DUP6 PUSH1 0x20 DUP7 ADD PUSH2 0x913 JUMP JUMPDEST PUSH2 0x9C0 DUP2 PUSH2 0x883 JUMP JUMPDEST DUP5 ADD SWAP2 POP POP SWAP3 SWAP2 POP POP JUMP JUMPDEST PUSH0 PUSH1 0x20 DUP3 ADD SWAP1 POP DUP2 DUP2 SUB PUSH0 DUP4 ADD MSTORE PUSH2 0x9E3 DUP2 DUP5 PUSH2 0x993 JUMP JUMPDEST SWAP1 POP SWAP3 SWAP2 POP POP JUMP JUMPDEST PUSH0 PUSH20 0xFFFFFFFFFFFFFFFFFFFFFFFFFFFFFFFFFFFFFFFF DUP3 AND SWAP1 POP SWAP2 SWAP1 POP JUMP JUMPDEST PUSH0 PUSH2 0xA14 DUP3 PUSH2 0x9EB JUMP JUMPDEST SWAP1 POP SWAP2 SWAP1 POP JUMP JUMPDEST PUSH2 0xA24 DUP2 PUSH2 0xA0A JUMP JUMPDEST DUP3 MSTORE POP POP JUMP JUMPDEST PUSH0 PUSH1 0x20 DUP3 ADD SWAP1 POP PUSH2 0xA3D PUSH0 DUP4 ADD DUP5 PUSH2 0xA1B JUMP JUMPDEST SWAP3 SWAP2 POP POP JUMP JUMPDEST PUSH0 PUSH0 REVERT JUMPDEST PUSH32 0x4E487B7100000000000000000000000000000000000000000000000000000000 PUSH0 MSTORE PUSH1 0x41 PUSH1 0x4 MSTORE PUSH1 0x24 PUSH0 REVERT JUMPDEST PUSH2 0xA7D DUP3 PUSH2 0x883 JUMP JUMPDEST DUP2 ADD DUP2 DUP2 LT PUSH8 0xFFFFFFFFFFFFFFFF DUP3 GT OR ISZERO PUSH2 0xA9C JUMPI PUSH2 0xA9B PUSH2 0xA47 JUMP JUMPDEST JUMPDEST DUP1 PUSH1 0x40 MSTORE POP POP POP JUMP JUMPDEST PUSH0 PUSH2 0xAAE PUSH2 0x717 JUMP JUMPDEST SWAP1 POP PUSH2 0xABA DUP3 DUP3 PUSH2 0xA74 JUMP JUMPDEST SWAP2 SWAP1 POP JUMP JUMPDEST PUSH0 PUSH8 0xFFFFFFFFFFFFFFFF DUP3 GT ISZERO PUSH2 0xAD9 JUMPI PUSH2 0xAD8 PUSH2 0xA47 JUMP JUMPDEST JUMPDEST PUSH2 0xAE2 DUP3 PUSH2 0x883 JUMP JUMPDEST SWAP1 POP PUSH1 0x20 DUP2 ADD SWAP1 POP SWAP2 SWAP1 POP JUMP JUMPDEST PUSH0 PUSH2 0xB01 PUSH2 0xAFC DUP5 PUSH2 0xABF JUMP JUMPDEST PUSH2 0xAA5 JUMP JUMPDEST SWAP1 POP DUP3 DUP2 MSTORE PUSH1 0x20 DUP2 ADD DUP5 DUP5 DUP5 ADD GT ISZERO PUSH2 0xB1D JUMPI PUSH2 0xB1C PUSH2 0xA43 JUMP JUMPDEST JUMPDEST PUSH2 0xB28 DUP5 DUP3 DUP6 PUSH2 0x875 JUMP JUMPDEST POP SWAP4 SWAP3 POP POP POP JUMP JUMPDEST PUSH0 DUP3 PUSH1 0x1F DUP4 ADD SLT PUSH2 0xB44 JUMPI PUSH2 0xB43 PUSH2 0x7B9 JUMP JUMPDEST JUMPDEST DUP2 CALLDATALOAD PUSH2 0xB54 DUP5 DUP3 PUSH1 0x20 DUP7 ADD PUSH2 0xAEF JUMP JUMPDEST SWAP2 POP POP SWAP3 SWAP2 POP POP JUMP JUMPDEST PUSH0 PUSH1 0x20 DUP3 DUP5 SUB SLT ISZERO PUSH2 0xB72 JUMPI PUSH2 0xB71 PUSH2 0x720 JUMP JUMPDEST JUMPDEST PUSH0 DUP3 ADD CALLDATALOAD PUSH8 0xFFFFFFFFFFFFFFFF DUP2 GT ISZERO PUSH2 0xB8F JUMPI PUSH2 0xB8E PUSH2 0x724 JUMP JUMPDEST JUMPDEST PUSH2 0xB9B DUP5 DUP3 DUP6 ADD PUSH2 0xB30 JUMP JUMPDEST SWAP2 POP POP SWAP3 SWAP2 POP POP JUMP JUMPDEST PUSH0 PUSH1 0x40 DUP3 ADD SWAP1 POP DUP2 DUP2 SUB PUSH0 DUP4 ADD MSTORE PUSH2 0xBBC DUP2 DUP6 PUSH2 0x921 JUMP JUMPDEST SWAP1 POP PUSH2 0xBCB PUSH1 0x20 DUP4 ADD DUP5 PUSH2 0x8E1 JUMP JUMPDEST SWAP4 SWAP3 POP POP POP JUMP JUMPDEST PUSH0 PUSH8 0xFFFFFFFFFFFFFFFF DUP3 GT ISZERO PUSH2 0xBEC JUMPI PUSH2 0xBEB PUSH2 0xA47 JUMP JUMPDEST JUMPDEST PUSH1 0x20 DUP3 MUL SWAP1 POP PUSH1 0x20 DUP2 ADD SWAP1 POP SWAP2 SWAP1 POP JUMP JUMPDEST PUSH0 PUSH2 0xC0F PUSH2 0xC0A DUP5 PUSH2 0xBD2 JUMP JUMPDEST PUSH2 0xAA5 JUMP JUMPDEST SWAP1 POP DUP1 DUP4 DUP3 MSTORE PUSH1 0x20 DUP3 ADD SWAP1 POP PUSH1 0x20 DUP5 MUL DUP4 ADD DUP6 DUP2 GT ISZERO PUSH2 0xC32 JUMPI PUSH2 0xC31 PUSH2 0x7C1 JUMP JUMPDEST JUMPDEST DUP4 JUMPDEST DUP2 DUP2 LT ISZERO PUSH2 0xC5B JUMPI DUP1 PUSH2 0xC47 DUP9 DUP3 PUSH2 0x747 JUMP JUMPDEST DUP5 MSTORE PUSH1 0x20 DUP5 ADD SWAP4 POP POP PUSH1 0x20 DUP2 ADD SWAP1 POP PUSH2 0xC34 JUMP JUMPDEST POP POP POP SWAP4 SWAP3 POP POP POP JUMP JUMPDEST PUSH0 DUP3 PUSH1 0x1F DUP4 ADD SLT PUSH2 0xC79 JUMPI PUSH2 0xC78 PUSH2 0x7B9 JUMP JUMPDEST JUMPDEST DUP2 CALLDATALOAD PUSH2 0xC89 DUP5 DUP3 PUSH1 0x20 DUP7 ADD PUSH2 0xBFD JUMP JUMPDEST SWAP2 POP POP SWAP3 SWAP2 POP POP JUMP JUMPDEST PUSH0 PUSH1 0x20 DUP3 DUP5 SUB SLT ISZERO PUSH2 0xCA7 JUMPI PUSH2 0xCA6 PUSH2 0x720 JUMP JUMPDEST JUMPDEST PUSH0 DUP3 ADD CALLDATALOAD PUSH8 0xFFFFFFFFFFFFFFFF DUP2 GT ISZERO PUSH2 0xCC4 JUMPI PUSH2 0xCC3 PUSH2 0x724 JUMP JUMPDEST JUMPDEST PUSH2 0xCD0 DUP5 DUP3 DUP6 ADD PUSH2 0xC65 JUMP JUMPDEST SWAP2 POP POP SWAP3 SWAP2 POP POP JUMP JUMPDEST PUSH0 PUSH0 PUSH1 0x40 DUP4 DUP6 SUB SLT ISZERO PUSH2 0xCEF JUMPI PUSH2 0xCEE PUSH2 0x720 JUMP JUMPDEST JUMPDEST PUSH0 PUSH2 0xCFC DUP6 DUP3 DUP7 ADD PUSH2 0x747 JUMP JUMPDEST SWAP3 POP POP PUSH1 0x20 PUSH2 0xD0D DUP6 DUP3 DUP7 ADD PUSH2 0x747 JUMP JUMPDEST SWAP2 POP POP SWAP3 POP SWAP3 SWAP1 POP JUMP JUMPDEST PUSH32 0x4E487B7100000000000000000000000000000000000000000000000000000000 PUSH0 MSTORE PUSH1 0x22 PUSH1 0x4 MSTORE PUSH1 0x24 PUSH0 REVERT JUMPDEST PUSH0 PUSH1 0x2 DUP3 DIV SWAP1 POP PUSH1 0x1 DUP3 AND DUP1 PUSH2 0xD5B JUMPI PUSH1 0x7F DUP3 AND SWAP2 POP JUMPDEST PUSH1 0x20 DUP3 LT DUP2 SUB PUSH2 0xD6E JUMPI PUSH2 0xD6D PUSH2 0xD17 JUMP JUMPDEST JUMPDEST POP SWAP2 SWAP1 POP JUMP JUMPDEST PUSH0 DUP2 SWAP1 POP DUP2 PUSH0 MSTORE PUSH1 0x20 PUSH0 KECCAK256 SWAP1 POP SWAP2 SWAP1 POP JUMP JUMPDEST PUSH0 DUP2 SLOAD PUSH2 0xD92 DUP2 PUSH2 0xD44 JUMP JUMPDEST PUSH2 0xD9C DUP2 DUP7 PUSH2 0x865 JUMP JUMPDEST SWAP5 POP PUSH1 0x1 DUP3 AND PUSH0 DUP2 EQ PUSH2 0xDB6 JUMPI PUSH1 0x1 DUP2 EQ PUSH2 0xDCC JUMPI PUSH2 0xDFE JUMP JUMPDEST PUSH1 0xFF NOT DUP4 AND DUP7 MSTORE DUP2 ISZERO ISZERO PUSH1 0x20 MUL DUP7 ADD SWAP4 POP PUSH2 0xDFE JUMP JUMPDEST PUSH2 0xDD5 DUP6 PUSH2 0xD74 JUMP JUMPDEST PUSH0 JUMPDEST DUP4 DUP2 LT ISZERO PUSH2 0xDF6 JUMPI DUP2 SLOAD DUP2 DUP10 ADD MSTORE PUSH1 0x1 DUP3 ADD SWAP2 POP PUSH1 0x20 DUP2 ADD SWAP1 POP PUSH2 0xDD7 JUMP JUMPDEST DUP1 DUP9 ADD SWAP6 POP POP POP JUMPDEST POP POP POP SWAP3 SWAP2 POP POP JUMP JUMPDEST PUSH0 PUSH1 0x40 DUP3 ADD SWAP1 POP DUP2 DUP2 SUB PUSH0 DUP4 ADD MSTORE PUSH2 0xE1F DUP2 DUP6 PUSH2 0xD86 JUMP JUMPDEST SWAP1 POP DUP2 DUP2 SUB PUSH1 0x20 DUP4 ADD MSTORE PUSH2 0xE33 DUP2 DUP5 PUSH2 0x921 JUMP JUMPDEST SWAP1 POP SWAP4 SWAP3 POP POP POP JUMP JUMPDEST PUSH0 PUSH1 0x20 PUSH1 0x1F DUP4 ADD DIV SWAP1 POP SWAP2 SWAP1 POP JUMP JUMPDEST PUSH0 DUP3 DUP3 SHL SWAP1 POP SWAP3 SWAP2 POP POP JUMP JUMPDEST PUSH0 PUSH1 0x8 DUP4 MUL PUSH2 0xE86 PUSH32 0xFFFFFFFFFFFFFFFFFFFFFFFFFFFFFFFFFFFFFFFFFFFFFFFFFFFFFFFFFFFFFFFF DUP3 PUSH2 0xE4B JUMP JUMPDEST PUSH2 0xE90 DUP7 DUP4 PUSH2 0xE4B JUMP JUMPDEST SWAP6 POP DUP1 NOT DUP5 AND SWAP4 POP DUP1 DUP7 AND DUP5 OR SWAP3 POP POP POP SWAP4 SWAP3 POP POP POP JUMP JUMPDEST PUSH0 DUP2 SWAP1 POP SWAP2 SWAP1 POP JUMP JUMPDEST PUSH0 PUSH2 0xECB PUSH2 0xEC6 PUSH2 0xEC1 DUP5 PUSH2 0x728 JUMP JUMPDEST PUSH2 0xEA8 JUMP JUMPDEST PUSH2 0x728 JUMP JUMPDEST SWAP1 POP SWAP2 SWAP1 POP JUMP JUMPDEST PUSH0 DUP2 SWAP1 POP SWAP2 SWAP1 POP JUMP JUMPDEST PUSH2 0xEE4 DUP4 PUSH2 0xEB1 JUMP JUMPDEST PUSH2 0xEF8 PUSH2 0xEF0 DUP3 PUSH2 0xED2 JUMP JUMPDEST DUP5 DUP5 SLOAD PUSH2 0xE57 JUMP JUMPDEST DUP3 SSTORE POP POP POP POP JUMP JUMPDEST PUSH0 PUSH0 SWAP1 POP SWAP1 JUMP JUMPDEST PUSH2 0xF0F PUSH2 0xF00 JUMP JUMPDEST PUSH2 0xF1A DUP2 DUP5 DUP5 PUSH2 0xEDB JUMP JUMPDEST POP POP POP JUMP JUMPDEST JUMPDEST DUP2 DUP2 LT ISZERO PUSH2 0xF3D JUMPI PUSH2 0xF32 PUSH0 DUP3 PUSH2 0xF07 JUMP JUMPDEST PUSH1 0x1 DUP2 ADD SWAP1 POP PUSH2 0xF20 JUMP JUMPDEST POP POP JUMP JUMPDEST PUSH1 0x1F DUP3 GT ISZERO PUSH2 0xF82 JUMPI PUSH2 0xF53 DUP2 PUSH2 0xD74 JUMP JUMPDEST PUSH2 0xF5C DUP5 PUSH2 0xE3C JUMP JUMPDEST DUP2 ADD PUSH1 0x20 DUP6 LT ISZERO PUSH2 0xF6B JUMPI DUP2 SWAP1 POP JUMPDEST PUSH2 0xF7F PUSH2 0xF77 DUP6 PUSH2 0xE3C JUMP JUMPDEST DUP4 ADD DUP3 PUSH2 0xF1F JUMP JUMPDEST POP POP JUMPDEST POP POP POP JUMP JUMPDEST PUSH0 DUP3 DUP3 SHR SWAP1 POP SWAP3 SWAP2 POP POP JUMP JUMPDEST PUSH0 PUSH2 0xFA2 PUSH0 NOT DUP5 PUSH1 0x8 MUL PUSH2 0xF87 JUMP JUMPDEST NOT DUP1 DUP4 AND SWAP2 POP POP SWAP3 SWAP2 POP POP JUMP JUMPDEST PUSH0 PUSH2 0xFBA DUP4 DUP4 PUSH2 0xF93 JUMP JUMPDEST SWAP2 POP DUP3 PUSH1 0x2 MUL DUP3 OR SWAP1 POP SWAP3 SWAP2 POP POP JUMP JUMPDEST PUSH2 0xFD3 DUP3 PUSH2 0x909 JUMP JUMPDEST PUSH8 0xFFFFFFFFFFFFFFFF DUP2 GT ISZERO PUSH2 0xFEC JUMPI PUSH2 0xFEB PUSH2 0xA47 JUMP JUMPDEST JUMPDEST PUSH2 0xFF6 DUP3 SLOAD PUSH2 0xD44 JUMP JUMPDEST PUSH2 0x1001 DUP3 DUP3 DUP6 PUSH2 0xF41 JUMP JUMPDEST PUSH0 PUSH1 0x20 SWAP1 POP PUSH1 0x1F DUP4 GT PUSH1 0x1 DUP2 EQ PUSH2 0x1032 JUMPI PUSH0 DUP5 ISZERO PUSH2 0x1020 JUMPI DUP3 DUP8 ADD MLOAD SWAP1 POP JUMPDEST PUSH2 0x102A DUP6 DUP3 PUSH2 0xFAF JUMP JUMPDEST DUP7 SSTORE POP PUSH2 0x1091 JUMP JUMPDEST PUSH1 0x1F NOT DUP5 AND PUSH2 0x1040 DUP7 PUSH2 0xD74 JUMP JUMPDEST PUSH0 JUMPDEST DUP3 DUP2 LT ISZERO PUSH2 0x1067 JUMPI DUP5 DUP10 ADD MLOAD DUP3 SSTORE PUSH1 0x1 DUP3 ADD SWAP2 POP PUSH1 0x20 DUP6 ADD SWAP5 POP PUSH1 0x20 DUP2 ADD SWAP1 POP PUSH2 0x1042 JUMP JUMPDEST DUP7 DUP4 LT ISZERO PUSH2 0x1084 JUMPI DUP5 DUP10 ADD MLOAD PUSH2 0x1080 PUSH1 0x1F DUP10 AND DUP3 PUSH2 0xF93 JUMP JUMPDEST DUP4 SSTORE POP JUMPDEST PUSH1 0x1 PUSH1 0x2 DUP9 MUL ADD DUP9 SSTORE POP POP POP JUMPDEST POP POP POP POP POP POP JUMP JUMPDEST PUSH32 0x4E487B7100000000000000000000000000000000000000000000000000000000 PUSH0 MSTORE PUSH1 0x32 PUSH1 0x4 MSTORE PUSH1 0x24 PUSH0 REVERT JUMPDEST PUSH32 0x4E487B7100000000000000000000000000000000000000000000000000000000 PUSH0 MSTORE PUSH1 0x11 PUSH1 0x4 MSTORE PUSH1 0x24 PUSH0 REVERT JUMPDEST PUSH0 PUSH2 0x10FD DUP3 PUSH2 0x728 JUMP JUMPDEST SWAP2 POP PUSH2 0x1108 DUP4 PUSH2 0x728 JUMP JUMPDEST SWAP3 POP DUP3 DUP3 ADD SWAP1 POP DUP1 DUP3 GT ISZERO PUSH2 0x1120 JUMPI PUSH2 0x111F PUSH2 0x10C6 JUMP JUMPDEST JUMPDEST SWAP3 SWAP2 POP POP JUMP INVALID LOG2 PUSH5 0x6970667358 0x22 SLT KECCAK256 PUSH13 0xF2E8B151D2BF83590561A6BF4 0xD5 EOFCREATE 0x15 0xB9 SWAP1 0xD PUSH10 0x43CA852EB5F1A144CDD4 GT PUSH5 0x736F6C6343 STOP ADDMOD 0x1E STOP CALLER "
				},
				"gasEstimates": {
					"creation": {
						"codeDepositCost": "888800",
						"executionCost": "infinite",
						"totalCost": "infinite"
					},
					"external": {
						"contohArray(uint256[])": "infinite",
						"contohStringCalldata(string)": "infinite",
						"dataBytes()": "infinite",
						"dynamicArray(uint256)": "infinite",
						"externalFunction()": "2455",
						"lihatNama()": "infinite",
						"mhs()": "infinite",
						"nama()": "infinite",
						"pemilik()": "2648",
						"status()": "2512",
						"tambah(uint256,uint256)": "infinite",
						"tambahArray(uint256)": "46845",
						"terimaETH()": "141",
						"ubahNama(string)": "infinite",
						"umur()": "2448"
					},
					"internal": {
						"internalFunction()": "infinite"
					}
				},
				"methodIdentifiers": {
					"contohArray(uint256[])": "d78fb117",
					"contohStringCalldata(string)": "29247dc1",
					"dataBytes()": "64f0dbab",
					"dynamicArray(uint256)": "9a9bdca7",
					"externalFunction()": "3a32b549",
					"lihatNama()": "46a3967b",
					"mhs()": "d0de3f63",
					"nama()": "a50bbe1b",
					"pemilik()": "6ebcd2c2",
					"status()": "200d2ed2",
					"tambah(uint256,uint256)": "f604bf57",
					"tambahArray(uint256)": "055c4299",
					"terimaETH()": "c4a759d2",
					"ubahNama(string)": "b503ba35",
					"umur()": "73a38cb3"
				}
			},
			"storageLayout": {
				"storage": [
					{
						"astId": 4,
						"contract": "contracts/belajar/tes.sol:ContohStorage",
						"label": "nama",
						"offset": 0,
						"slot": "0",
						"type": "t_string_storage"
					},
					{
						"astId": 7,
						"contract": "contracts/belajar/tes.sol:ContohStorage",
						"label": "umur",
						"offset": 0,
						"slot": "1",
						"type": "t_uint256"
					},
					{
						"astId": 10,
						"contract": "contracts/belajar/tes.sol:ContohStorage",
						"label": "dataBytes",
						"offset": 0,
						"slot": "2",
						"type": "t_bytes_storage"
					},
					{
						"astId": 13,
						"contract": "contracts/belajar/tes.sol:ContohStorage",
						"label": "dynamicArray",
						"offset": 0,
						"slot": "3",
						"type": "t_array(t_uint256)dyn_storage"
					},
					{
						"astId": 25,
						"contract": "contracts/belajar/tes.sol:ContohStorage",
						"label": "mhs",
						"offset": 0,
						"slot": "4",
						"type": "t_struct(Mahasiswa)18_storage"
					},
					{
						"astId": 28,
						"contract": "contracts/belajar/tes.sol:ContohStorage",
						"label": "status",
						"offset": 0,
						"slot": "6",
						"type": "t_bool"
					},
					{
						"astId": 30,
						"contract": "contracts/belajar/tes.sol:ContohStorage",
						"label": "pemilik",
						"offset": 1,
						"slot": "6",
						"type": "t_address"
					}
				],
				"types": {
					"t_address": {
						"encoding": "inplace",
						"label": "address",
						"numberOfBytes": "20"
					},
					"t_array(t_uint256)dyn_storage": {
						"base": "t_uint256",
						"encoding": "dynamic_array",
						"label": "uint256[]",
						"numberOfBytes": "32"
					},
					"t_bool": {
						"encoding": "inplace",
						"label": "bool",
						"numberOfBytes": "1"
					},
					"t_bytes_storage": {
						"encoding": "bytes",
						"label": "bytes",
						"numberOfBytes": "32"
					},
					"t_string_storage": {
						"encoding": "bytes",
						"label": "string",
						"numberOfBytes": "32"
					},
					"t_struct(Mahasiswa)18_storage": {
						"encoding": "inplace",
						"label": "struct ContohStorage.Mahasiswa",
						"members": [
							{
								"astId": 15,
								"contract": "contracts/belajar/tes.sol:ContohStorage",
								"label": "nama",
								"offset": 0,
								"slot": "0",
								"type": "t_string_storage"
							},
							{
								"astId": 17,
								"contract": "contracts/belajar/tes.sol:ContohStorage",
								"label": "umur",
								"offset": 0,
								"slot": "1",
								"type": "t_uint256"
							}
						],
						"numberOfBytes": "64"
					},
					"t_uint256": {
						"encoding": "inplace",
						"label": "uint256",
						"numberOfBytes": "32"
					}
				}
			},
			"userdoc": {
				"kind": "user",
				"methods": {},
				"version": 1
			}
		}
	}
}