{
	"contracts/belajar/sc_wallet/wallet.sol": {
		"SimpleWallet": {
			"abi": [
				{
					"inputs": [],
					"stateMutability": "nonpayable",
					"type": "constructor"
				},
				{
					"anonymous": false,
					"inputs": [
						{
							"indexed": true,
							"internalType": "address",
							"name": "user",
							"type": "address"
						},
						{
							"indexed": false,
							"internalType": "uint256",
							"name": "amount",
							"type": "uint256"
						}
					],
					"name": "Deposit",
					"type": "event"
				},
				{
					"anonymous": false,
					"inputs": [
						{
							"indexed": true,
							"internalType": "address",
							"name": "from",
							"type": "address"
						},
						{
							"indexed": true,
							"internalType": "address",
							"name": "to",
							"type": "address"
						},
						{
							"indexed": false,
							"internalType": "uint256",
							"name": "amount",
							"type": "uint256"
						}
					],
					"name": "Transfer",
					"type": "event"
				},
				{
					"anonymous": false,
					"inputs": [
						{
							"indexed": true,
							"internalType": "address",
							"name": "user",
							"type": "address"
						},
						{
							"indexed": false,
							"internalType": "uint256",
							"name": "amount",
							"type": "uint256"
						}
					],
					"name": "Withdraw",
					"type": "event"
				},
				{
					"stateMutability": "payable",
					"type": "fallback"
				},
				{
					"inputs": [
						{
							"internalType": "address",
							"name": "",
							"type": "address"
						}
					],
					"name": "balances",
					"outputs": [
						{
							"internalType": "uint256",
							"name": "",
							"type": "uint256"
						}
					],
					"stateMutability": "view",
					"type": "function"
				},
				{
					"inputs": [],
					"name": "deposit",
					"outputs": [],
					"stateMutability": "payable",
					"type": "function"
				},
				{
					"inputs": [
						{
							"internalType": "address",
							"name": "user",
							"type": "address"
						}
					],
					"name": "getBalance",
					"outputs": [
						{
							"internalType": "uint256",
							"name": "",
							"type": "uint256"
						}
					],
					"stateMutability": "view",
					"type": "function"
				},
				{
					"inputs": [
						{
							"internalType": "address",
							"name": "to",
							"type": "address"
						},
						{
							"internalType": "uint256",
							"name": "amount",
							"type": "uint256"
						}
					],
					"name": "transfer",
					"outputs": [],
					"stateMutability": "nonpayable",
					"type": "function"
				},
				{
					"inputs": [
						{
							"internalType": "uint256",
							"name": "amount",
							"type": "uint256"
						}
					],
					"name": "withdraw",
					"outputs": [],
					"stateMutability": "nonpayable",
					"type": "function"
				},
				{
					"stateMutability": "payable",
					"type": "receive"
				}
			],
			"devdoc": {
				"kind": "dev",
				"methods": {},
				"version": 1
			},
			"evm": {
				"assembly": "    /* \"contracts/belajar/sc_wallet/wallet.sol\":60:3404  contract SimpleWallet {... */\n  mstore(0x40, 0x80)\n    /* \"contracts/belajar/sc_wallet/wallet.sol\":117:168  constructor() {... */\n  callvalue\n  dup1\n  iszero\n  tag_1\n  jumpi\n  revert(0x00, 0x00)\ntag_1:\n  pop\n    /* \"contracts/belajar/sc_wallet/wallet.sol\":150:160  msg.sender */\n  caller\n    /* \"contracts/belajar/sc_wallet/wallet.sol\":142:147  owner */\n  0x00\n  0x00\n    /* \"contracts/belajar/sc_wallet/wallet.sol\":142:160  owner = msg.sender */\n  0x0100\n  exp\n  dup2\n  sload\n  dup2\n  0xffffffffffffffffffffffffffffffffffffffff\n  mul\n  not\n  and\n  swap1\n  dup4\n  0xffffffffffffffffffffffffffffffffffffffff\n  and\n  mul\n  or\n  swap1\n  sstore\n  pop\n    /* \"contracts/belajar/sc_wallet/wallet.sol\":60:3404  contract SimpleWallet {... */\n  dataSize(sub_0)\n  dup1\n  dataOffset(sub_0)\n  0x00\n  codecopy\n  0x00\n  return\nstop\n\nsub_0: assembly {\n        /* \"contracts/belajar/sc_wallet/wallet.sol\":60:3404  contract SimpleWallet {... */\n      mstore(0x40, 0x80)\n      jumpi(tag_1, lt(calldatasize, 0x04))\n      shr(0xe0, calldataload(0x00))\n      dup1\n      0x27e235e3\n      eq\n      tag_3\n      jumpi\n      dup1\n      0x2e1a7d4d\n      eq\n      tag_4\n      jumpi\n      dup1\n      0xa9059cbb\n      eq\n      tag_5\n      jumpi\n      dup1\n      0xd0e30db0\n      eq\n      tag_6\n      jumpi\n      dup1\n      0xf8b2cb4f\n      eq\n      tag_7\n      jumpi\n      jump(tag_2)\n    tag_1:\n      jumpi(tag_2, calldatasize)\n        /* \"contracts/belajar/sc_wallet/wallet.sol\":1371:1381  _deposit() */\n      tag_10\n        /* \"contracts/belajar/sc_wallet/wallet.sol\":1371:1379  _deposit */\n      tag_11\n        /* \"contracts/belajar/sc_wallet/wallet.sol\":1371:1381  _deposit() */\n      jump\t// in\n    tag_10:\n        /* \"contracts/belajar/sc_wallet/wallet.sol\":60:3404  contract SimpleWallet {... */\n      stop\n    tag_2:\n        /* \"contracts/belajar/sc_wallet/wallet.sol\":1548:1558  _deposit() */\n      tag_14\n        /* \"contracts/belajar/sc_wallet/wallet.sol\":1548:1556  _deposit */\n      tag_11\n        /* \"contracts/belajar/sc_wallet/wallet.sol\":1548:1558  _deposit() */\n      jump\t// in\n    tag_14:\n        /* \"contracts/belajar/sc_wallet/wallet.sol\":60:3404  contract SimpleWallet {... */\n      stop\n        /* \"contracts/belajar/sc_wallet/wallet.sol\":220:260  mapping(address => uint) public balances */\n    tag_3:\n      callvalue\n      dup1\n      iszero\n      tag_15\n      jumpi\n      revert(0x00, 0x00)\n    tag_15:\n      pop\n      tag_16\n      0x04\n      dup1\n      calldatasize\n      sub\n      dup2\n      add\n      swap1\n      tag_17\n      swap2\n      swap1\n      tag_18\n      jump\t// in\n    tag_17:\n      tag_19\n      jump\t// in\n    tag_16:\n      mload(0x40)\n      tag_20\n      swap2\n      swap1\n      tag_21\n      jump\t// in\n    tag_20:\n      mload(0x40)\n      dup1\n      swap2\n      sub\n      swap1\n      return\n        /* \"contracts/belajar/sc_wallet/wallet.sol\":2363:2682  function withdraw(uint amount) external {... */\n    tag_4:\n      callvalue\n      dup1\n      iszero\n      tag_22\n      jumpi\n      revert(0x00, 0x00)\n    tag_22:\n      pop\n      tag_23\n      0x04\n      dup1\n      calldatasize\n      sub\n      dup2\n      add\n      swap1\n      tag_24\n      swap2\n      swap1\n      tag_25\n      jump\t// in\n    tag_24:\n      tag_26\n      jump\t// in\n    tag_23:\n      stop\n        /* \"contracts/belajar/sc_wallet/wallet.sol\":1947:2263  function transfer(address to, uint amount) external {... */\n    tag_5:\n      callvalue\n      dup1\n      iszero\n      tag_27\n      jumpi\n      revert(0x00, 0x00)\n    tag_27:\n      pop\n      tag_28\n      0x04\n      dup1\n      calldatasize\n      sub\n      dup2\n      add\n      swap1\n      tag_29\n      swap2\n      swap1\n      tag_30\n      jump\t// in\n    tag_29:\n      tag_31\n      jump\t// in\n    tag_28:\n      stop\n        /* \"contracts/belajar/sc_wallet/wallet.sol\":1153:1218  function deposit() external payable {... */\n    tag_6:\n      tag_32\n      tag_33\n      jump\t// in\n    tag_32:\n      stop\n        /* \"contracts/belajar/sc_wallet/wallet.sol\":1697:1800  function getBalance(address user) external view returns (uint) {... */\n    tag_7:\n      callvalue\n      dup1\n      iszero\n      tag_34\n      jumpi\n      revert(0x00, 0x00)\n    tag_34:\n      pop\n      tag_35\n      0x04\n      dup1\n      calldatasize\n      sub\n      dup2\n      add\n      swap1\n      tag_36\n      swap2\n      swap1\n      tag_18\n      jump\t// in\n    tag_36:\n      tag_37\n      jump\t// in\n    tag_35:\n      mload(0x40)\n      tag_38\n      swap2\n      swap1\n      tag_21\n      jump\t// in\n    tag_38:\n      mload(0x40)\n      dup1\n      swap2\n      sub\n      swap1\n      return\n        /* \"contracts/belajar/sc_wallet/wallet.sol\":664:982  function _deposit() private {... */\n    tag_11:\n        /* \"contracts/belajar/sc_wallet/wallet.sol\":774:775  0 */\n      0x00\n        /* \"contracts/belajar/sc_wallet/wallet.sol\":762:771  msg.value */\n      callvalue\n        /* \"contracts/belajar/sc_wallet/wallet.sol\":762:775  msg.value > 0 */\n      gt\n        /* \"contracts/belajar/sc_wallet/wallet.sol\":754:801  require(msg.value > 0, \"Deposit tidak boleh 0\") */\n      tag_40\n      jumpi\n      mload(0x40)\n      0x08c379a000000000000000000000000000000000000000000000000000000000\n      dup2\n      mstore\n      0x04\n      add\n      tag_41\n      swap1\n      tag_42\n      jump\t// in\n    tag_41:\n      mload(0x40)\n      dup1\n      swap2\n      sub\n      swap1\n      revert\n    tag_40:\n        /* \"contracts/belajar/sc_wallet/wallet.sol\":886:895  msg.value */\n      callvalue\n        /* \"contracts/belajar/sc_wallet/wallet.sol\":862:870  balances */\n      0x01\n        /* \"contracts/belajar/sc_wallet/wallet.sol\":862:882  balances[msg.sender] */\n      0x00\n        /* \"contracts/belajar/sc_wallet/wallet.sol\":871:881  msg.sender */\n      caller\n        /* \"contracts/belajar/sc_wallet/wallet.sol\":862:882  balances[msg.sender] */\n      0xffffffffffffffffffffffffffffffffffffffff\n      and\n      0xffffffffffffffffffffffffffffffffffffffff\n      and\n      dup2\n      mstore\n      0x20\n      add\n      swap1\n      dup2\n      mstore\n      0x20\n      add\n      0x00\n      keccak256\n      0x00\n        /* \"contracts/belajar/sc_wallet/wallet.sol\":862:895  balances[msg.sender] += msg.value */\n      dup3\n      dup3\n      sload\n      tag_43\n      swap2\n      swap1\n      tag_44\n      jump\t// in\n    tag_43:\n      swap3\n      pop\n      pop\n      dup2\n      swap1\n      sstore\n      pop\n        /* \"contracts/belajar/sc_wallet/wallet.sol\":952:962  msg.sender */\n      caller\n        /* \"contracts/belajar/sc_wallet/wallet.sol\":944:974  Deposit(msg.sender, msg.value) */\n      0xffffffffffffffffffffffffffffffffffffffff\n      and\n      0xe1fffcc4923d04b559f4d29a8bfc6cda04eb5b0d3c460751c2402c5c5cc9109c\n        /* \"contracts/belajar/sc_wallet/wallet.sol\":964:973  msg.value */\n      callvalue\n        /* \"contracts/belajar/sc_wallet/wallet.sol\":944:974  Deposit(msg.sender, msg.value) */\n      mload(0x40)\n      tag_45\n      swap2\n      swap1\n      tag_21\n      jump\t// in\n    tag_45:\n      mload(0x40)\n      dup1\n      swap2\n      sub\n      swap1\n      log2\n        /* \"contracts/belajar/sc_wallet/wallet.sol\":664:982  function _deposit() private {... */\n      jump\t// out\n        /* \"contracts/belajar/sc_wallet/wallet.sol\":220:260  mapping(address => uint) public balances */\n    tag_19:\n      mstore(0x20, 0x01)\n      dup1\n      0x00\n      mstore\n      keccak256(0x00, 0x40)\n      0x00\n      swap2\n      pop\n      swap1\n      pop\n      sload\n      dup2\n      jump\t// out\n        /* \"contracts/belajar/sc_wallet/wallet.sol\":2363:2682  function withdraw(uint amount) external {... */\n    tag_26:\n        /* \"contracts/belajar/sc_wallet/wallet.sol\":2446:2452  amount */\n      dup1\n        /* \"contracts/belajar/sc_wallet/wallet.sol\":2422:2430  balances */\n      0x01\n        /* \"contracts/belajar/sc_wallet/wallet.sol\":2422:2442  balances[msg.sender] */\n      0x00\n        /* \"contracts/belajar/sc_wallet/wallet.sol\":2431:2441  msg.sender */\n      caller\n        /* \"contracts/belajar/sc_wallet/wallet.sol\":2422:2442  balances[msg.sender] */\n      0xffffffffffffffffffffffffffffffffffffffff\n      and\n      0xffffffffffffffffffffffffffffffffffffffff\n      and\n      dup2\n      mstore\n      0x20\n      add\n      swap1\n      dup2\n      mstore\n      0x20\n      add\n      0x00\n      keccak256\n      sload\n        /* \"contracts/belajar/sc_wallet/wallet.sol\":2422:2452  balances[msg.sender] >= amount */\n      lt\n      iszero\n        /* \"contracts/belajar/sc_wallet/wallet.sol\":2414:2474  require(balances[msg.sender] >= amount, \"Saldo tidak cukup\") */\n      tag_47\n      jumpi\n      mload(0x40)\n      0x08c379a000000000000000000000000000000000000000000000000000000000\n      dup2\n      mstore\n      0x04\n      add\n      tag_48\n      swap1\n      tag_49\n      jump\t// in\n    tag_48:\n      mload(0x40)\n      dup1\n      swap2\n      sub\n      swap1\n      revert\n    tag_47:\n        /* \"contracts/belajar/sc_wallet/wallet.sol\":2511:2517  amount */\n      dup1\n        /* \"contracts/belajar/sc_wallet/wallet.sol\":2487:2495  balances */\n      0x01\n        /* \"contracts/belajar/sc_wallet/wallet.sol\":2487:2507  balances[msg.sender] */\n      0x00\n        /* \"contracts/belajar/sc_wallet/wallet.sol\":2496:2506  msg.sender */\n      caller\n        /* \"contracts/belajar/sc_wallet/wallet.sol\":2487:2507  balances[msg.sender] */\n      0xffffffffffffffffffffffffffffffffffffffff\n      and\n      0xffffffffffffffffffffffffffffffffffffffff\n      and\n      dup2\n      mstore\n      0x20\n      add\n      swap1\n      dup2\n      mstore\n      0x20\n      add\n      0x00\n      keccak256\n      0x00\n        /* \"contracts/belajar/sc_wallet/wallet.sol\":2487:2517  balances[msg.sender] -= amount */\n      dup3\n      dup3\n      sload\n      tag_50\n      swap2\n      swap1\n      tag_51\n      jump\t// in\n    tag_50:\n      swap3\n      pop\n      pop\n      dup2\n      swap1\n      sstore\n      pop\n        /* \"contracts/belajar/sc_wallet/wallet.sol\":2531:2543  bool success */\n      0x00\n        /* \"contracts/belajar/sc_wallet/wallet.sol\":2549:2559  msg.sender */\n      caller\n        /* \"contracts/belajar/sc_wallet/wallet.sol\":2549:2564  msg.sender.call */\n      0xffffffffffffffffffffffffffffffffffffffff\n      and\n        /* \"contracts/belajar/sc_wallet/wallet.sol\":2572:2578  amount */\n      dup3\n        /* \"contracts/belajar/sc_wallet/wallet.sol\":2549:2583  msg.sender.call{value: amount}(\"\") */\n      mload(0x40)\n      tag_52\n      swap1\n      tag_53\n      jump\t// in\n    tag_52:\n      0x00\n      mload(0x40)\n      dup1\n      dup4\n      sub\n      dup2\n      dup6\n      dup8\n      gas\n      call\n      swap3\n      pop\n      pop\n      pop\n      returndatasize\n      dup1\n      0x00\n      dup2\n      eq\n      tag_56\n      jumpi\n      mload(0x40)\n      swap2\n      pop\n      and(add(returndatasize, 0x3f), not(0x1f))\n      dup3\n      add\n      0x40\n      mstore\n      returndatasize\n      dup3\n      mstore\n      returndatasize\n      0x00\n      0x20\n      dup5\n      add\n      returndatacopy\n      jump(tag_55)\n    tag_56:\n      0x60\n      swap2\n      pop\n    tag_55:\n      pop\n        /* \"contracts/belajar/sc_wallet/wallet.sol\":2530:2583  (bool success, ) = msg.sender.call{value: amount}(\"\") */\n      pop\n      swap1\n      pop\n        /* \"contracts/belajar/sc_wallet/wallet.sol\":2602:2609  success */\n      dup1\n        /* \"contracts/belajar/sc_wallet/wallet.sol\":2594:2628  require(success, \"Withdraw gagal\") */\n      tag_57\n      jumpi\n      mload(0x40)\n      0x08c379a000000000000000000000000000000000000000000000000000000000\n      dup2\n      mstore\n      0x04\n      add\n      tag_58\n      swap1\n      tag_59\n      jump\t// in\n    tag_58:\n      mload(0x40)\n      dup1\n      swap2\n      sub\n      swap1\n      revert\n    tag_57:\n        /* \"contracts/belajar/sc_wallet/wallet.sol\":2655:2665  msg.sender */\n      caller\n        /* \"contracts/belajar/sc_wallet/wallet.sol\":2646:2674  Withdraw(msg.sender, amount) */\n      0xffffffffffffffffffffffffffffffffffffffff\n      and\n      0x884edad9ce6fa2440d8a54cc123490eb96d2768479d49ff9c7366125a9424364\n        /* \"contracts/belajar/sc_wallet/wallet.sol\":2667:2673  amount */\n      dup4\n        /* \"contracts/belajar/sc_wallet/wallet.sol\":2646:2674  Withdraw(msg.sender, amount) */\n      mload(0x40)\n      tag_60\n      swap2\n      swap1\n      tag_21\n      jump\t// in\n    tag_60:\n      mload(0x40)\n      dup1\n      swap2\n      sub\n      swap1\n      log2\n        /* \"contracts/belajar/sc_wallet/wallet.sol\":2403:2682  {... */\n      pop\n        /* \"contracts/belajar/sc_wallet/wallet.sol\":2363:2682  function withdraw(uint amount) external {... */\n      pop\n      jump\t// out\n        /* \"contracts/belajar/sc_wallet/wallet.sol\":1947:2263  function transfer(address to, uint amount) external {... */\n    tag_31:\n        /* \"contracts/belajar/sc_wallet/wallet.sol\":2042:2048  amount */\n      dup1\n        /* \"contracts/belajar/sc_wallet/wallet.sol\":2018:2026  balances */\n      0x01\n        /* \"contracts/belajar/sc_wallet/wallet.sol\":2018:2038  balances[msg.sender] */\n      0x00\n        /* \"contracts/belajar/sc_wallet/wallet.sol\":2027:2037  msg.sender */\n      caller\n        /* \"contracts/belajar/sc_wallet/wallet.sol\":2018:2038  balances[msg.sender] */\n      0xffffffffffffffffffffffffffffffffffffffff\n      and\n      0xffffffffffffffffffffffffffffffffffffffff\n      and\n      dup2\n      mstore\n      0x20\n      add\n      swap1\n      dup2\n      mstore\n      0x20\n      add\n      0x00\n      keccak256\n      sload\n        /* \"contracts/belajar/sc_wallet/wallet.sol\":2018:2048  balances[msg.sender] >= amount */\n      lt\n      iszero\n        /* \"contracts/belajar/sc_wallet/wallet.sol\":2010:2070  require(balances[msg.sender] >= amount, \"Saldo tidak cukup\") */\n      tag_62\n      jumpi\n      mload(0x40)\n      0x08c379a000000000000000000000000000000000000000000000000000000000\n      dup2\n      mstore\n      0x04\n      add\n      tag_63\n      swap1\n      tag_49\n      jump\t// in\n    tag_63:\n      mload(0x40)\n      dup1\n      swap2\n      sub\n      swap1\n      revert\n    tag_62:\n        /* \"contracts/belajar/sc_wallet/wallet.sol\":2103:2104  0 */\n      0x00\n        /* \"contracts/belajar/sc_wallet/wallet.sol\":2089:2105  to != address(0) */\n      0xffffffffffffffffffffffffffffffffffffffff\n      and\n        /* \"contracts/belajar/sc_wallet/wallet.sol\":2089:2091  to */\n      dup3\n        /* \"contracts/belajar/sc_wallet/wallet.sol\":2089:2105  to != address(0) */\n      0xffffffffffffffffffffffffffffffffffffffff\n      and\n      sub\n        /* \"contracts/belajar/sc_wallet/wallet.sol\":2081:2129  require(to != address(0), \"Address tidak valid\") */\n      tag_64\n      jumpi\n      mload(0x40)\n      0x08c379a000000000000000000000000000000000000000000000000000000000\n      dup2\n      mstore\n      0x04\n      add\n      tag_65\n      swap1\n      tag_66\n      jump\t// in\n    tag_65:\n      mload(0x40)\n      dup1\n      swap2\n      sub\n      swap1\n      revert\n    tag_64:\n        /* \"contracts/belajar/sc_wallet/wallet.sol\":2166:2172  amount */\n      dup1\n        /* \"contracts/belajar/sc_wallet/wallet.sol\":2142:2150  balances */\n      0x01\n        /* \"contracts/belajar/sc_wallet/wallet.sol\":2142:2162  balances[msg.sender] */\n      0x00\n        /* \"contracts/belajar/sc_wallet/wallet.sol\":2151:2161  msg.sender */\n      caller\n        /* \"contracts/belajar/sc_wallet/wallet.sol\":2142:2162  balances[msg.sender] */\n      0xffffffffffffffffffffffffffffffffffffffff\n      and\n      0xffffffffffffffffffffffffffffffffffffffff\n      and\n      dup2\n      mstore\n      0x20\n      add\n      swap1\n      dup2\n      mstore\n      0x20\n      add\n      0x00\n      keccak256\n      0x00\n        /* \"contracts/belajar/sc_wallet/wallet.sol\":2142:2172  balances[msg.sender] -= amount */\n      dup3\n      dup3\n      sload\n      tag_67\n      swap2\n      swap1\n      tag_51\n      jump\t// in\n    tag_67:\n      swap3\n      pop\n      pop\n      dup2\n      swap1\n      sstore\n      pop\n        /* \"contracts/belajar/sc_wallet/wallet.sol\":2199:2205  amount */\n      dup1\n        /* \"contracts/belajar/sc_wallet/wallet.sol\":2183:2191  balances */\n      0x01\n        /* \"contracts/belajar/sc_wallet/wallet.sol\":2183:2195  balances[to] */\n      0x00\n        /* \"contracts/belajar/sc_wallet/wallet.sol\":2192:2194  to */\n      dup5\n        /* \"contracts/belajar/sc_wallet/wallet.sol\":2183:2195  balances[to] */\n      0xffffffffffffffffffffffffffffffffffffffff\n      and\n      0xffffffffffffffffffffffffffffffffffffffff\n      and\n      dup2\n      mstore\n      0x20\n      add\n      swap1\n      dup2\n      mstore\n      0x20\n      add\n      0x00\n      keccak256\n      0x00\n        /* \"contracts/belajar/sc_wallet/wallet.sol\":2183:2205  balances[to] += amount */\n      dup3\n      dup3\n      sload\n      tag_68\n      swap2\n      swap1\n      tag_44\n      jump\t// in\n    tag_68:\n      swap3\n      pop\n      pop\n      dup2\n      swap1\n      sstore\n      pop\n        /* \"contracts/belajar/sc_wallet/wallet.sol\":2244:2246  to */\n      dup2\n        /* \"contracts/belajar/sc_wallet/wallet.sol\":2223:2255  Transfer(msg.sender, to, amount) */\n      0xffffffffffffffffffffffffffffffffffffffff\n      and\n        /* \"contracts/belajar/sc_wallet/wallet.sol\":2232:2242  msg.sender */\n      caller\n        /* \"contracts/belajar/sc_wallet/wallet.sol\":2223:2255  Transfer(msg.sender, to, amount) */\n      0xffffffffffffffffffffffffffffffffffffffff\n      and\n      0xddf252ad1be2c89b69c2b068fc378daa952ba7f163c4a11628f55a4df523b3ef\n        /* \"contracts/belajar/sc_wallet/wallet.sol\":2248:2254  amount */\n      dup4\n        /* \"contracts/belajar/sc_wallet/wallet.sol\":2223:2255  Transfer(msg.sender, to, amount) */\n      mload(0x40)\n      tag_69\n      swap2\n      swap1\n      tag_21\n      jump\t// in\n    tag_69:\n      mload(0x40)\n      dup1\n      swap2\n      sub\n      swap1\n      log3\n        /* \"contracts/belajar/sc_wallet/wallet.sol\":1947:2263  function transfer(address to, uint amount) external {... */\n      pop\n      pop\n      jump\t// out\n        /* \"contracts/belajar/sc_wallet/wallet.sol\":1153:1218  function deposit() external payable {... */\n    tag_33:\n        /* \"contracts/belajar/sc_wallet/wallet.sol\":1200:1210  _deposit() */\n      tag_71\n        /* \"contracts/belajar/sc_wallet/wallet.sol\":1200:1208  _deposit */\n      tag_11\n        /* \"contracts/belajar/sc_wallet/wallet.sol\":1200:1210  _deposit() */\n      jump\t// in\n    tag_71:\n        /* \"contracts/belajar/sc_wallet/wallet.sol\":1153:1218  function deposit() external payable {... */\n      jump\t// out\n        /* \"contracts/belajar/sc_wallet/wallet.sol\":1697:1800  function getBalance(address user) external view returns (uint) {... */\n    tag_37:\n        /* \"contracts/belajar/sc_wallet/wallet.sol\":1754:1758  uint */\n      0x00\n        /* \"contracts/belajar/sc_wallet/wallet.sol\":1778:1786  balances */\n      0x01\n        /* \"contracts/belajar/sc_wallet/wallet.sol\":1778:1792  balances[user] */\n      0x00\n        /* \"contracts/belajar/sc_wallet/wallet.sol\":1787:1791  user */\n      dup4\n        /* \"contracts/belajar/sc_wallet/wallet.sol\":1778:1792  balances[user] */\n      0xffffffffffffffffffffffffffffffffffffffff\n      and\n      0xffffffffffffffffffffffffffffffffffffffff\n      and\n      dup2\n      mstore\n      0x20\n      add\n      swap1\n      dup2\n      mstore\n      0x20\n      add\n      0x00\n      keccak256\n      sload\n        /* \"contracts/belajar/sc_wallet/wallet.sol\":1771:1792  return balances[user] */\n      swap1\n      pop\n        /* \"contracts/belajar/sc_wallet/wallet.sol\":1697:1800  function getBalance(address user) external view returns (uint) {... */\n      swap2\n      swap1\n      pop\n      jump\t// out\n        /* \"#utility.yul\":88:205   */\n    tag_74:\n        /* \"#utility.yul\":197:198   */\n      0x00\n        /* \"#utility.yul\":194:195   */\n      0x00\n        /* \"#utility.yul\":187:199   */\n      revert\n        /* \"#utility.yul\":334:460   */\n    tag_76:\n        /* \"#utility.yul\":371:378   */\n      0x00\n        /* \"#utility.yul\":411:453   */\n      0xffffffffffffffffffffffffffffffffffffffff\n        /* \"#utility.yul\":404:409   */\n      dup3\n        /* \"#utility.yul\":400:454   */\n      and\n        /* \"#utility.yul\":389:454   */\n      swap1\n      pop\n        /* \"#utility.yul\":334:460   */\n      swap2\n      swap1\n      pop\n      jump\t// out\n        /* \"#utility.yul\":466:562   */\n    tag_77:\n        /* \"#utility.yul\":503:510   */\n      0x00\n        /* \"#utility.yul\":532:556   */\n      tag_103\n        /* \"#utility.yul\":550:555   */\n      dup3\n        /* \"#utility.yul\":532:556   */\n      tag_76\n      jump\t// in\n    tag_103:\n        /* \"#utility.yul\":521:556   */\n      swap1\n      pop\n        /* \"#utility.yul\":466:562   */\n      swap2\n      swap1\n      pop\n      jump\t// out\n        /* \"#utility.yul\":568:690   */\n    tag_78:\n        /* \"#utility.yul\":641:665   */\n      tag_105\n        /* \"#utility.yul\":659:664   */\n      dup2\n        /* \"#utility.yul\":641:665   */\n      tag_77\n      jump\t// in\n    tag_105:\n        /* \"#utility.yul\":634:639   */\n      dup2\n        /* \"#utility.yul\":631:666   */\n      eq\n        /* \"#utility.yul\":621:684   */\n      tag_106\n      jumpi\n        /* \"#utility.yul\":680:681   */\n      0x00\n        /* \"#utility.yul\":677:678   */\n      0x00\n        /* \"#utility.yul\":670:682   */\n      revert\n        /* \"#utility.yul\":621:684   */\n    tag_106:\n        /* \"#utility.yul\":568:690   */\n      pop\n      jump\t// out\n        /* \"#utility.yul\":696:835   */\n    tag_79:\n        /* \"#utility.yul\":742:747   */\n      0x00\n        /* \"#utility.yul\":780:786   */\n      dup2\n        /* \"#utility.yul\":767:787   */\n      calldataload\n        /* \"#utility.yul\":758:787   */\n      swap1\n      pop\n        /* \"#utility.yul\":796:829   */\n      tag_108\n        /* \"#utility.yul\":823:828   */\n      dup2\n        /* \"#utility.yul\":796:829   */\n      tag_78\n      jump\t// in\n    tag_108:\n        /* \"#utility.yul\":696:835   */\n      swap3\n      swap2\n      pop\n      pop\n      jump\t// out\n        /* \"#utility.yul\":841:1170   */\n    tag_18:\n        /* \"#utility.yul\":900:906   */\n      0x00\n        /* \"#utility.yul\":949:951   */\n      0x20\n        /* \"#utility.yul\":937:946   */\n      dup3\n        /* \"#utility.yul\":928:935   */\n      dup5\n        /* \"#utility.yul\":924:947   */\n      sub\n        /* \"#utility.yul\":920:952   */\n      slt\n        /* \"#utility.yul\":917:1036   */\n      iszero\n      tag_110\n      jumpi\n        /* \"#utility.yul\":955:1034   */\n      tag_111\n      tag_74\n      jump\t// in\n    tag_111:\n        /* \"#utility.yul\":917:1036   */\n    tag_110:\n        /* \"#utility.yul\":1075:1076   */\n      0x00\n        /* \"#utility.yul\":1100:1153   */\n      tag_112\n        /* \"#utility.yul\":1145:1152   */\n      dup5\n        /* \"#utility.yul\":1136:1142   */\n      dup3\n        /* \"#utility.yul\":1125:1134   */\n      dup6\n        /* \"#utility.yul\":1121:1143   */\n      add\n        /* \"#utility.yul\":1100:1153   */\n      tag_79\n      jump\t// in\n    tag_112:\n        /* \"#utility.yul\":1090:1153   */\n      swap2\n      pop\n        /* \"#utility.yul\":1046:1163   */\n      pop\n        /* \"#utility.yul\":841:1170   */\n      swap3\n      swap2\n      pop\n      pop\n      jump\t// out\n        /* \"#utility.yul\":1176:1253   */\n    tag_80:\n        /* \"#utility.yul\":1213:1220   */\n      0x00\n        /* \"#utility.yul\":1242:1247   */\n      dup2\n        /* \"#utility.yul\":1231:1247   */\n      swap1\n      pop\n        /* \"#utility.yul\":1176:1253   */\n      swap2\n      swap1\n      pop\n      jump\t// out\n        /* \"#utility.yul\":1259:1377   */\n    tag_81:\n        /* \"#utility.yul\":1346:1370   */\n      tag_115\n        /* \"#utility.yul\":1364:1369   */\n      dup2\n        /* \"#utility.yul\":1346:1370   */\n      tag_80\n      jump\t// in\n    tag_115:\n        /* \"#utility.yul\":1341:1344   */\n      dup3\n        /* \"#utility.yul\":1334:1371   */\n      mstore\n        /* \"#utility.yul\":1259:1377   */\n      pop\n      pop\n      jump\t// out\n        /* \"#utility.yul\":1383:1605   */\n    tag_21:\n        /* \"#utility.yul\":1476:1480   */\n      0x00\n        /* \"#utility.yul\":1514:1516   */\n      0x20\n        /* \"#utility.yul\":1503:1512   */\n      dup3\n        /* \"#utility.yul\":1499:1517   */\n      add\n        /* \"#utility.yul\":1491:1517   */\n      swap1\n      pop\n        /* \"#utility.yul\":1527:1598   */\n      tag_117\n        /* \"#utility.yul\":1595:1596   */\n      0x00\n        /* \"#utility.yul\":1584:1593   */\n      dup4\n        /* \"#utility.yul\":1580:1597   */\n      add\n        /* \"#utility.yul\":1571:1577   */\n      dup5\n        /* \"#utility.yul\":1527:1598   */\n      tag_81\n      jump\t// in\n    tag_117:\n        /* \"#utility.yul\":1383:1605   */\n      swap3\n      swap2\n      pop\n      pop\n      jump\t// out\n        /* \"#utility.yul\":1611:1733   */\n    tag_82:\n        /* \"#utility.yul\":1684:1708   */\n      tag_119\n        /* \"#utility.yul\":1702:1707   */\n      dup2\n        /* \"#utility.yul\":1684:1708   */\n      tag_80\n      jump\t// in\n    tag_119:\n        /* \"#utility.yul\":1677:1682   */\n      dup2\n        /* \"#utility.yul\":1674:1709   */\n      eq\n        /* \"#utility.yul\":1664:1727   */\n      tag_120\n      jumpi\n        /* \"#utility.yul\":1723:1724   */\n      0x00\n        /* \"#utility.yul\":1720:1721   */\n      0x00\n        /* \"#utility.yul\":1713:1725   */\n      revert\n        /* \"#utility.yul\":1664:1727   */\n    tag_120:\n        /* \"#utility.yul\":1611:1733   */\n      pop\n      jump\t// out\n        /* \"#utility.yul\":1739:1878   */\n    tag_83:\n        /* \"#utility.yul\":1785:1790   */\n      0x00\n        /* \"#utility.yul\":1823:1829   */\n      dup2\n        /* \"#utility.yul\":1810:1830   */\n      calldataload\n        /* \"#utility.yul\":1801:1830   */\n      swap1\n      pop\n        /* \"#utility.yul\":1839:1872   */\n      tag_122\n        /* \"#utility.yul\":1866:1871   */\n      dup2\n        /* \"#utility.yul\":1839:1872   */\n      tag_82\n      jump\t// in\n    tag_122:\n        /* \"#utility.yul\":1739:1878   */\n      swap3\n      swap2\n      pop\n      pop\n      jump\t// out\n        /* \"#utility.yul\":1884:2213   */\n    tag_25:\n        /* \"#utility.yul\":1943:1949   */\n      0x00\n        /* \"#utility.yul\":1992:1994   */\n      0x20\n        /* \"#utility.yul\":1980:1989   */\n      dup3\n        /* \"#utility.yul\":1971:1978   */\n      dup5\n        /* \"#utility.yul\":1967:1990   */\n      sub\n        /* \"#utility.yul\":1963:1995   */\n      slt\n        /* \"#utility.yul\":1960:2079   */\n      iszero\n      tag_124\n      jumpi\n        /* \"#utility.yul\":1998:2077   */\n      tag_125\n      tag_74\n      jump\t// in\n    tag_125:\n        /* \"#utility.yul\":1960:2079   */\n    tag_124:\n        /* \"#utility.yul\":2118:2119   */\n      0x00\n        /* \"#utility.yul\":2143:2196   */\n      tag_126\n        /* \"#utility.yul\":2188:2195   */\n      dup5\n        /* \"#utility.yul\":2179:2185   */\n      dup3\n        /* \"#utility.yul\":2168:2177   */\n      dup6\n        /* \"#utility.yul\":2164:2186   */\n      add\n        /* \"#utility.yul\":2143:2196   */\n      tag_83\n      jump\t// in\n    tag_126:\n        /* \"#utility.yul\":2133:2196   */\n      swap2\n      pop\n        /* \"#utility.yul\":2089:2206   */\n      pop\n        /* \"#utility.yul\":1884:2213   */\n      swap3\n      swap2\n      pop\n      pop\n      jump\t// out\n        /* \"#utility.yul\":2219:2693   */\n    tag_30:\n        /* \"#utility.yul\":2287:2293   */\n      0x00\n        /* \"#utility.yul\":2295:2301   */\n      0x00\n        /* \"#utility.yul\":2344:2346   */\n      0x40\n        /* \"#utility.yul\":2332:2341   */\n      dup4\n        /* \"#utility.yul\":2323:2330   */\n      dup6\n        /* \"#utility.yul\":2319:2342   */\n      sub\n        /* \"#utility.yul\":2315:2347   */\n      slt\n        /* \"#utility.yul\":2312:2431   */\n      iszero\n      tag_128\n      jumpi\n        /* \"#utility.yul\":2350:2429   */\n      tag_129\n      tag_74\n      jump\t// in\n    tag_129:\n        /* \"#utility.yul\":2312:2431   */\n    tag_128:\n        /* \"#utility.yul\":2470:2471   */\n      0x00\n        /* \"#utility.yul\":2495:2548   */\n      tag_130\n        /* \"#utility.yul\":2540:2547   */\n      dup6\n        /* \"#utility.yul\":2531:2537   */\n      dup3\n        /* \"#utility.yul\":2520:2529   */\n      dup7\n        /* \"#utility.yul\":2516:2538   */\n      add\n        /* \"#utility.yul\":2495:2548   */\n      tag_79\n      jump\t// in\n    tag_130:\n        /* \"#utility.yul\":2485:2548   */\n      swap3\n      pop\n        /* \"#utility.yul\":2441:2558   */\n      pop\n        /* \"#utility.yul\":2597:2599   */\n      0x20\n        /* \"#utility.yul\":2623:2676   */\n      tag_131\n        /* \"#utility.yul\":2668:2675   */\n      dup6\n        /* \"#utility.yul\":2659:2665   */\n      dup3\n        /* \"#utility.yul\":2648:2657   */\n      dup7\n        /* \"#utility.yul\":2644:2666   */\n      add\n        /* \"#utility.yul\":2623:2676   */\n      tag_83\n      jump\t// in\n    tag_131:\n        /* \"#utility.yul\":2613:2676   */\n      swap2\n      pop\n        /* \"#utility.yul\":2568:2686   */\n      pop\n        /* \"#utility.yul\":2219:2693   */\n      swap3\n      pop\n      swap3\n      swap1\n      pop\n      jump\t// out\n        /* \"#utility.yul\":2699:2868   */\n    tag_84:\n        /* \"#utility.yul\":2783:2794   */\n      0x00\n        /* \"#utility.yul\":2817:2823   */\n      dup3\n        /* \"#utility.yul\":2812:2815   */\n      dup3\n        /* \"#utility.yul\":2805:2824   */\n      mstore\n        /* \"#utility.yul\":2857:2861   */\n      0x20\n        /* \"#utility.yul\":2852:2855   */\n      dup3\n        /* \"#utility.yul\":2848:2862   */\n      add\n        /* \"#utility.yul\":2833:2862   */\n      swap1\n      pop\n        /* \"#utility.yul\":2699:2868   */\n      swap3\n      swap2\n      pop\n      pop\n      jump\t// out\n        /* \"#utility.yul\":2874:3045   */\n    tag_85:\n        /* \"#utility.yul\":3014:3037   */\n      0x4465706f73697420746964616b20626f6c656820300000000000000000000000\n        /* \"#utility.yul\":3010:3011   */\n      0x00\n        /* \"#utility.yul\":3002:3008   */\n      dup3\n        /* \"#utility.yul\":2998:3012   */\n      add\n        /* \"#utility.yul\":2991:3038   */\n      mstore\n        /* \"#utility.yul\":2874:3045   */\n      pop\n      jump\t// out\n        /* \"#utility.yul\":3051:3417   */\n    tag_86:\n        /* \"#utility.yul\":3193:3196   */\n      0x00\n        /* \"#utility.yul\":3214:3281   */\n      tag_135\n        /* \"#utility.yul\":3278:3280   */\n      0x15\n        /* \"#utility.yul\":3273:3276   */\n      dup4\n        /* \"#utility.yul\":3214:3281   */\n      tag_84\n      jump\t// in\n    tag_135:\n        /* \"#utility.yul\":3207:3281   */\n      swap2\n      pop\n        /* \"#utility.yul\":3290:3383   */\n      tag_136\n        /* \"#utility.yul\":3379:3382   */\n      dup3\n        /* \"#utility.yul\":3290:3383   */\n      tag_85\n      jump\t// in\n    tag_136:\n        /* \"#utility.yul\":3408:3410   */\n      0x20\n        /* \"#utility.yul\":3403:3406   */\n      dup3\n        /* \"#utility.yul\":3399:3411   */\n      add\n        /* \"#utility.yul\":3392:3411   */\n      swap1\n      pop\n        /* \"#utility.yul\":3051:3417   */\n      swap2\n      swap1\n      pop\n      jump\t// out\n        /* \"#utility.yul\":3423:3842   */\n    tag_42:\n        /* \"#utility.yul\":3589:3593   */\n      0x00\n        /* \"#utility.yul\":3627:3629   */\n      0x20\n        /* \"#utility.yul\":3616:3625   */\n      dup3\n        /* \"#utility.yul\":3612:3630   */\n      add\n        /* \"#utility.yul\":3604:3630   */\n      swap1\n      pop\n        /* \"#utility.yul\":3676:3685   */\n      dup2\n        /* \"#utility.yul\":3670:3674   */\n      dup2\n        /* \"#utility.yul\":3666:3686   */\n      sub\n        /* \"#utility.yul\":3662:3663   */\n      0x00\n        /* \"#utility.yul\":3651:3660   */\n      dup4\n        /* \"#utility.yul\":3647:3664   */\n      add\n        /* \"#utility.yul\":3640:3687   */\n      mstore\n        /* \"#utility.yul\":3704:3835   */\n      tag_138\n        /* \"#utility.yul\":3830:3834   */\n      dup2\n        /* \"#utility.yul\":3704:3835   */\n      tag_86\n      jump\t// in\n    tag_138:\n        /* \"#utility.yul\":3696:3835   */\n      swap1\n      pop\n        /* \"#utility.yul\":3423:3842   */\n      swap2\n      swap1\n      pop\n      jump\t// out\n        /* \"#utility.yul\":3848:4028   */\n    tag_87:\n        /* \"#utility.yul\":3896:3973   */\n      0x4e487b7100000000000000000000000000000000000000000000000000000000\n        /* \"#utility.yul\":3893:3894   */\n      0x00\n        /* \"#utility.yul\":3886:3974   */\n      mstore\n        /* \"#utility.yul\":3993:3997   */\n      0x11\n        /* \"#utility.yul\":3990:3991   */\n      0x04\n        /* \"#utility.yul\":3983:3998   */\n      mstore\n        /* \"#utility.yul\":4017:4021   */\n      0x24\n        /* \"#utility.yul\":4014:4015   */\n      0x00\n        /* \"#utility.yul\":4007:4022   */\n      revert\n        /* \"#utility.yul\":4034:4225   */\n    tag_44:\n        /* \"#utility.yul\":4074:4077   */\n      0x00\n        /* \"#utility.yul\":4093:4113   */\n      tag_141\n        /* \"#utility.yul\":4111:4112   */\n      dup3\n        /* \"#utility.yul\":4093:4113   */\n      tag_80\n      jump\t// in\n    tag_141:\n        /* \"#utility.yul\":4088:4113   */\n      swap2\n      pop\n        /* \"#utility.yul\":4127:4147   */\n      tag_142\n        /* \"#utility.yul\":4145:4146   */\n      dup4\n        /* \"#utility.yul\":4127:4147   */\n      tag_80\n      jump\t// in\n    tag_142:\n        /* \"#utility.yul\":4122:4147   */\n      swap3\n      pop\n        /* \"#utility.yul\":4170:4171   */\n      dup3\n        /* \"#utility.yul\":4167:4168   */\n      dup3\n        /* \"#utility.yul\":4163:4172   */\n      add\n        /* \"#utility.yul\":4156:4172   */\n      swap1\n      pop\n        /* \"#utility.yul\":4191:4194   */\n      dup1\n        /* \"#utility.yul\":4188:4189   */\n      dup3\n        /* \"#utility.yul\":4185:4195   */\n      gt\n        /* \"#utility.yul\":4182:4218   */\n      iszero\n      tag_143\n      jumpi\n        /* \"#utility.yul\":4198:4216   */\n      tag_144\n      tag_87\n      jump\t// in\n    tag_144:\n        /* \"#utility.yul\":4182:4218   */\n    tag_143:\n        /* \"#utility.yul\":4034:4225   */\n      swap3\n      swap2\n      pop\n      pop\n      jump\t// out\n        /* \"#utility.yul\":4231:4398   */\n    tag_88:\n        /* \"#utility.yul\":4371:4390   */\n      0x53616c646f20746964616b2063756b7570000000000000000000000000000000\n        /* \"#utility.yul\":4367:4368   */\n      0x00\n        /* \"#utility.yul\":4359:4365   */\n      dup3\n        /* \"#utility.yul\":4355:4369   */\n      add\n        /* \"#utility.yul\":4348:4391   */\n      mstore\n        /* \"#utility.yul\":4231:4398   */\n      pop\n      jump\t// out\n        /* \"#utility.yul\":4404:4770   */\n    tag_89:\n        /* \"#utility.yul\":4546:4549   */\n      0x00\n        /* \"#utility.yul\":4567:4634   */\n      tag_147\n        /* \"#utility.yul\":4631:4633   */\n      0x11\n        /* \"#utility.yul\":4626:4629   */\n      dup4\n        /* \"#utility.yul\":4567:4634   */\n      tag_84\n      jump\t// in\n    tag_147:\n        /* \"#utility.yul\":4560:4634   */\n      swap2\n      pop\n        /* \"#utility.yul\":4643:4736   */\n      tag_148\n        /* \"#utility.yul\":4732:4735   */\n      dup3\n        /* \"#utility.yul\":4643:4736   */\n      tag_88\n      jump\t// in\n    tag_148:\n        /* \"#utility.yul\":4761:4763   */\n      0x20\n        /* \"#utility.yul\":4756:4759   */\n      dup3\n        /* \"#utility.yul\":4752:4764   */\n      add\n        /* \"#utility.yul\":4745:4764   */\n      swap1\n      pop\n        /* \"#utility.yul\":4404:4770   */\n      swap2\n      swap1\n      pop\n      jump\t// out\n        /* \"#utility.yul\":4776:5195   */\n    tag_49:\n        /* \"#utility.yul\":4942:4946   */\n      0x00\n        /* \"#utility.yul\":4980:4982   */\n      0x20\n        /* \"#utility.yul\":4969:4978   */\n      dup3\n        /* \"#utility.yul\":4965:4983   */\n      add\n        /* \"#utility.yul\":4957:4983   */\n      swap1\n      pop\n        /* \"#utility.yul\":5029:5038   */\n      dup2\n        /* \"#utility.yul\":5023:5027   */\n      dup2\n        /* \"#utility.yul\":5019:5039   */\n      sub\n        /* \"#utility.yul\":5015:5016   */\n      0x00\n        /* \"#utility.yul\":5004:5013   */\n      dup4\n        /* \"#utility.yul\":5000:5017   */\n      add\n        /* \"#utility.yul\":4993:5040   */\n      mstore\n        /* \"#utility.yul\":5057:5188   */\n      tag_150\n        /* \"#utility.yul\":5183:5187   */\n      dup2\n        /* \"#utility.yul\":5057:5188   */\n      tag_89\n      jump\t// in\n    tag_150:\n        /* \"#utility.yul\":5049:5188   */\n      swap1\n      pop\n        /* \"#utility.yul\":4776:5195   */\n      swap2\n      swap1\n      pop\n      jump\t// out\n        /* \"#utility.yul\":5201:5395   */\n    tag_51:\n        /* \"#utility.yul\":5241:5245   */\n      0x00\n        /* \"#utility.yul\":5261:5281   */\n      tag_152\n        /* \"#utility.yul\":5279:5280   */\n      dup3\n        /* \"#utility.yul\":5261:5281   */\n      tag_80\n      jump\t// in\n    tag_152:\n        /* \"#utility.yul\":5256:5281   */\n      swap2\n      pop\n        /* \"#utility.yul\":5295:5315   */\n      tag_153\n        /* \"#utility.yul\":5313:5314   */\n      dup4\n        /* \"#utility.yul\":5295:5315   */\n      tag_80\n      jump\t// in\n    tag_153:\n        /* \"#utility.yul\":5290:5315   */\n      swap3\n      pop\n        /* \"#utility.yul\":5339:5340   */\n      dup3\n        /* \"#utility.yul\":5336:5337   */\n      dup3\n        /* \"#utility.yul\":5332:5341   */\n      sub\n        /* \"#utility.yul\":5324:5341   */\n      swap1\n      pop\n        /* \"#utility.yul\":5363:5364   */\n      dup2\n        /* \"#utility.yul\":5357:5361   */\n      dup2\n        /* \"#utility.yul\":5354:5365   */\n      gt\n        /* \"#utility.yul\":5351:5388   */\n      iszero\n      tag_154\n      jumpi\n        /* \"#utility.yul\":5368:5386   */\n      tag_155\n      tag_87\n      jump\t// in\n    tag_155:\n        /* \"#utility.yul\":5351:5388   */\n    tag_154:\n        /* \"#utility.yul\":5201:5395   */\n      swap3\n      swap2\n      pop\n      pop\n      jump\t// out\n        /* \"#utility.yul\":5401:5548   */\n    tag_90:\n        /* \"#utility.yul\":5502:5513   */\n      0x00\n        /* \"#utility.yul\":5539:5542   */\n      dup2\n        /* \"#utility.yul\":5524:5542   */\n      swap1\n      pop\n        /* \"#utility.yul\":5401:5548   */\n      swap3\n      swap2\n      pop\n      pop\n      jump\t// out\n        /* \"#utility.yul\":5554:5668   */\n    tag_91:\n      pop\n      jump\t// out\n        /* \"#utility.yul\":5674:6072   */\n    tag_92:\n        /* \"#utility.yul\":5833:5836   */\n      0x00\n        /* \"#utility.yul\":5854:5937   */\n      tag_159\n        /* \"#utility.yul\":5935:5936   */\n      0x00\n        /* \"#utility.yul\":5930:5933   */\n      dup4\n        /* \"#utility.yul\":5854:5937   */\n      tag_90\n      jump\t// in\n    tag_159:\n        /* \"#utility.yul\":5847:5937   */\n      swap2\n      pop\n        /* \"#utility.yul\":5946:6039   */\n      tag_160\n        /* \"#utility.yul\":6035:6038   */\n      dup3\n        /* \"#utility.yul\":5946:6039   */\n      tag_91\n      jump\t// in\n    tag_160:\n        /* \"#utility.yul\":6064:6065   */\n      0x00\n        /* \"#utility.yul\":6059:6062   */\n      dup3\n        /* \"#utility.yul\":6055:6066   */\n      add\n        /* \"#utility.yul\":6048:6066   */\n      swap1\n      pop\n        /* \"#utility.yul\":5674:6072   */\n      swap2\n      swap1\n      pop\n      jump\t// out\n        /* \"#utility.yul\":6078:6457   */\n    tag_53:\n        /* \"#utility.yul\":6262:6265   */\n      0x00\n        /* \"#utility.yul\":6284:6431   */\n      tag_162\n        /* \"#utility.yul\":6427:6430   */\n      dup3\n        /* \"#utility.yul\":6284:6431   */\n      tag_92\n      jump\t// in\n    tag_162:\n        /* \"#utility.yul\":6277:6431   */\n      swap2\n      pop\n        /* \"#utility.yul\":6448:6451   */\n      dup2\n        /* \"#utility.yul\":6441:6451   */\n      swap1\n      pop\n        /* \"#utility.yul\":6078:6457   */\n      swap2\n      swap1\n      pop\n      jump\t// out\n        /* \"#utility.yul\":6463:6627   */\n    tag_93:\n        /* \"#utility.yul\":6603:6619   */\n      0x576974686472617720676167616c000000000000000000000000000000000000\n        /* \"#utility.yul\":6599:6600   */\n      0x00\n        /* \"#utility.yul\":6591:6597   */\n      dup3\n        /* \"#utility.yul\":6587:6601   */\n      add\n        /* \"#utility.yul\":6580:6620   */\n      mstore\n        /* \"#utility.yul\":6463:6627   */\n      pop\n      jump\t// out\n        /* \"#utility.yul\":6633:6999   */\n    tag_94:\n        /* \"#utility.yul\":6775:6778   */\n      0x00\n        /* \"#utility.yul\":6796:6863   */\n      tag_165\n        /* \"#utility.yul\":6860:6862   */\n      0x0e\n        /* \"#utility.yul\":6855:6858   */\n      dup4\n        /* \"#utility.yul\":6796:6863   */\n      tag_84\n      jump\t// in\n    tag_165:\n        /* \"#utility.yul\":6789:6863   */\n      swap2\n      pop\n        /* \"#utility.yul\":6872:6965   */\n      tag_166\n        /* \"#utility.yul\":6961:6964   */\n      dup3\n        /* \"#utility.yul\":6872:6965   */\n      tag_93\n      jump\t// in\n    tag_166:\n        /* \"#utility.yul\":6990:6992   */\n      0x20\n        /* \"#utility.yul\":6985:6988   */\n      dup3\n        /* \"#utility.yul\":6981:6993   */\n      add\n        /* \"#utility.yul\":6974:6993   */\n      swap1\n      pop\n        /* \"#utility.yul\":6633:6999   */\n      swap2\n      swap1\n      pop\n      jump\t// out\n        /* \"#utility.yul\":7005:7424   */\n    tag_59:\n        /* \"#utility.yul\":7171:7175   */\n      0x00\n        /* \"#utility.yul\":7209:7211   */\n      0x20\n        /* \"#utility.yul\":7198:7207   */\n      dup3\n        /* \"#utility.yul\":7194:7212   */\n      add\n        /* \"#utility.yul\":7186:7212   */\n      swap1\n      pop\n        /* \"#utility.yul\":7258:7267   */\n      dup2\n        /* \"#utility.yul\":7252:7256   */\n      dup2\n        /* \"#utility.yul\":7248:7268   */\n      sub\n        /* \"#utility.yul\":7244:7245   */\n      0x00\n        /* \"#utility.yul\":7233:7242   */\n      dup4\n        /* \"#utility.yul\":7229:7246   */\n      add\n        /* \"#utility.yul\":7222:7269   */\n      mstore\n        /* \"#utility.yul\":7286:7417   */\n      tag_168\n        /* \"#utility.yul\":7412:7416   */\n      dup2\n        /* \"#utility.yul\":7286:7417   */\n      tag_94\n      jump\t// in\n    tag_168:\n        /* \"#utility.yul\":7278:7417   */\n      swap1\n      pop\n        /* \"#utility.yul\":7005:7424   */\n      swap2\n      swap1\n      pop\n      jump\t// out\n        /* \"#utility.yul\":7430:7599   */\n    tag_95:\n        /* \"#utility.yul\":7570:7591   */\n      0x4164647265737320746964616b2076616c696400000000000000000000000000\n        /* \"#utility.yul\":7566:7567   */\n      0x00\n        /* \"#utility.yul\":7558:7564   */\n      dup3\n        /* \"#utility.yul\":7554:7568   */\n      add\n        /* \"#utility.yul\":7547:7592   */\n      mstore\n        /* \"#utility.yul\":7430:7599   */\n      pop\n      jump\t// out\n        /* \"#utility.yul\":7605:7971   */\n    tag_96:\n        /* \"#utility.yul\":7747:7750   */\n      0x00\n        /* \"#utility.yul\":7768:7835   */\n      tag_171\n        /* \"#utility.yul\":7832:7834   */\n      0x13\n        /* \"#utility.yul\":7827:7830   */\n      dup4\n        /* \"#utility.yul\":7768:7835   */\n      tag_84\n      jump\t// in\n    tag_171:\n        /* \"#utility.yul\":7761:7835   */\n      swap2\n      pop\n        /* \"#utility.yul\":7844:7937   */\n      tag_172\n        /* \"#utility.yul\":7933:7936   */\n      dup3\n        /* \"#utility.yul\":7844:7937   */\n      tag_95\n      jump\t// in\n    tag_172:\n        /* \"#utility.yul\":7962:7964   */\n      0x20\n        /* \"#utility.yul\":7957:7960   */\n      dup3\n        /* \"#utility.yul\":7953:7965   */\n      add\n        /* \"#utility.yul\":7946:7965   */\n      swap1\n      pop\n        /* \"#utility.yul\":7605:7971   */\n      swap2\n      swap1\n      pop\n      jump\t// out\n        /* \"#utility.yul\":7977:8396   */\n    tag_66:\n        /* \"#utility.yul\":8143:8147   */\n      0x00\n        /* \"#utility.yul\":8181:8183   */\n      0x20\n        /* \"#utility.yul\":8170:8179   */\n      dup3\n        /* \"#utility.yul\":8166:8184   */\n      add\n        /* \"#utility.yul\":8158:8184   */\n      swap1\n      pop\n        /* \"#utility.yul\":8230:8239   */\n      dup2\n        /* \"#utility.yul\":8224:8228   */\n      dup2\n        /* \"#utility.yul\":8220:8240   */\n      sub\n        /* \"#utility.yul\":8216:8217   */\n      0x00\n        /* \"#utility.yul\":8205:8214   */\n      dup4\n        /* \"#utility.yul\":8201:8218   */\n      add\n        /* \"#utility.yul\":8194:8241   */\n      mstore\n        /* \"#utility.yul\":8258:8389   */\n      tag_174\n        /* \"#utility.yul\":8384:8388   */\n      dup2\n        /* \"#utility.yul\":8258:8389   */\n      tag_96\n      jump\t// in\n    tag_174:\n        /* \"#utility.yul\":8250:8389   */\n      swap1\n      pop\n        /* \"#utility.yul\":7977:8396   */\n      swap2\n      swap1\n      pop\n      jump\t// out\n\n    auxdata: 0xa2646970667358221220ba34d88835feb44131ea5fa5f845fe3fd3ba9468a2d333783878a96b8d28f60664736f6c634300081e0033\n}\n",
				"bytecode": {
					"linkReferences": {},
					"object": "6080604052348015600e575f5ffd5b50335f5f6101000a81548173ffffffffffffffffffffffffffffffffffffffff021916908373ffffffffffffffffffffffffffffffffffffffff160217905550610a538061005b5f395ff3fe60806040526004361061004d575f3560e01c806327e235e3146100665780632e1a7d4d146100a2578063a9059cbb146100ca578063d0e30db0146100f2578063f8b2cb4f146100fc5761005c565b3661005c5761005a610138565b005b610064610138565b005b348015610071575f5ffd5b5061008c600480360381019061008791906106aa565b61021d565b60405161009991906106ed565b60405180910390f35b3480156100ad575f5ffd5b506100c860048036038101906100c39190610730565b610232565b005b3480156100d5575f5ffd5b506100f060048036038101906100eb919061075b565b6103ff565b005b6100fa6105fc565b005b348015610107575f5ffd5b50610122600480360381019061011d91906106aa565b610606565b60405161012f91906106ed565b60405180910390f35b5f341161017a576040517f08c379a0000000000000000000000000000000000000000000000000000000008152600401610171906107f3565b60405180910390fd5b3460015f3373ffffffffffffffffffffffffffffffffffffffff1673ffffffffffffffffffffffffffffffffffffffff1681526020019081526020015f205f8282546101c6919061083e565b925050819055503373ffffffffffffffffffffffffffffffffffffffff167fe1fffcc4923d04b559f4d29a8bfc6cda04eb5b0d3c460751c2402c5c5cc9109c3460405161021391906106ed565b60405180910390a2565b6001602052805f5260405f205f915090505481565b8060015f3373ffffffffffffffffffffffffffffffffffffffff1673ffffffffffffffffffffffffffffffffffffffff1681526020019081526020015f205410156102b2576040517f08c379a00000000000000000000000000000000000000000000000000000000081526004016102a9906108bb565b60405180910390fd5b8060015f3373ffffffffffffffffffffffffffffffffffffffff1673ffffffffffffffffffffffffffffffffffffffff1681526020019081526020015f205f8282546102fe91906108d9565b925050819055505f3373ffffffffffffffffffffffffffffffffffffffff168260405161032a90610939565b5f6040518083038185875af1925050503d805f8114610364576040519150601f19603f3d011682016040523d82523d5f602084013e610369565b606091505b50509050806103ad576040517f08c379a00000000000000000000000000000000000000000000000000000000081526004016103a490610997565b60405180910390fd5b3373ffffffffffffffffffffffffffffffffffffffff167f884edad9ce6fa2440d8a54cc123490eb96d2768479d49ff9c7366125a9424364836040516103f391906106ed565b60405180910390a25050565b8060015f3373ffffffffffffffffffffffffffffffffffffffff1673ffffffffffffffffffffffffffffffffffffffff1681526020019081526020015f2054101561047f576040517f08c379a0000000000000000000000000000000000000000000000000000000008152600401610476906108bb565b60405180910390fd5b5f73ffffffffffffffffffffffffffffffffffffffff168273ffffffffffffffffffffffffffffffffffffffff16036104ed576040517f08c379a00000000000000000000000000000000000000000000000000000000081526004016104e4906109ff565b60405180910390fd5b8060015f3373ffffffffffffffffffffffffffffffffffffffff1673ffffffffffffffffffffffffffffffffffffffff1681526020019081526020015f205f82825461053991906108d9565b925050819055508060015f8473ffffffffffffffffffffffffffffffffffffffff1673ffffffffffffffffffffffffffffffffffffffff1681526020019081526020015f205f82825461058c919061083e565b925050819055508173ffffffffffffffffffffffffffffffffffffffff163373ffffffffffffffffffffffffffffffffffffffff167fddf252ad1be2c89b69c2b068fc378daa952ba7f163c4a11628f55a4df523b3ef836040516105f091906106ed565b60405180910390a35050565b610604610138565b565b5f60015f8373ffffffffffffffffffffffffffffffffffffffff1673ffffffffffffffffffffffffffffffffffffffff1681526020019081526020015f20549050919050565b5f5ffd5b5f73ffffffffffffffffffffffffffffffffffffffff82169050919050565b5f61067982610650565b9050919050565b6106898161066f565b8114610693575f5ffd5b50565b5f813590506106a481610680565b92915050565b5f602082840312156106bf576106be61064c565b5b5f6106cc84828501610696565b91505092915050565b5f819050919050565b6106e7816106d5565b82525050565b5f6020820190506107005f8301846106de565b92915050565b61070f816106d5565b8114610719575f5ffd5b50565b5f8135905061072a81610706565b92915050565b5f602082840312156107455761074461064c565b5b5f6107528482850161071c565b91505092915050565b5f5f604083850312156107715761077061064c565b5b5f61077e85828601610696565b925050602061078f8582860161071c565b9150509250929050565b5f82825260208201905092915050565b7f4465706f73697420746964616b20626f6c6568203000000000000000000000005f82015250565b5f6107dd601583610799565b91506107e8826107a9565b602082019050919050565b5f6020820190508181035f83015261080a816107d1565b9050919050565b7f4e487b71000000000000000000000000000000000000000000000000000000005f52601160045260245ffd5b5f610848826106d5565b9150610853836106d5565b925082820190508082111561086b5761086a610811565b5b92915050565b7f53616c646f20746964616b2063756b75700000000000000000000000000000005f82015250565b5f6108a5601183610799565b91506108b082610871565b602082019050919050565b5f6020820190508181035f8301526108d281610899565b9050919050565b5f6108e3826106d5565b91506108ee836106d5565b925082820390508181111561090657610905610811565b5b92915050565b5f81905092915050565b50565b5f6109245f8361090c565b915061092f82610916565b5f82019050919050565b5f61094382610919565b9150819050919050565b7f576974686472617720676167616c0000000000000000000000000000000000005f82015250565b5f610981600e83610799565b915061098c8261094d565b602082019050919050565b5f6020820190508181035f8301526109ae81610975565b9050919050565b7f4164647265737320746964616b2076616c6964000000000000000000000000005f82015250565b5f6109e9601383610799565b91506109f4826109b5565b602082019050919050565b5f6020820190508181035f830152610a16816109dd565b905091905056fea2646970667358221220ba34d88835feb44131ea5fa5f845fe3fd3ba9468a2d333783878a96b8d28f60664736f6c634300081e0033",
					"opcodes": "PUSH1 0x80 PUSH1 0x40 MSTORE CALLVALUE DUP1 ISZERO PUSH1 0xE JUMPI PUSH0 PUSH0 REVERT JUMPDEST POP CALLER PUSH0 PUSH0 PUSH2 0x100 EXP DUP2 SLOAD DUP2 PUSH20 0xFFFFFFFFFFFFFFFFFFFFFFFFFFFFFFFFFFFFFFFF MUL NOT AND SWAP1 DUP4 PUSH20 0xFFFFFFFFFFFFFFFFFFFFFFFFFFFFFFFFFFFFFFFF AND MUL OR SWAP1 SSTORE POP PUSH2 0xA53 DUP1 PUSH2 0x5B PUSH0 CODECOPY PUSH0 RETURN INVALID PUSH1 0x80 PUSH1 0x40 MSTORE PUSH1 0x4 CALLDATASIZE LT PUSH2 0x4D JUMPI PUSH0 CALLDATALOAD PUSH1 0xE0 SHR DUP1 PUSH4 0x27E235E3 EQ PUSH2 0x66 JUMPI DUP1 PUSH4 0x2E1A7D4D EQ PUSH2 0xA2 JUMPI DUP1 PUSH4 0xA9059CBB EQ PUSH2 0xCA JUMPI DUP1 PUSH4 0xD0E30DB0 EQ PUSH2 0xF2 JUMPI DUP1 PUSH4 0xF8B2CB4F EQ PUSH2 0xFC JUMPI PUSH2 0x5C JUMP JUMPDEST CALLDATASIZE PUSH2 0x5C JUMPI PUSH2 0x5A PUSH2 0x138 JUMP JUMPDEST STOP JUMPDEST PUSH2 0x64 PUSH2 0x138 JUMP JUMPDEST STOP JUMPDEST CALLVALUE DUP1 ISZERO PUSH2 0x71 JUMPI PUSH0 PUSH0 REVERT JUMPDEST POP PUSH2 0x8C PUSH1 0x4 DUP1 CALLDATASIZE SUB DUP2 ADD SWAP1 PUSH2 0x87 SWAP2 SWAP1 PUSH2 0x6AA JUMP JUMPDEST PUSH2 0x21D JUMP JUMPDEST PUSH1 0x40 MLOAD PUSH2 0x99 SWAP2 SWAP1 PUSH2 0x6ED JUMP JUMPDEST PUSH1 0x40 MLOAD DUP1 SWAP2 SUB SWAP1 RETURN JUMPDEST CALLVALUE DUP1 ISZERO PUSH2 0xAD JUMPI PUSH0 PUSH0 REVERT JUMPDEST POP PUSH2 0xC8 PUSH1 0x4 DUP1 CALLDATASIZE SUB DUP2 ADD SWAP1 PUSH2 0xC3 SWAP2 SWAP1 PUSH2 0x730 JUMP JUMPDEST PUSH2 0x232 JUMP JUMPDEST STOP JUMPDEST CALLVALUE DUP1 ISZERO PUSH2 0xD5 JUMPI PUSH0 PUSH0 REVERT JUMPDEST POP PUSH2 0xF0 PUSH1 0x4 DUP1 CALLDATASIZE SUB DUP2 ADD SWAP1 PUSH2 0xEB SWAP2 SWAP1 PUSH2 0x75B JUMP JUMPDEST PUSH2 0x3FF JUMP JUMPDEST STOP JUMPDEST PUSH2 0xFA PUSH2 0x5FC JUMP JUMPDEST STOP JUMPDEST CALLVALUE DUP1 ISZERO PUSH2 0x107 JUMPI PUSH0 PUSH0 REVERT JUMPDEST POP PUSH2 0x122 PUSH1 0x4 DUP1 CALLDATASIZE SUB DUP2 ADD SWAP1 PUSH2 0x11D SWAP2 SWAP1 PUSH2 0x6AA JUMP JUMPDEST PUSH2 0x606 JUMP JUMPDEST PUSH1 0x40 MLOAD PUSH2 0x12F SWAP2 SWAP1 PUSH2 0x6ED JUMP JUMPDEST PUSH1 0x40 MLOAD DUP1 SWAP2 SUB SWAP1 RETURN JUMPDEST PUSH0 CALLVALUE GT PUSH2 0x17A JUMPI PUSH1 0x40 MLOAD PUSH32 0x8C379A000000000000000000000000000000000000000000000000000000000 DUP2 MSTORE PUSH1 0x4 ADD PUSH2 0x171 SWAP1 PUSH2 0x7F3 JUMP JUMPDEST PUSH1 0x40 MLOAD DUP1 SWAP2 SUB SWAP1 REVERT JUMPDEST CALLVALUE PUSH1 0x1 PUSH0 CALLER PUSH20 0xFFFFFFFFFFFFFFFFFFFFFFFFFFFFFFFFFFFFFFFF AND PUSH20 0xFFFFFFFFFFFFFFFFFFFFFFFFFFFFFFFFFFFFFFFF AND DUP2 MSTORE PUSH1 0x20 ADD SWAP1 DUP2 MSTORE PUSH1 0x20 ADD PUSH0 KECCAK256 PUSH0 DUP3 DUP3 SLOAD PUSH2 0x1C6 SWAP2 SWAP1 PUSH2 0x83E JUMP JUMPDEST SWAP3 POP POP DUP2 SWAP1 SSTORE POP CALLER PUSH20 0xFFFFFFFFFFFFFFFFFFFFFFFFFFFFFFFFFFFFFFFF AND PUSH32 0xE1FFFCC4923D04B559F4D29A8BFC6CDA04EB5B0D3C460751C2402C5C5CC9109C CALLVALUE PUSH1 0x40 MLOAD PUSH2 0x213 SWAP2 SWAP1 PUSH2 0x6ED JUMP JUMPDEST PUSH1 0x40 MLOAD DUP1 SWAP2 SUB SWAP1 LOG2 JUMP JUMPDEST PUSH1 0x1 PUSH1 0x20 MSTORE DUP1 PUSH0 MSTORE PUSH1 0x40 PUSH0 KECCAK256 PUSH0 SWAP2 POP SWAP1 POP SLOAD DUP2 JUMP JUMPDEST DUP1 PUSH1 0x1 PUSH0 CALLER PUSH20 0xFFFFFFFFFFFFFFFFFFFFFFFFFFFFFFFFFFFFFFFF AND PUSH20 0xFFFFFFFFFFFFFFFFFFFFFFFFFFFFFFFFFFFFFFFF AND DUP2 MSTORE PUSH1 0x20 ADD SWAP1 DUP2 MSTORE PUSH1 0x20 ADD PUSH0 KECCAK256 SLOAD LT ISZERO PUSH2 0x2B2 JUMPI PUSH1 0x40 MLOAD PUSH32 0x8C379A000000000000000000000000000000000000000000000000000000000 DUP2 MSTORE PUSH1 0x4 ADD PUSH2 0x2A9 SWAP1 PUSH2 0x8BB JUMP JUMPDEST PUSH1 0x40 MLOAD DUP1 SWAP2 SUB SWAP1 REVERT JUMPDEST DUP1 PUSH1 0x1 PUSH0 CALLER PUSH20 0xFFFFFFFFFFFFFFFFFFFFFFFFFFFFFFFFFFFFFFFF AND PUSH20 0xFFFFFFFFFFFFFFFFFFFFFFFFFFFFFFFFFFFFFFFF AND DUP2 MSTORE PUSH1 0x20 ADD SWAP1 DUP2 MSTORE PUSH1 0x20 ADD PUSH0 KECCAK256 PUSH0 DUP3 DUP3 SLOAD PUSH2 0x2FE SWAP2 SWAP1 PUSH2 0x8D9 JUMP JUMPDEST SWAP3 POP POP DUP2 SWAP1 SSTORE POP PUSH0 CALLER PUSH20 0xFFFFFFFFFFFFFFFFFFFFFFFFFFFFFFFFFFFFFFFF AND DUP3 PUSH1 0x40 MLOAD PUSH2 0x32A SWAP1 PUSH2 0x939 JUMP JUMPDEST PUSH0 PUSH1 0x40 MLOAD DUP1 DUP4 SUB DUP2 DUP6 DUP8 GAS CALL SWAP3 POP POP POP RETURNDATASIZE DUP1 PUSH0 DUP2 EQ PUSH2 0x364 JUMPI PUSH1 0x40 MLOAD SWAP2 POP PUSH1 0x1F NOT PUSH1 0x3F RETURNDATASIZE ADD AND DUP3 ADD PUSH1 0x40 MSTORE RETURNDATASIZE DUP3 MSTORE RETURNDATASIZE PUSH0 PUSH1 0x20 DUP5 ADD RETURNDATACOPY PUSH2 0x369 JUMP JUMPDEST PUSH1 0x60 SWAP2 POP JUMPDEST POP POP SWAP1 POP DUP1 PUSH2 0x3AD JUMPI PUSH1 0x40 MLOAD PUSH32 0x8C379A000000000000000000000000000000000000000000000000000000000 DUP2 MSTORE PUSH1 0x4 ADD PUSH2 0x3A4 SWAP1 PUSH2 0x997 JUMP JUMPDEST PUSH1 0x40 MLOAD DUP1 SWAP2 SUB SWAP1 REVERT JUMPDEST CALLER PUSH20 0xFFFFFFFFFFFFFFFFFFFFFFFFFFFFFFFFFFFFFFFF AND PUSH32 0x884EDAD9CE6FA2440D8A54CC123490EB96D2768479D49FF9C7366125A9424364 DUP4 PUSH1 0x40 MLOAD PUSH2 0x3F3 SWAP2 SWAP1 PUSH2 0x6ED JUMP JUMPDEST PUSH1 0x40 MLOAD DUP1 SWAP2 SUB SWAP1 LOG2 POP POP JUMP JUMPDEST DUP1 PUSH1 0x1 PUSH0 CALLER PUSH20 0xFFFFFFFFFFFFFFFFFFFFFFFFFFFFFFFFFFFFFFFF AND PUSH20 0xFFFFFFFFFFFFFFFFFFFFFFFFFFFFFFFFFFFFFFFF AND DUP2 MSTORE PUSH1 0x20 ADD SWAP1 DUP2 MSTORE PUSH1 0x20 ADD PUSH0 KECCAK256 SLOAD LT ISZERO PUSH2 0x47F JUMPI PUSH1 0x40 MLOAD PUSH32 0x8C379A000000000000000000000000000000000000000000000000000000000 DUP2 MSTORE PUSH1 0x4 ADD PUSH2 0x476 SWAP1 PUSH2 0x8BB JUMP JUMPDEST PUSH1 0x40 MLOAD DUP1 SWAP2 SUB SWAP1 REVERT JUMPDEST PUSH0 PUSH20 0xFFFFFFFFFFFFFFFFFFFFFFFFFFFFFFFFFFFFFFFF AND DUP3 PUSH20 0xFFFFFFFFFFFFFFFFFFFFFFFFFFFFFFFFFFFFFFFF AND SUB PUSH2 0x4ED JUMPI PUSH1 0x40 MLOAD PUSH32 0x8C379A000000000000000000000000000000000000000000000000000000000 DUP2 MSTORE PUSH1 0x4 ADD PUSH2 0x4E4 SWAP1 PUSH2 0x9FF JUMP JUMPDEST PUSH1 0x40 MLOAD DUP1 SWAP2 SUB SWAP1 REVERT JUMPDEST DUP1 PUSH1 0x1 PUSH0 CALLER PUSH20 0xFFFFFFFFFFFFFFFFFFFFFFFFFFFFFFFFFFFFFFFF AND PUSH20 0xFFFFFFFFFFFFFFFFFFFFFFFFFFFFFFFFFFFFFFFF AND DUP2 MSTORE PUSH1 0x20 ADD SWAP1 DUP2 MSTORE PUSH1 0x20 ADD PUSH0 KECCAK256 PUSH0 DUP3 DUP3 SLOAD PUSH2 0x539 SWAP2 SWAP1 PUSH2 0x8D9 JUMP JUMPDEST SWAP3 POP POP DUP2 SWAP1 SSTORE POP DUP1 PUSH1 0x1 PUSH0 DUP5 PUSH20 0xFFFFFFFFFFFFFFFFFFFFFFFFFFFFFFFFFFFFFFFF AND PUSH20 0xFFFFFFFFFFFFFFFFFFFFFFFFFFFFFFFFFFFFFFFF AND DUP2 MSTORE PUSH1 0x20 ADD SWAP1 DUP2 MSTORE PUSH1 0x20 ADD PUSH0 KECCAK256 PUSH0 DUP3 DUP3 SLOAD PUSH2 0x58C SWAP2 SWAP1 PUSH2 0x83E JUMP JUMPDEST SWAP3 POP POP DUP2 SWAP1 SSTORE POP DUP2 PUSH20 0xFFFFFFFFFFFFFFFFFFFFFFFFFFFFFFFFFFFFFFFF AND CALLER PUSH20 0xFFFFFFFFFFFFFFFFFFFFFFFFFFFFFFFFFFFFFFFF AND PUSH32 0xDDF252AD1BE2C89B69C2B068FC378DAA952BA7F163C4A11628F55A4DF523B3EF DUP4 PUSH1 0x40 MLOAD PUSH2 0x5F0 SWAP2 SWAP1 PUSH2 0x6ED JUMP JUMPDEST PUSH1 0x40 MLOAD DUP1 SWAP2 SUB SWAP1 LOG3 POP POP JUMP JUMPDEST PUSH2 0x604 PUSH2 0x138 JUMP JUMPDEST JUMP JUMPDEST PUSH0 PUSH1 0x1 PUSH0 DUP4 PUSH20 0xFFFFFFFFFFFFFFFFFFFFFFFFFFFFFFFFFFFFFFFF AND PUSH20 0xFFFFFFFFFFFFFFFFFFFFFFFFFFFFFFFFFFFFFFFF AND DUP2 MSTORE PUSH1 0x20 ADD SWAP1 DUP2 MSTORE PUSH1 0x20 ADD PUSH0 KECCAK256 SLOAD SWAP1 POP SWAP2 SWAP1 POP JUMP JUMPDEST PUSH0 PUSH0 REVERT JUMPDEST PUSH0 PUSH20 0xFFFFFFFFFFFFFFFFFFFFFFFFFFFFFFFFFFFFFFFF DUP3 AND SWAP1 POP SWAP2 SWAP1 POP JUMP JUMPDEST PUSH0 PUSH2 0x679 DUP3 PUSH2 0x650 JUMP JUMPDEST SWAP1 POP SWAP2 SWAP1 POP JUMP JUMPDEST PUSH2 0x689 DUP2 PUSH2 0x66F JUMP JUMPDEST DUP2 EQ PUSH2 0x693 JUMPI PUSH0 PUSH0 REVERT JUMPDEST POP JUMP JUMPDEST PUSH0 DUP2 CALLDATALOAD SWAP1 POP PUSH2 0x6A4 DUP2 PUSH2 0x680 JUMP JUMPDEST SWAP3 SWAP2 POP POP JUMP JUMPDEST PUSH0 PUSH1 0x20 DUP3 DUP5 SUB SLT ISZERO PUSH2 0x6BF JUMPI PUSH2 0x6BE PUSH2 0x64C JUMP JUMPDEST JUMPDEST PUSH0 PUSH2 0x6CC DUP5 DUP3 DUP6 ADD PUSH2 0x696 JUMP JUMPDEST SWAP2 POP POP SWAP3 SWAP2 POP POP JUMP JUMPDEST PUSH0 DUP2 SWAP1 POP SWAP2 SWAP1 POP JUMP JUMPDEST PUSH2 0x6E7 DUP2 PUSH2 0x6D5 JUMP JUMPDEST DUP3 MSTORE POP POP JUMP JUMPDEST PUSH0 PUSH1 0x20 DUP3 ADD SWAP1 POP PUSH2 0x700 PUSH0 DUP4 ADD DUP5 PUSH2 0x6DE JUMP JUMPDEST SWAP3 SWAP2 POP POP JUMP JUMPDEST PUSH2 0x70F DUP2 PUSH2 0x6D5 JUMP JUMPDEST DUP2 EQ PUSH2 0x719 JUMPI PUSH0 PUSH0 REVERT JUMPDEST POP JUMP JUMPDEST PUSH0 DUP2 CALLDATALOAD SWAP1 POP PUSH2 0x72A DUP2 PUSH2 0x706 JUMP JUMPDEST SWAP3 SWAP2 POP POP JUMP JUMPDEST PUSH0 PUSH1 0x20 DUP3 DUP5 SUB SLT ISZERO PUSH2 0x745 JUMPI PUSH2 0x744 PUSH2 0x64C JUMP JUMPDEST JUMPDEST PUSH0 PUSH2 0x752 DUP5 DUP3 DUP6 ADD PUSH2 0x71C JUMP JUMPDEST SWAP2 POP POP SWAP3 SWAP2 POP POP JUMP JUMPDEST PUSH0 PUSH0 PUSH1 0x40 DUP4 DUP6 SUB SLT ISZERO PUSH2 0x771 JUMPI PUSH2 0x770 PUSH2 0x64C JUMP JUMPDEST JUMPDEST PUSH0 PUSH2 0x77E DUP6 DUP3 DUP7 ADD PUSH2 0x696 JUMP JUMPDEST SWAP3 POP POP PUSH1 0x20 PUSH2 0x78F DUP6 DUP3 DUP7 ADD PUSH2 0x71C JUMP JUMPDEST SWAP2 POP POP SWAP3 POP SWAP3 SWAP1 POP JUMP JUMPDEST PUSH0 DUP3 DUP3 MSTORE PUSH1 0x20 DUP3 ADD SWAP1 POP SWAP3 SWAP2 POP POP JUMP JUMPDEST PUSH32 0x4465706F73697420746964616B20626F6C656820300000000000000000000000 PUSH0 DUP3 ADD MSTORE POP JUMP JUMPDEST PUSH0 PUSH2 0x7DD PUSH1 0x15 DUP4 PUSH2 0x799 JUMP JUMPDEST SWAP2 POP PUSH2 0x7E8 DUP3 PUSH2 0x7A9 JUMP JUMPDEST PUSH1 0x20 DUP3 ADD SWAP1 POP SWAP2 SWAP1 POP JUMP JUMPDEST PUSH0 PUSH1 0x20 DUP3 ADD SWAP1 POP DUP2 DUP2 SUB PUSH0 DUP4 ADD MSTORE PUSH2 0x80A DUP2 PUSH2 0x7D1 JUMP JUMPDEST SWAP1 POP SWAP2 SWAP1 POP JUMP JUMPDEST PUSH32 0x4E487B7100000000000000000000000000000000000000000000000000000000 PUSH0 MSTORE PUSH1 0x11 PUSH1 0x4 MSTORE PUSH1 0x24 PUSH0 REVERT JUMPDEST PUSH0 PUSH2 0x848 DUP3 PUSH2 0x6D5 JUMP JUMPDEST SWAP2 POP PUSH2 0x853 DUP4 PUSH2 0x6D5 JUMP JUMPDEST SWAP3 POP DUP3 DUP3 ADD SWAP1 POP DUP1 DUP3 GT ISZERO PUSH2 0x86B JUMPI PUSH2 0x86A PUSH2 0x811 JUMP JUMPDEST JUMPDEST SWAP3 SWAP2 POP POP JUMP JUMPDEST PUSH32 0x53616C646F20746964616B2063756B7570000000000000000000000000000000 PUSH0 DUP3 ADD MSTORE POP JUMP JUMPDEST PUSH0 PUSH2 0x8A5 PUSH1 0x11 DUP4 PUSH2 0x799 JUMP JUMPDEST SWAP2 POP PUSH2 0x8B0 DUP3 PUSH2 0x871 JUMP JUMPDEST PUSH1 0x20 DUP3 ADD SWAP1 POP SWAP2 SWAP1 POP JUMP JUMPDEST PUSH0 PUSH1 0x20 DUP3 ADD SWAP1 POP DUP2 DUP2 SUB PUSH0 DUP4 ADD MSTORE PUSH2 0x8D2 DUP2 PUSH2 0x899 JUMP JUMPDEST SWAP1 POP SWAP2 SWAP1 POP JUMP JUMPDEST PUSH0 PUSH2 0x8E3 DUP3 PUSH2 0x6D5 JUMP JUMPDEST SWAP2 POP PUSH2 0x8EE DUP4 PUSH2 0x6D5 JUMP JUMPDEST SWAP3 POP DUP3 DUP3 SUB SWAP1 POP DUP2 DUP2 GT ISZERO PUSH2 0x906 JUMPI PUSH2 0x905 PUSH2 0x811 JUMP JUMPDEST JUMPDEST SWAP3 SWAP2 POP POP JUMP JUMPDEST PUSH0 DUP2 SWAP1 POP SWAP3 SWAP2 POP POP JUMP JUMPDEST POP JUMP JUMPDEST PUSH0 PUSH2 0x924 PUSH0 DUP4 PUSH2 0x90C JUMP JUMPDEST SWAP2 POP PUSH2 0x92F DUP3 PUSH2 0x916 JUMP JUMPDEST PUSH0 DUP3 ADD SWAP1 POP SWAP2 SWAP1 POP JUMP JUMPDEST PUSH0 PUSH2 0x943 DUP3 PUSH2 0x919 JUMP JUMPDEST SWAP2 POP DUP2 SWAP1 POP SWAP2 SWAP1 POP JUMP JUMPDEST PUSH32 0x576974686472617720676167616C000000000000000000000000000000000000 PUSH0 DUP3 ADD MSTORE POP JUMP JUMPDEST PUSH0 PUSH2 0x981 PUSH1 0xE DUP4 PUSH2 0x799 JUMP JUMPDEST SWAP2 POP PUSH2 0x98C DUP3 PUSH2 0x94D JUMP JUMPDEST PUSH1 0x20 DUP3 ADD SWAP1 POP SWAP2 SWAP1 POP JUMP JUMPDEST PUSH0 PUSH1 0x20 DUP3 ADD SWAP1 POP DUP2 DUP2 SUB PUSH0 DUP4 ADD MSTORE PUSH2 0x9AE DUP2 PUSH2 0x975 JUMP JUMPDEST SWAP1 POP SWAP2 SWAP1 POP JUMP JUMPDEST PUSH32 0x4164647265737320746964616B2076616C696400000000000000000000000000 PUSH0 DUP3 ADD MSTORE POP JUMP JUMPDEST PUSH0 PUSH2 0x9E9 PUSH1 0x13 DUP4 PUSH2 0x799 JUMP JUMPDEST SWAP2 POP PUSH2 0x9F4 DUP3 PUSH2 0x9B5 JUMP JUMPDEST PUSH1 0x20 DUP3 ADD SWAP1 POP SWAP2 SWAP1 POP JUMP JUMPDEST PUSH0 PUSH1 0x20 DUP3 ADD SWAP1 POP DUP2 DUP2 SUB PUSH0 DUP4 ADD MSTORE PUSH2 0xA16 DUP2 PUSH2 0x9DD JUMP JUMPDEST SWAP1 POP SWAP2 SWAP1 POP JUMP INVALID LOG2 PUSH5 0x6970667358 0x22 SLT KECCAK256 0xBA CALLVALUE 0xD8 DUP9 CALLDATALOAD INVALID 0xB4 COINBASE BALANCE 0xEA PUSH0 0xA5 EXTCALL GASLIMIT INVALID EXTCODEHASH 0xD3 0xBA SWAP5 PUSH9 0xA2D333783878A96B8D 0x28 0xF6 MOD PUSH5 0x736F6C6343 STOP ADDMOD 0x1E STOP CALLER "
				},
				"gasEstimates": {
					"creation": {
						"codeDepositCost": "528600",
						"executionCost": "24824",
						"totalCost": "553424"
					},
					"external": {
						"": "infinite",
						"balances(address)": "2780",
						"deposit()": "infinite",
						"getBalance(address)": "2895",
						"transfer(address,uint256)": "infinite",
						"withdraw(uint256)": "infinite"
					},
					"internal": {
						"_deposit()": "infinite"
					}
				},
				"methodIdentifiers": {
					"balances(address)": "27e235e3",
					"deposit()": "d0e30db0",
					"getBalance(address)": "f8b2cb4f",
					"transfer(address,uint256)": "a9059cbb",
					"withdraw(uint256)": "2e1a7d4d"
				}
			},
			"storageLayout": {
				"storage": [
					{
						"astId": 3,
						"contract": "contracts/belajar/sc_wallet/wallet.sol:SimpleWallet",
						"label": "owner",
						"offset": 0,
						"slot": "0",
						"type": "t_address"
					},
					{
						"astId": 16,
						"contract": "contracts/belajar/sc_wallet/wallet.sol:SimpleWallet",
						"label": "balances",
						"offset": 0,
						"slot": "1",
						"type": "t_mapping(t_address,t_uint256)"
					}
				],
				"types": {
					"t_address": {
						"encoding": "inplace",
						"label": "address",
						"numberOfBytes": "20"
					},
					"t_mapping(t_address,t_uint256)": {
						"encoding": "mapping",
						"key": "t_address",
						"label": "mapping(address => uint256)",
						"numberOfBytes": "32",
						"value": "t_uint256"
					},
					"t_uint256": {
						"encoding": "inplace",
						"label": "uint256",
						"numberOfBytes": "32"
					}
				}
			},
			"userdoc": {
				"kind": "user",
				"methods": {},
				"version": 1
			}
		}
	}
}