{
    "contractName": "ContohStorage",
    "abi": [
        {
            "inputs": [],
            "stateMutability": "nonpayable",
            "type": "constructor"
        },
        {
            "anonymous": false,
            "inputs": [
                {
                    "indexed": false,
                    "internalType": "string",
                    "name": "oldNama",
                    "type": "string"
                },
                {
                    "indexed": false,
                    "internalType": "string",
                    "name": "newNama",
                    "type": "string"
                }
            ],
            "name": "LogUpdateNama",
            "type": "event"
        },
        {
            "inputs": [
                {
                    "internalType": "uint256[]",
                    "name": "angka",
                    "type": "uint256[]"
                }
            ],
            "name": "contohArray",
            "outputs": [
                {
                    "internalType": "uint256",
                    "name": "",
                    "type": "uint256"
                }
            ],
            "stateMutability": "pure",
            "type": "function"
        },
        {
            "inputs": [
                {
                    "internalType": "string",
                    "name": "input",
                    "type": "string"
                }
            ],
            "name": "contohStringCalldata",
            "outputs": [
                {
                    "internalType": "string",
                    "name": "",
                    "type": "string"
                }
            ],
            "stateMutability": "pure",
            "type": "function"
        },
        {
            "inputs": [],
            "name": "dataBytes",
            "outputs": [
                {
                    "internalType": "bytes",
                    "name": "",
                    "type": "bytes"
                }
            ],
            "stateMutability": "view",
            "type": "function"
        },
        {
            "inputs": [
                {
                    "internalType": "uint256",
                    "name": "",
                    "type": "uint256"
                }
            ],
            "name": "dynamicArray",
            "outputs": [
                {
                    "internalType": "uint256",
                    "name": "",
                    "type": "uint256"
                }
            ],
            "stateMutability": "view",
            "type": "function"
        },
        {
            "inputs": [],
            "name": "externalFunction",
            "outputs": [
                {
                    "internalType": "uint256",
                    "name": "",
                    "type": "uint256"
                }
            ],
            "stateMutability": "view",
            "type": "function"
        },
        {
            "inputs": [],
            "name": "lihatNama",
            "outputs": [
                {
                    "internalType": "string",
                    "name": "",
                    "type": "string"
                }
            ],
            "stateMutability": "view",
            "type": "function"
        },
        {
            "inputs": [],
            "name": "mhs",
            "outputs": [
                {
                    "internalType": "string",
                    "name": "nama",
                    "type": "string"
                },
                {
                    "internalType": "uint256",
                    "name": "umur",
                    "type": "uint256"
                }
            ],
            "stateMutability": "view",
            "type": "function"
        },
        {
            "inputs": [],
            "name": "nama",
            "outputs": [
                {
                    "internalType": "string",
                    "name": "",
                    "type": "string"
                }
            ],
            "stateMutability": "view",
            "type": "function"
        },
        {
            "inputs": [],
            "name": "pemilik",
            "outputs": [
                {
                    "internalType": "address",
                    "name": "",
                    "type": "address"
                }
            ],
            "stateMutability": "view",
            "type": "function"
        },
        {
            "inputs": [],
            "name": "status",
            "outputs": [
                {
                    "internalType": "bool",
                    "name": "",
                    "type": "bool"
                }
            ],
            "stateMutability": "view",
            "type": "function"
        },
        {
            "inputs": [
                {
                    "internalType": "uint256",
                    "name": "a",
                    "type": "uint256"
                },
                {
                    "internalType": "uint256",
                    "name": "b",
                    "type": "uint256"
                }
            ],
            "name": "tambah",
            "outputs": [
                {
                    "internalType": "uint256",
                    "name": "",
                    "type": "uint256"
                }
            ],
            "stateMutability": "pure",
            "type": "function"
        },
        {
            "inputs": [
                {
                    "internalType": "uint256",
                    "name": "_angka",
                    "type": "uint256"
                }
            ],
            "name": "tambahArray",
            "outputs": [],
            "stateMutability": "nonpayable",
            "type": "function"
        },
        {
            "inputs": [],
            "name": "terimaETH",
            "outputs": [],
            "stateMutability": "payable",
            "type": "function"
        },
        {
            "inputs": [
                {
                    "internalType": "string",
                    "name": "_namaBaru",
                    "type": "string"
                }
            ],
            "name": "ubahNama",
            "outputs": [],
            "stateMutability": "nonpayable",
            "type": "function"
        },
        {
            "inputs": [],
            "name": "umur",
            "outputs": [
                {
                    "internalType": "uint256",
                    "name": "",
                    "type": "uint256"
                }
            ],
            "stateMutability": "view",
            "type": "function"
        }
    ],
    "bytecode": "608060405234610275576100135f54610279565b601f8111610238575b507f537961696420416c66617269736869000000000000000000000000000000001e5f55601460015560025461005190610279565b601f81116101fa575b50600a6448656c6c6f60d81b016002556100726102c7565b602061007c6102c7565b600581526414de585a5960da1b8282015280835260149190920190815281516001600160401b0381116101e6576100b4600454610279565b601f811161018d575b50602092601f821160011461012c57928192935f92610121575b50508160011b915f199060031b1c1916176004555b51600555600680546001600160a81b0319163360081b610100600160a81b03161760011790556040516108cb90816102e78239f35b015190505f806100d7565b601f1982169360045f52805f20915f5b868110610175575083600195961061015d575b505050811b016004556100ec565b01515f1960f88460031b161c191690555f808061014f565b9192602060018192868501518155019401920161013c565b60045f526101d6907f8a35acfbc15ff81a39ae7d344fd709f28e8600b4aa8c65c6b64bfe7fe36bd19b601f840160051c810191602085106101dc575b601f0160051c01906102b1565b5f6100bd565b90915081906101c9565b634e487b7160e01b5f52604160045260245ffd5b60025f5261023290601f0160051c7f405787fa12a823e0f2b7631cc41b3ba8828b3321ca811111fa75cd3aa3bb5ace908101906102b1565b5f61005a565b5f805261026f90601f0160051c7f290decd9548b62a8d60345a988386fc84ba6bc95484008f6362f93160ef3e563908101906102b1565b5f61001c565b5f80fd5b90600182811c921680156102a7575b602083101461029357565b634e487b7160e01b5f52602260045260245ffd5b91607f1691610288565b8181106102bc575050565b5f81556001016102b1565b60408051919082016001600160401b038111838210176101e65760405256fe60806040526004361015610011575f80fd5b5f3560e01c8063055c4299146106d1578063200d2ed2146106af57806329247dc1146106315780633a32b5491461051e57806346a3967b146104a457806364f0dbab146105675780636ebcd2c21461053b57806373a38cb31461051e5780639a9bdca7146104e6578063a50bbe1b146104a4578063b503ba35146102b5578063c4a759d2146102a8578063d0de3f63146101bd578063d78fb117146100eb5763f604bf57146100be575f80fd5b346100e75760403660031901126100e75760206100df602435600435610854565b604051908152f35b5f80fd5b346100e75760203660031901126100e75760043567ffffffffffffffff81116100e757366023820112156100e75780600401359067ffffffffffffffff82116101a9578160051b60405192610143602083018561077c565b835260246020840191830101913683116100e757602401905b828210610199575f84815b815183101561018e5761018660019160208560051b8501015190610854565b920191610167565b602090604051908152f35b813581526020918201910161015c565b634e487b7160e01b5f52604160045260245ffd5b346100e7575f3660031901126100e7576040515f6004546101dd81610744565b80845290600181169081156102845750600114610226575b61021c836102058185038261077c565b600554604051928392604084526040840190610720565b9060208301520390f35b60045f9081527f8a35acfbc15ff81a39ae7d344fd709f28e8600b4aa8c65c6b64bfe7fe36bd19b939250905b80821061026a575090915081016020016102056101f5565b919260018160209254838588010152019101909291610252565b60ff191660208086019190915291151560051b8401909101915061020590506101f5565b5f3660031901126100e757005b346100e75760203660031901126100e75760043567ffffffffffffffff81116100e757366023820112156100e757806004013567ffffffffffffffff81116101a9576040519161030f601f8301601f19166020018461077c565b81835236602483830101116100e757815f9260246020930183860137830101527f4f32db05c99c0d38e62671412e40c827769bb9db84ab494d5935422b9d89c1946040516040815280610375610367604083016107ca565b828103602084015285610720565b0390a1805167ffffffffffffffff81116101a9576103935f54610744565b601f811161043d575b50602091601f82116001146103d7579181925f926103cc575b50505f19600383901b1c191660019190911b175f55005b0151905082806103b5565b601f198216925f80525f5160206108765f395f51905f52915f5b8581106104255750836001951061040d575b505050811b015f55005b01515f1960f88460031b161c19169055828080610403565b919260206001819286850151815501940192016103f1565b5f8052601f820160051c5f5160206108765f395f51905f5201906020831061048f575b601f0160051c5f5160206108765f395f51905f5201905b818110610484575061039c565b5f8155600101610477565b5f5160206108765f395f51905f529150610460565b346100e7575f3660031901126100e7576104e26040516104ce816104c7816107ca565b038261077c565b604051918291602083526020830190610720565b0390f35b346100e75760203660031901126100e7576004356003548110156100e75761050f60209161079e565b90549060031b1c604051908152f35b346100e7575f3660031901126100e7576020600154604051908152f35b346100e7575f3660031901126100e75760065460405160089190911c6001600160a01b03168152602090f35b346100e7575f3660031901126100e7576040515f60025461058781610744565b808452906001811690811561060d57506001146105af575b6104e2836104ce8185038261077c565b91905060025f527f405787fa12a823e0f2b7631cc41b3ba8828b3321ca811111fa75cd3aa3bb5ace915f905b8082106105f3575090915081016020016104ce61059f565b9192600181602092548385880101520191019092916105db565b60ff191660208086019190915291151560051b840190910191506104ce905061059f565b346100e75760203660031901126100e75760043567ffffffffffffffff81116100e757366023820112156100e757806004013567ffffffffffffffff81116100e75736602482840101116100e7576024918160409283519485936020855282602086015201848401375f828201840152601f01601f19168101030190f35b346100e7575f3660031901126100e757602060ff600654166040519015158152f35b346100e75760203660031901126100e757600354680100000000000000008110156101a957806001610706920160035561079e565b81545f1960039290921b91821b191660043590911b179055005b805180835260209291819084018484015e5f828201840152601f01601f1916010190565b90600182811c92168015610772575b602083101461075e57565b634e487b7160e01b5f52602260045260245ffd5b91607f1691610753565b90601f8019910116810190811067ffffffffffffffff8211176101a957604052565b6003548110156107b65760035f5260205f2001905f90565b634e487b7160e01b5f52603260045260245ffd5b905f915f54906107d982610744565b808252916001811690811561083857506001146107f4575050565b5f8080529293509091905f5160206108765f395f51905f525b83831061081e575060209250010190565b60018160209294939454838587010152019101919061080d565b9050602093945060ff929192191683830152151560051b010190565b9190820180921161086157565b634e487b7160e01b5f52601160045260245ffdfe290decd9548b62a8d60345a988386fc84ba6bc95484008f6362f93160ef3e563a26469706673582212201e38758f2d246adc598228e3f796446a9104b30389a04b556649f6335a709a8764736f6c634300081f0033",
    "sourcePath": "e:/web3/PROJECTS/solbasic/contracts/belajar/learn_basic.sol",
    "compiler": {
        "name": "solc",
        "version": "0.8.31+commit.fd3a2265"
    },
    "functionHashes": {
        "contohArray(uint256[])": "d78fb117",
        "contohStringCalldata(string)": "29247dc1",
        "dataBytes()": "64f0dbab",
        "dynamicArray(uint256)": "9a9bdca7",
        "externalFunction()": "3a32b549",
        "lihatNama()": "46a3967b",
        "mhs()": "d0de3f63",
        "nama()": "a50bbe1b",
        "pemilik()": "6ebcd2c2",
        "status()": "200d2ed2",
        "tambah(uint256,uint256)": "f604bf57",
        "tambahArray(uint256)": "055c4299",
        "terimaETH()": "c4a759d2",
        "ubahNama(string)": "b503ba35",
        "umur()": "73a38cb3"
    },
    "gasEstimates": {
        "creation": {
            "codeDepositCost": "450200",
            "executionCost": "infinite",
            "totalCost": "infinite"
        },
        "external": {
            "contohArray(uint256[])": "infinite",
            "contohStringCalldata(string)": "infinite",
            "dataBytes()": "infinite",
            "dynamicArray(uint256)": "6780",
            "externalFunction()": "2314",
            "lihatNama()": "infinite",
            "mhs()": "infinite",
            "nama()": "infinite",
            "pemilik()": "2413",
            "status()": "2282",
            "tambah(uint256,uint256)": "521",
            "tambahArray(uint256)": "50833",
            "terimaETH()": "354",
            "ubahNama(string)": "infinite",
            "umur()": "2402"
        },
        "internal": {
            "internalFunction()": "infinite"
        }
    }
}