{
	"data": {
		"bytecode": {
			"linkReferences": {},
			"object": "60806040525f5f553480156011575f5ffd5b506102fa8061001f5f395ff3fe608060405260043610610049575f3560e01c806312b9bcc51461004d57806324f8612514610077578063c8e13b41146100b3578063d99d8313146100dd578063f604bf57146100e7575b5f5ffd5b348015610058575f5ffd5b5061006161010f565b60405161006e919061019e565b60405180910390f35b348015610082575f5ffd5b5061009d600480360381019061009891906101e5565b610117565b6040516100aa919061019e565b60405180910390f35b3480156100be575f5ffd5b506100c761012c565b6040516100d4919061019e565b60405180910390f35b6100e5610131565b005b3480156100f2575f5ffd5b5061010d600480360381019061010891906101e5565b610139565b005b5f5f54905090565b5f81836101249190610250565b905092915050565b5f5481565b345f81905550565b80826101459190610291565b5f819055507f5b7eb40edd87b2698bfc466ca4641f6c8e1bd0eef159a8b89242a498ff8fa47a5f5460405161017a919061019e565b60405180910390a15050565b5f819050919050565b61019881610186565b82525050565b5f6020820190506101b15f83018461018f565b92915050565b5f5ffd5b6101c481610186565b81146101ce575f5ffd5b50565b5f813590506101df816101bb565b92915050565b5f5f604083850312156101fb576101fa6101b7565b5b5f610208858286016101d1565b9250506020610219858286016101d1565b9150509250929050565b7f4e487b71000000000000000000000000000000000000000000000000000000005f52601160045260245ffd5b5f61025a82610186565b915061026583610186565b925082820261027381610186565b9150828204841483151761028a57610289610223565b5b5092915050565b5f61029b82610186565b91506102a683610186565b92508282019050808211156102be576102bd610223565b5b9291505056fea2646970667358221220e22775585a2cae9edd49a3f1733e1081affffbdbcf62d50c6172b468ac44faed64736f6c634300081e0033",
			"opcodes": "PUSH1 0x80 PUSH1 0x40 MSTORE PUSH0 PUSH0 SSTORE CALLVALUE DUP1 ISZERO PUSH1 0x11 JUMPI PUSH0 PUSH0 REVERT JUMPDEST POP PUSH2 0x2FA DUP1 PUSH2 0x1F PUSH0 CODECOPY PUSH0 RETURN INVALID PUSH1 0x80 PUSH1 0x40 MSTORE PUSH1 0x4 CALLDATASIZE LT PUSH2 0x49 JUMPI PUSH0 CALLDATALOAD PUSH1 0xE0 SHR DUP1 PUSH4 0x12B9BCC5 EQ PUSH2 0x4D JUMPI DUP1 PUSH4 0x24F86125 EQ PUSH2 0x77 JUMPI DUP1 PUSH4 0xC8E13B41 EQ PUSH2 0xB3 JUMPI DUP1 PUSH4 0xD99D8313 EQ PUSH2 0xDD JUMPI DUP1 PUSH4 0xF604BF57 EQ PUSH2 0xE7 JUMPI JUMPDEST PUSH0 PUSH0 REVERT JUMPDEST CALLVALUE DUP1 ISZERO PUSH2 0x58 JUMPI PUSH0 PUSH0 REVERT JUMPDEST POP PUSH2 0x61 PUSH2 0x10F JUMP JUMPDEST PUSH1 0x40 MLOAD PUSH2 0x6E SWAP2 SWAP1 PUSH2 0x19E JUMP JUMPDEST PUSH1 0x40 MLOAD DUP1 SWAP2 SUB SWAP1 RETURN JUMPDEST CALLVALUE DUP1 ISZERO PUSH2 0x82 JUMPI PUSH0 PUSH0 REVERT JUMPDEST POP PUSH2 0x9D PUSH1 0x4 DUP1 CALLDATASIZE SUB DUP2 ADD SWAP1 PUSH2 0x98 SWAP2 SWAP1 PUSH2 0x1E5 JUMP JUMPDEST PUSH2 0x117 JUMP JUMPDEST PUSH1 0x40 MLOAD PUSH2 0xAA SWAP2 SWAP1 PUSH2 0x19E JUMP JUMPDEST PUSH1 0x40 MLOAD DUP1 SWAP2 SUB SWAP1 RETURN JUMPDEST CALLVALUE DUP1 ISZERO PUSH2 0xBE JUMPI PUSH0 PUSH0 REVERT JUMPDEST POP PUSH2 0xC7 PUSH2 0x12C JUMP JUMPDEST PUSH1 0x40 MLOAD PUSH2 0xD4 SWAP2 SWAP1 PUSH2 0x19E JUMP JUMPDEST PUSH1 0x40 MLOAD DUP1 SWAP2 SUB SWAP1 RETURN JUMPDEST PUSH2 0xE5 PUSH2 0x131 JUMP JUMPDEST STOP JUMPDEST CALLVALUE DUP1 ISZERO PUSH2 0xF2 JUMPI PUSH0 PUSH0 REVERT JUMPDEST POP PUSH2 0x10D PUSH1 0x4 DUP1 CALLDATASIZE SUB DUP2 ADD SWAP1 PUSH2 0x108 SWAP2 SWAP1 PUSH2 0x1E5 JUMP JUMPDEST PUSH2 0x139 JUMP JUMPDEST STOP JUMPDEST PUSH0 PUSH0 SLOAD SWAP1 POP SWAP1 JUMP JUMPDEST PUSH0 DUP2 DUP4 PUSH2 0x124 SWAP2 SWAP1 PUSH2 0x250 JUMP JUMPDEST SWAP1 POP SWAP3 SWAP2 POP POP JUMP JUMPDEST PUSH0 SLOAD DUP2 JUMP JUMPDEST CALLVALUE PUSH0 DUP2 SWAP1 SSTORE POP JUMP JUMPDEST DUP1 DUP3 PUSH2 0x145 SWAP2 SWAP1 PUSH2 0x291 JUMP JUMPDEST PUSH0 DUP2 SWAP1 SSTORE POP PUSH32 0x5B7EB40EDD87B2698BFC466CA4641F6C8E1BD0EEF159A8B89242A498FF8FA47A PUSH0 SLOAD PUSH1 0x40 MLOAD PUSH2 0x17A SWAP2 SWAP1 PUSH2 0x19E JUMP JUMPDEST PUSH1 0x40 MLOAD DUP1 SWAP2 SUB SWAP1 LOG1 POP POP JUMP JUMPDEST PUSH0 DUP2 SWAP1 POP SWAP2 SWAP1 POP JUMP JUMPDEST PUSH2 0x198 DUP2 PUSH2 0x186 JUMP JUMPDEST DUP3 MSTORE POP POP JUMP JUMPDEST PUSH0 PUSH1 0x20 DUP3 ADD SWAP1 POP PUSH2 0x1B1 PUSH0 DUP4 ADD DUP5 PUSH2 0x18F JUMP JUMPDEST SWAP3 SWAP2 POP POP JUMP JUMPDEST PUSH0 PUSH0 REVERT JUMPDEST PUSH2 0x1C4 DUP2 PUSH2 0x186 JUMP JUMPDEST DUP2 EQ PUSH2 0x1CE JUMPI PUSH0 PUSH0 REVERT JUMPDEST POP JUMP JUMPDEST PUSH0 DUP2 CALLDATALOAD SWAP1 POP PUSH2 0x1DF DUP2 PUSH2 0x1BB JUMP JUMPDEST SWAP3 SWAP2 POP POP JUMP JUMPDEST PUSH0 PUSH0 PUSH1 0x40 DUP4 DUP6 SUB SLT ISZERO PUSH2 0x1FB JUMPI PUSH2 0x1FA PUSH2 0x1B7 JUMP JUMPDEST JUMPDEST PUSH0 PUSH2 0x208 DUP6 DUP3 DUP7 ADD PUSH2 0x1D1 JUMP JUMPDEST SWAP3 POP POP PUSH1 0x20 PUSH2 0x219 DUP6 DUP3 DUP7 ADD PUSH2 0x1D1 JUMP JUMPDEST SWAP2 POP POP SWAP3 POP SWAP3 SWAP1 POP JUMP JUMPDEST PUSH32 0x4E487B7100000000000000000000000000000000000000000000000000000000 PUSH0 MSTORE PUSH1 0x11 PUSH1 0x4 MSTORE PUSH1 0x24 PUSH0 REVERT JUMPDEST PUSH0 PUSH2 0x25A DUP3 PUSH2 0x186 JUMP JUMPDEST SWAP2 POP PUSH2 0x265 DUP4 PUSH2 0x186 JUMP JUMPDEST SWAP3 POP DUP3 DUP3 MUL PUSH2 0x273 DUP2 PUSH2 0x186 JUMP JUMPDEST SWAP2 POP DUP3 DUP3 DIV DUP5 EQ DUP4 ISZERO OR PUSH2 0x28A JUMPI PUSH2 0x289 PUSH2 0x223 JUMP JUMPDEST JUMPDEST POP SWAP3 SWAP2 POP POP JUMP JUMPDEST PUSH0 PUSH2 0x29B DUP3 PUSH2 0x186 JUMP JUMPDEST SWAP2 POP PUSH2 0x2A6 DUP4 PUSH2 0x186 JUMP JUMPDEST SWAP3 POP DUP3 DUP3 ADD SWAP1 POP DUP1 DUP3 GT ISZERO PUSH2 0x2BE JUMPI PUSH2 0x2BD PUSH2 0x223 JUMP JUMPDEST JUMPDEST SWAP3 SWAP2 POP POP JUMP INVALID LOG2 PUSH5 0x6970667358 0x22 SLT KECCAK256 0xE2 0x27 PUSH22 0x585A2CAE9EDD49A3F1733E1081AFFFFBDBCF62D50C61 PUSH19 0xB468AC44FAED64736F6C634300081E00330000 "
		},
		"gasEstimates": {
			"creation": {
				"codeDepositCost": "152400",
				"executionCost": "5198",
				"totalCost": "157598"
			},
			"external": {
				"donasi()": "22275",
				"hasilTerakhir()": "2446",
				"kali(uint256,uint256)": "infinite",
				"lihatHasil()": "2409",
				"tambah(uint256,uint256)": "infinite"
			}
		},
		"methodIdentifiers": {
			"donasi()": "d99d8313",
			"hasilTerakhir()": "c8e13b41",
			"kali(uint256,uint256)": "24f86125",
			"lihatHasil()": "12b9bcc5",
			"tambah(uint256,uint256)": "f604bf57"
		}
	},
	"abi": [
		{
			"anonymous": false,
			"inputs": [
				{
					"indexed": false,
					"internalType": "uint256",
					"name": "hasilBaru",
					"type": "uint256"
				}
			],
			"name": "HasilDiperbarui",
			"type": "event"
		},
		{
			"inputs": [],
			"name": "donasi",
			"outputs": [],
			"stateMutability": "payable",
			"type": "function"
		},
		{
			"inputs": [],
			"name": "hasilTerakhir",
			"outputs": [
				{
					"internalType": "uint256",
					"name": "",
					"type": "uint256"
				}
			],
			"stateMutability": "view",
			"type": "function"
		},
		{
			"inputs": [
				{
					"internalType": "uint256",
					"name": "a",
					"type": "uint256"
				},
				{
					"internalType": "uint256",
					"name": "b",
					"type": "uint256"
				}
			],
			"name": "kali",
			"outputs": [
				{
					"internalType": "uint256",
					"name": "",
					"type": "uint256"
				}
			],
			"stateMutability": "pure",
			"type": "function"
		},
		{
			"inputs": [],
			"name": "lihatHasil",
			"outputs": [
				{
					"internalType": "uint256",
					"name": "",
					"type": "uint256"
				}
			],
			"stateMutability": "view",
			"type": "function"
		},
		{
			"inputs": [
				{
					"internalType": "uint256",
					"name": "a",
					"type": "uint256"
				},
				{
					"internalType": "uint256",
					"name": "b",
					"type": "uint256"
				}
			],
			"name": "tambah",
			"outputs": [],
			"stateMutability": "nonpayable",
			"type": "function"
		}
	]
}