{
	"data": {
		"bytecode": {
			"linkReferences": {},
			"object": "60806040525f6001553480156012575f5ffd5b50610313806100205f395ff3fe608060405234801561000f575f5ffd5b5060043610610034575f3560e01c8063bc8bc2b414610038578063fe0dee1714610069575b5f5ffd5b610052600480360381019061004d9190610175565b610087565b60405161006092919061022a565b60405180910390f35b610071610138565b60405161007e9190610267565b60405180910390f35b5f602052805f5260405f205f91509050805f0180546100a5906102ad565b80601f01602080910402602001604051908101604052809291908181526020018280546100d1906102ad565b801561011c5780601f106100f35761010080835404028352916020019161011c565b820191905f5260205f20905b8154815290600101906020018083116100ff57829003601f168201915b505050505090806001015f9054906101000a900460ff16905082565b60015481565b5f5ffd5b5f819050919050565b61015481610142565b811461015e575f5ffd5b50565b5f8135905061016f8161014b565b92915050565b5f6020828403121561018a5761018961013e565b5b5f61019784828501610161565b91505092915050565b5f81519050919050565b5f82825260208201905092915050565b8281835e5f83830152505050565b5f601f19601f8301169050919050565b5f6101e2826101a0565b6101ec81856101aa565b93506101fc8185602086016101ba565b610205816101c8565b840191505092915050565b5f8115159050919050565b61022481610210565b82525050565b5f6040820190508181035f83015261024281856101d8565b9050610251602083018461021b565b9392505050565b61026181610142565b82525050565b5f60208201905061027a5f830184610258565b92915050565b7f4e487b71000000000000000000000000000000000000000000000000000000005f52602260045260245ffd5b5f60028204905060018216806102c457607f821691505b6020821081036102d7576102d6610280565b5b5091905056fea26469706673582212205c09bce1818e9a2472f5f0ac0b869b5ab1f0d79f528ba09f215d36f09d497c3264736f6c634300081e0033",
			"opcodes": "PUSH1 0x80 PUSH1 0x40 MSTORE PUSH0 PUSH1 0x1 SSTORE CALLVALUE DUP1 ISZERO PUSH1 0x12 JUMPI PUSH0 PUSH0 REVERT JUMPDEST POP PUSH2 0x313 DUP1 PUSH2 0x20 PUSH0 CODECOPY PUSH0 RETURN INVALID PUSH1 0x80 PUSH1 0x40 MSTORE CALLVALUE DUP1 ISZERO PUSH2 0xF JUMPI PUSH0 PUSH0 REVERT JUMPDEST POP PUSH1 0x4 CALLDATASIZE LT PUSH2 0x34 JUMPI PUSH0 CALLDATALOAD PUSH1 0xE0 SHR DUP1 PUSH4 0xBC8BC2B4 EQ PUSH2 0x38 JUMPI DUP1 PUSH4 0xFE0DEE17 EQ PUSH2 0x69 JUMPI JUMPDEST PUSH0 PUSH0 REVERT JUMPDEST PUSH2 0x52 PUSH1 0x4 DUP1 CALLDATASIZE SUB DUP2 ADD SWAP1 PUSH2 0x4D SWAP2 SWAP1 PUSH2 0x175 JUMP JUMPDEST PUSH2 0x87 JUMP JUMPDEST PUSH1 0x40 MLOAD PUSH2 0x60 SWAP3 SWAP2 SWAP1 PUSH2 0x22A JUMP JUMPDEST PUSH1 0x40 MLOAD DUP1 SWAP2 SUB SWAP1 RETURN JUMPDEST PUSH2 0x71 PUSH2 0x138 JUMP JUMPDEST PUSH1 0x40 MLOAD PUSH2 0x7E SWAP2 SWAP1 PUSH2 0x267 JUMP JUMPDEST PUSH1 0x40 MLOAD DUP1 SWAP2 SUB SWAP1 RETURN JUMPDEST PUSH0 PUSH1 0x20 MSTORE DUP1 PUSH0 MSTORE PUSH1 0x40 PUSH0 KECCAK256 PUSH0 SWAP2 POP SWAP1 POP DUP1 PUSH0 ADD DUP1 SLOAD PUSH2 0xA5 SWAP1 PUSH2 0x2AD JUMP JUMPDEST DUP1 PUSH1 0x1F ADD PUSH1 0x20 DUP1 SWAP2 DIV MUL PUSH1 0x20 ADD PUSH1 0x40 MLOAD SWAP1 DUP2 ADD PUSH1 0x40 MSTORE DUP1 SWAP3 SWAP2 SWAP1 DUP2 DUP2 MSTORE PUSH1 0x20 ADD DUP3 DUP1 SLOAD PUSH2 0xD1 SWAP1 PUSH2 0x2AD JUMP JUMPDEST DUP1 ISZERO PUSH2 0x11C JUMPI DUP1 PUSH1 0x1F LT PUSH2 0xF3 JUMPI PUSH2 0x100 DUP1 DUP4 SLOAD DIV MUL DUP4 MSTORE SWAP2 PUSH1 0x20 ADD SWAP2 PUSH2 0x11C JUMP JUMPDEST DUP3 ADD SWAP2 SWAP1 PUSH0 MSTORE PUSH1 0x20 PUSH0 KECCAK256 SWAP1 JUMPDEST DUP2 SLOAD DUP2 MSTORE SWAP1 PUSH1 0x1 ADD SWAP1 PUSH1 0x20 ADD DUP1 DUP4 GT PUSH2 0xFF JUMPI DUP3 SWAP1 SUB PUSH1 0x1F AND DUP3 ADD SWAP2 JUMPDEST POP POP POP POP POP SWAP1 DUP1 PUSH1 0x1 ADD PUSH0 SWAP1 SLOAD SWAP1 PUSH2 0x100 EXP SWAP1 DIV PUSH1 0xFF AND SWAP1 POP DUP3 JUMP JUMPDEST PUSH1 0x1 SLOAD DUP2 JUMP JUMPDEST PUSH0 PUSH0 REVERT JUMPDEST PUSH0 DUP2 SWAP1 POP SWAP2 SWAP1 POP JUMP JUMPDEST PUSH2 0x154 DUP2 PUSH2 0x142 JUMP JUMPDEST DUP2 EQ PUSH2 0x15E JUMPI PUSH0 PUSH0 REVERT JUMPDEST POP JUMP JUMPDEST PUSH0 DUP2 CALLDATALOAD SWAP1 POP PUSH2 0x16F DUP2 PUSH2 0x14B JUMP JUMPDEST SWAP3 SWAP2 POP POP JUMP JUMPDEST PUSH0 PUSH1 0x20 DUP3 DUP5 SUB SLT ISZERO PUSH2 0x18A JUMPI PUSH2 0x189 PUSH2 0x13E JUMP JUMPDEST JUMPDEST PUSH0 PUSH2 0x197 DUP5 DUP3 DUP6 ADD PUSH2 0x161 JUMP JUMPDEST SWAP2 POP POP SWAP3 SWAP2 POP POP JUMP JUMPDEST PUSH0 DUP2 MLOAD SWAP1 POP SWAP2 SWAP1 POP JUMP JUMPDEST PUSH0 DUP3 DUP3 MSTORE PUSH1 0x20 DUP3 ADD SWAP1 POP SWAP3 SWAP2 POP POP JUMP JUMPDEST DUP3 DUP2 DUP4 MCOPY PUSH0 DUP4 DUP4 ADD MSTORE POP POP POP JUMP JUMPDEST PUSH0 PUSH1 0x1F NOT PUSH1 0x1F DUP4 ADD AND SWAP1 POP SWAP2 SWAP1 POP JUMP JUMPDEST PUSH0 PUSH2 0x1E2 DUP3 PUSH2 0x1A0 JUMP JUMPDEST PUSH2 0x1EC DUP2 DUP6 PUSH2 0x1AA JUMP JUMPDEST SWAP4 POP PUSH2 0x1FC DUP2 DUP6 PUSH1 0x20 DUP7 ADD PUSH2 0x1BA JUMP JUMPDEST PUSH2 0x205 DUP2 PUSH2 0x1C8 JUMP JUMPDEST DUP5 ADD SWAP2 POP POP SWAP3 SWAP2 POP POP JUMP JUMPDEST PUSH0 DUP2 ISZERO ISZERO SWAP1 POP SWAP2 SWAP1 POP JUMP JUMPDEST PUSH2 0x224 DUP2 PUSH2 0x210 JUMP JUMPDEST DUP3 MSTORE POP POP JUMP JUMPDEST PUSH0 PUSH1 0x40 DUP3 ADD SWAP1 POP DUP2 DUP2 SUB PUSH0 DUP4 ADD MSTORE PUSH2 0x242 DUP2 DUP6 PUSH2 0x1D8 JUMP JUMPDEST SWAP1 POP PUSH2 0x251 PUSH1 0x20 DUP4 ADD DUP5 PUSH2 0x21B JUMP JUMPDEST SWAP4 SWAP3 POP POP POP JUMP JUMPDEST PUSH2 0x261 DUP2 PUSH2 0x142 JUMP JUMPDEST DUP3 MSTORE POP POP JUMP JUMPDEST PUSH0 PUSH1 0x20 DUP3 ADD SWAP1 POP PUSH2 0x27A PUSH0 DUP4 ADD DUP5 PUSH2 0x258 JUMP JUMPDEST SWAP3 SWAP2 POP POP JUMP JUMPDEST PUSH32 0x4E487B7100000000000000000000000000000000000000000000000000000000 PUSH0 MSTORE PUSH1 0x22 PUSH1 0x4 MSTORE PUSH1 0x24 PUSH0 REVERT JUMPDEST PUSH0 PUSH1 0x2 DUP3 DIV SWAP1 POP PUSH1 0x1 DUP3 AND DUP1 PUSH2 0x2C4 JUMPI PUSH1 0x7F DUP3 AND SWAP2 POP JUMPDEST PUSH1 0x20 DUP3 LT DUP2 SUB PUSH2 0x2D7 JUMPI PUSH2 0x2D6 PUSH2 0x280 JUMP JUMPDEST JUMPDEST POP SWAP2 SWAP1 POP JUMP INVALID LOG2 PUSH5 0x6970667358 0x22 SLT KECCAK256 TLOAD MULMOD 0xBC RJUMPI 0x818E SWAP11 0x24 PUSH19 0xF5F0AC0B869B5AB1F0D79F528BA09F215D36F0 SWAP14 BLOBHASH PUSH29 0x3264736F6C634300081E00330000000000000000000000000000000000 "
		},
		"gasEstimates": {
			"creation": {
				"codeDepositCost": "157400",
				"executionCost": "5205",
				"totalCost": "162605"
			},
			"external": {
				"todoCount()": "2425",
				"todos(uint256)": "infinite"
			}
		},
		"methodIdentifiers": {
			"todoCount()": "fe0dee17",
			"todos(uint256)": "bc8bc2b4"
		}
	},
	"abi": [
		{
			"inputs": [],
			"name": "todoCount",
			"outputs": [
				{
					"internalType": "uint256",
					"name": "",
					"type": "uint256"
				}
			],
			"stateMutability": "view",
			"type": "function"
		},
		{
			"inputs": [
				{
					"internalType": "uint256",
					"name": "",
					"type": "uint256"
				}
			],
			"name": "todos",
			"outputs": [
				{
					"internalType": "string",
					"name": "teks",
					"type": "string"
				},
				{
					"internalType": "bool",
					"name": "complate",
					"type": "bool"
				}
			],
			"stateMutability": "view",
			"type": "function"
		}
	]
}